:1000000000800020BD01000019190000DD1800006B
:10001000DD180000DD180000DD180000DD1800000C
:10002000DD180000DD180000DD18000019190000BF
:1000300019190000DD18000019190000CD18000082
:1000400019190000191900001919000019190000E8
:1000500019190000191900001919000019190000D8
:1000600019190000191900001919000019190000C8
:1000700019190000191900001919000019190000B8
:1000800019190000191900001919000019190000A8
:100090001919000019190000191900001919000098
:1000A000390E0000490E000019190000191900004E
:1000B0001919000019190000191900001919000078
:1000C0001919000019190000191900001919000068
:1000D0001919000019190000191900001919000058
:1000E0001919000019190000191900001919000048
:1000F00019190000B132000019190000AD380000D4
:1001000019190000CD3D000019190000191900004F
:100110001919000019190000191900001919000017
:100120001919000019190000191900001919000007
:1001300019190000191900001919000019190000F7
:1001400019190000191900001919000019190000E7
:1001500019190000191900001919000019190000D7
:1001600019190000A9200000191900001919000030
:1001700019190000191900001919000019190000B7
:1001800019190000191900001919000019190000A7
:100190001919000019190000191900001919000097
:1001A0001919000019190000191900001919000087
:1001B000191900001919000019190000574B4CF2C9
:1001C000205210B51A804DF628121A8000BF00BFC9
:1001D00001F0A6FB524B4FF010621A60514A9A6030
:1001E000514ADA60A3F53043203B1A6812F480725A
:1001F00004D14E490A604FF4A8521A604C4B1A7849
:10020000110703D51A7842F008021A70494B4A4C7C
:100210004A482A221A704A4A00239918A14203D256
:10022000195899500433F8E7464B474900228B424E
:1002300002D243F8042BFAE74448454900235A58B0
:100240001A500433B3F5DE7FF9D1424B424A802184
:1002500003F8011B9342FBD1404B3C4A1A60404BD0
:100260000A221A70A3F5805324225A70A0221A7011
:100270009A799207FCD59A79D406FCD4394A9379B5
:1002800003F00C03082B374BF9D103221A714022DB
:100290005A719A799006FCD5324A9179314B4906C8
:1002A000FBD5314A314911600221516020221A7078
:1002B0009A7902F00C020C2AFAD12D4B2D4A1A60C1
:1002C0002D4B2E4A1A6000225A60072243F8042C54
:1002D0002B4AC3F80C2D62B601F0A8FD134B1B6826
:1002E000DA0705D5274801F013FD274B274A1A6086
:1002F000274B1B785B0609D5234C244A236893427D
:1003000004D1204801F004FD0023236004F03AFCEE
:1003100001F00CFB02F02AFCFEE700BF0E200540B6
:1003200030800440823F04000100002B14D00340C1
:1003300002D0074000E007405C95FF1F20930000BB
:100340006087FF1F5C95FF1F9C99FF1F0082FF1FA6
:100350000000000000E400E05FE400E008ED00E0E1
:100360000050064000400640448004400000030165
:1003700004800440C010050014E000E0FF76010096
:1003800000002020AE13C6011CE00340A5C3945A10
:1003900000F00740FFFFFFFFFFFFFFFFFFFFFFFF32
:1003A000FFFFFFFFFFFFFFFFFFFFFFFFFFFFFFFF5D
:1003B000FFFFFFFFFFFFFFFFFFFFFFFFFFFFFFFF4D
:1003C000FFFFFFFFFFFFFFFFFFFFFFFFFFFFFFFF3D
:1003D000FFFFFFFFFFFFFFFFFFFFFFFFFFFFFFFF2D
:1003E000FFFFFFFFFFFFFFFFFFFFFFFFFFFFFFFF1D
:1003F000FFFFFFFFFFFFFFFFFFFFFFFFFFFFFFFF0D
:10040000FFFFFFFFFFFFFFFFFFFFFFFFFEFFFFFFFD
:1004100010B5054C237833B9044B13B10448AFF33E
:1004200000800123237010BD5C95FF1F00000000B9
:100430001893000008B5064B1BB106480649AFF3F8
:1004400000800648036813B1054B03B1984708BD07
:1004500000000000189300006095FF1F5C95FF1FCF
:1004600000000000024B1A6801321A60704700BF9A
:100470007C95FF1F024B1A6801321A60704700BF5B
:10048000B895FF1F38B50220012101F075FC072047
:10049000012101F071FC0820012101F06DFC0A200E
:1004A000012101F069FC0920012101F065FC052012
:1004B000002101F061FC0620002101F05DFC02201A
:1004C000012101F035FC0720012101F031FC082059
:1004D000012101F02DFC0A20012101F029FC092055
:1004E000002101F025FC05202A49042201F0B0FB7F
:1004F00006202949042201F0ABFB4FF47A7001F089
:100500007FFC264D2846012100F028FF244C204680
:10051000012100F023FF2846002100F01DFF2046A6
:10052000002100F019FF2846002100F0BFFF2046FF
:10053000002100F0BBFF0C2001F0CCF8082001F0F6
:10054000F5F80E2001F020F904460F2001F01CF907
:10055000204400EBD070C0F34F02124B1A8040F2DF
:10056000DC51114B1980114C53182380104D284633
:10057000104902F00DFB4FF47A7001F041FC28465F
:100580000D49228802F004FB01F018FC0B4B1860A7
:1005900038BD00BF65040000750400008495FF1F8E
:1005A0009C95FF1FCC95FF1F8295FF1FB495FF1FE1
:1005B0008097FF1FAC8D0000C08D0000C095FF1F0D
:1005C00008B501F0E1F8024683B2A3F5CD7080B220
:1005D00040F6CA41884207D90A480B491A4602F038
:1005E000D7FA4FF6FF700BE0084909888B4206D313
:1005F0000749088883428CBF80B290B200E088B27D
:1006000000B208BD8097FF1FF48D0000CC95FF1F3E
:10061000B495FF1F38B501F0D1FB284B1B68C01AF9
:10062000B0F57A7F49D301F0C9FB244B186072B64C
:1006300023480368234A02FB03F3234CA4FB031360
:100640009B0922490B6022490D6802FB05F2A4FBBD
:10065000025292091F4C22609A4234BF14461C4633
:100660009A422CBFA318E3185B081B4C236000239D
:1006700003600B6062B60E20FFF7A2FF80B24A282B
:1006800002D9164B188002E00022144B1A80134B3B
:100690001988134B1980134C2180134800F006FF72
:1006A0001248218800F002FF01F088FB034B1A6812
:1006B000821A0F480F4902F06BFA38BDC095FF1F30
:1006C0007C95FF1FF8240100D34D6210C895FF1FD1
:1006D000B895FF1F7895FF1FC495FF1F8095FF1FDA
:1006E000BE95FF1FBC95FF1F8495FF1F9C95FF1FA4
:1006F0008097FF1F188E000008B5074803210722C6
:100700004FF0FF3300F0ECFD0448032108224FF0C6
:10071000FF3300F0E5FD08BD8495FF1F9C95FF1F8A
:100720000369D3F83801D3F83431C01A704700BFD9
:10073000704700BF0369D3F84422B2F5817F09D81E
:10074000D3F84422501CC3F84402134483F83C11EC
:1007500001207047012303710020704730B4036902
:10076000D3F84442B4F5817F1ED8D3F84442C4F58F
:1007700081740134D3F844522B4403F59E739442A0
:1007800002D201220271224632B18D1811F8014BBA
:1007900003F8014BA942F9D10369D3F8441211447B
:1007A000C3F84412104602E001230371002030BC5C
:1007B000704700BF38B50446084B0360036993F8DF
:1007C0004822022A08D1D3F860522DB1284602F0FF
:1007D000B3F9284602F0D2F9204638BDA08E0000B9
:1007E00010B4002202714FF47A7484600273064AD6
:1007F000026041734FF41A74044A04FB0121016141
:100800005DF8044B704700BFA08E00006487FF1F97
:10081000D0F83421D0F838319A4208D2D0F83431A7
:100820005A1CC0F83421184490F8300070474FF03B
:10083000FF30704708B50069FFF7EAFF08BD00BF49
:10084000D0F83421D0F838319A423DBFD0F8343155
:10085000C01890F830004FF0FF30704708B50069BD
:10086000FFF7EEFF08BD00BF38B50446C268157833
:10087000EDB281680B78DBB213F0200F00F0C3817A
:1008800013F0100F00F0058190F85632DBB2022B06
:1008900004D090F85632DBB2032B4CD1D4F860125E
:1008A0000B689B8B03F080039BB2002B00F08082CF
:1008B00094F85632DBB2022B40F07A826EE2137863
:1008C00013F0800FFBD00A79B54B1A70002384F81F
:1008D0005632D4F84432013BC4F840322369D4F88C
:1008E0004022224492F83C211A7020E0AD4B1A6855
:1008F0000B7901219940114219D0AB4A1370D4F8F9
:1009000060321A79A94B1A70002384F8563215F018
:10091000100F0CD0072384F84E32A36880221A707F
:10092000E36812221A700023C4F8403238BDE3682D
:1009300002221A7038BD90F84E32DBB2012B56D12C
:1009400015F0100F0DD0002380F85632072280F8E2
:100950004E2280220A70C26812211170C0F8403203
:1009600038BD15F0010F0FD0002380F85632D0F8B3
:1009700040321BB9052380F84E3202E0062380F88E
:100980004E3280230B702EE0D0F840320133C0F895
:100990004032D0F8442293420AD3002380F84E32EA
:1009A00090F84D32012B0CBF8023B0230B701AE05E
:1009B00090F85632DBB2012B0ED1022380F856326A
:1009C000F1230B70D0F860321A79794B1A700369F1
:1009D00090F83D211A7006E00369D0F840220244E5
:1009E00092F83C211A70E36802221A7038BD90F820
:1009F0004E32DBB2022B36D115F0100F08D0072390
:100A000080F84E3280230B70C36812221A7038BDF2
:100A100015F0010F05D0052380F84E3280230B70AE
:100A20001DE090F85632DBB2012B0CD1022380F886
:100A30005632E1230B70D0F860321A795C4B1A7091
:100A400003691B780BE0032380F84E32D0F8503254
:100A5000012B0CBFE823E0230B7003691B78E368CC
:100A600002221A7038BD90F84E32DBB2042B0AD144
:100A700090F84D32012B0CBF8023B0230B70C3685C
:100A800002221A7038BD80230B70C36802221A70CC
:100A900038BD90F85632DBB2022B04D090F85632B3
:100AA000DBB2032B56D1D4F860321A68928B02F075
:100AB000800292B2002A00F08C8194F85622D2B2C1
:100AC000022A40F086817AE11A79354B1A700023A8
:100AD00084F8563294F84E32DBB2042B1CBF00234C
:100AE00084F84E32A368B0221A70D4F85032013B19
:100AF000C4F83831D4F838315A1CC4F83821226986
:100B00001278234483F8302094F84D32012B1DD104
:100B10002023013B7FF4FDAFA36880221A7015E00B
:100B2000204A12681B790121994011420ED01F4AB8
:100B30001370D4F860321A791B4B1A70002384F8B2
:100B4000563284F84E32A36880221A70E36802227B
:100B50001A7038BDD0F838210232D0F850329A429B
:100B600000F03E8190F84E32DBB2042B04D190F8B5
:100B70005532002B00F03481D4F838210132D4F8FA
:100B800050329A4280F03A8194F84E32DBB2042B14
:100B900040F0298194F85532002B40F02F8122E15A
:100BA0001C8000402C8000401F8000401E800040C0
:100BB0001B800040002384F84E32A368B0221A70D4
:100BC000D4F838315A1CC4F83821226912782344E9
:100BD00083F8302094F84D32012B06D12023013BBD
:100BE0007FF4FDAFA36880221A7094F84E32DBB216
:100BF000042B04D194F85532002B00F00981E368EE
:100C000002221A7038BD15F0100F08D0102313708F
:100C100015F0400F06D1C36802221A7038BD15F0D6
:100C2000400F60D094F84E32DBB20A2B04D1D4F8D6
:100C30005832002B40F0F08015F0040F1ED009232D
:100C400084F84E320023C4F84432A368D0221A70CC
:100C500023691B785B0884F84F32D4F85C3203B107
:100C60009847D4F844320BB984F83C31236994F89E
:100C70003C211A700123C4F8403230E0002384F88C
:100C8000543294F84A322BB912206849032200F0FA
:100C9000DFFF16E0012B05D111206449032200F08B
:100CA000D7FF0EE0032B05D11E206149032200F07F
:100CB000CFFF06E0042B04D11F205D49032200F082
:100CC000C7FF0A2384F84E320023C4F83831A368E2
:100CD000C0221A7023691B785B0884F84F32E368DE
:100CE00002221A7038BD13F0100F20D015F0010F3A
:100CF00015D1D0F84022D0F844329A4208D2D0F828
:100D000040325A1CC0F84022034493F83C2100E0D2
:100D1000002223691A70A368D0221A703AE0C02317
:100D20000B7003691B78002380F84E3232E00023F9
:100D300080F8543290F84A322BB912203B490322F2
:100D400000F086FF16E0012B05D111203749032260
:100D500000F07EFF0EE0032B05D11E203449032254
:100D600000F076FF06E0042B04D11F203049032257
:100D700000F06EFF23691B78DAB2D4F83831B3F58E
:100D8000817F07D8D4F83831591CC4F8381123446E
:100D900083F83020E36802221A7038BD0A79254BA7
:100DA0001A70A368F0221A70032384F85632BEE545
:100DB00094F85632DBB2032B7FF498AD7FE51A79B5
:100DC0001C4B1A70A368E8221A70032384F8563269
:100DD000BCE694F85622D2B2032A7FF4A1AE73E6A1
:100DE000E8230B70C8E6D4F838315A1CC4F838210F
:100DF00022691278234483F83020F6E6002384F831
:100E0000553294F84E32DBB2042B7FF4D3AED4E6E5
:100E1000012384F85532F2E60023C4F83431D4F8C3
:100E20003801D4F85832984706E700BFFD0E00009D
:100E30000D0F00001F80004008B502480021FFF799
:100E400013FD08BD6487FF1F08B502480121FFF7A5
:100E50000BFD08BDCC89FF1F10B50446C3681B7885
:100E600013F0200F24D1002380F84E3290F84A323C
:100E70001BB9122000F034FF10E0012B03D1112028
:100E800000F02EFF0AE0032B03D11E2000F028FF04
:100E900004E0042B02D11F2000F022FFD4F85832C6
:100EA00053B30022C4F83421D4F83801984710BD58
:100EB00090F854320133DBB280F85432012B03D85E
:100EC00090F84932012B17D094F84A321BB91220FE
:100ED00000F006FF10BD012B03D1112000F000FF30
:100EE00010BD032B03D11E2000F0FAFE10BD042B11
:100EF00002D11F2000F0F4FE10BD00BF08B502486B
:100F00000021FFF7A9FF08BD6487FF1F08B502484D
:100F10000121FFF7A1FF08BDCC89FF1F70B50B4E63
:100F200030460021FFF75CFC094D0A4C304629464B
:100F3000224603F017FE084E30460121FFF750FC11
:100F400030462946224603F00DFE70BDE495FF1F92
:100F5000B50700006087FF1FD095FF1F0B4BDB68B4
:100F6000834211D0094B1A6812F4804F04D0D86024
:100F700040F0804018617047044B05491960D86003
:100F800040F0804018611A60704700BF00C0024006
:100F900001401F00184B1A6842F480521A60174B28
:100FA000174A1A60174ADA6002F180421A61164A3B
:100FB0001A60164B1B7813F0010F07BF4FF4107225
:100FC000134B4FF40072134B1A60104B1B7813F045
:100FD000020F4FF400720CBF0F4B104B1A600B4BFB
:100FE0001B7813F0040F07BF4FF410720C4B4FF433
:100FF00000720C4B1A6070473C80044000C00240F5
:1010000001401F000110003800001F807D97FF1F66
:1010100018B0044008C004401CB004400CC0044098
:1010200014B0044004C0044008B5084B1A6842F4E8
:1010300080521A60064BDB6810B943F0807001E003
:1010400023F08070FFF78AFF08BD00BF3C8004409A
:1010500000C0024030B46A4B1A6842F480521A60F1
:101060001A6842F480521A60664BDB6803F08073A2
:10107000002B14BF20230023624AD26802F00F0223
:10108000012A0AD9042A02D843F0010305E0062AFE
:1010900094BF43F0020343F003035A4A126812F468
:1010A000804F08BF43F04003564A1268002AB8BF79
:1010B00043F010031843524B1B6813F4805F06D1B2
:1010C00043F480534E4A13604F4A4E4BDA6010F09F
:1010D000400104D14B4B1A6842F480421A6000F080
:1010E00020024A4B4A4C002A14BF22461A4610F0EE
:1010F000080F18BF42F0806210F0040F10D010F0FB
:10110000030302D1434B134323E0012B02D1424B93
:1011100013431EE0022B0CBF404B414B134318E01E
:1011200010F0030304D142F4805343F0010310E0B4
:10113000012B04D142F4804343F0040309E0022B65
:1011400007BF42F4C04343F0060342F4E04343F0D8
:1011500007032C4AD46804F000442343D268934226
:101160000FD0284A126812F4804F02D0254AD3606B
:1011700007E042F4804545F00105224C2560E3601C
:10118000226000F010000028264B08BF4FF4F8132F
:1011900021B31C4A1360244B1B7813F0010F07BFC7
:1011A0004FF41072214B4FF40072214B1A601E4B0A
:1011B0001B7813F0020F4FF400720CBF1D4B1E4B37
:1011C0001A60194B1B7813F0040F07BF4FF410720D
:1011D0001A4B4FF400721A4B1A600FE043F480432D
:1011E00043F00103074A13604FF4A27302F5F8328B
:1011F0001832136004321360083A136030BC704731
:101200003C80044000C00240011001380000013859
:101210000000013901010002040400020606000278
:101220000707000200001F807D97FF1F18B00440D1
:1012300008C004401CB004400CC0044014B004407A
:1012400004C0044008B50B4B1A6842F480521A607F
:10125000094BDB6803F0E06213F0007F05D020F457
:10126000704300F4704043EA10101043FFF776FE1D
:1012700008BD00BF3C80044000C0024008B50428FF
:1012800004D14FF06050FFF7DDFF08BD18B90E48DC
:10129000FFF7D8FF08BD052803D10C48FFF7D2FFA0
:1012A00008BD012803D10A48FFF7CCFF08BD062876
:1012B00003D10848FFF7C6FF08BD02280CBF064847
:1012C0000648FFF7BFFF08BD0110013803200138B1
:1012D0000320033805400138065001380760013803
:1012E00038B50446002505734573857304202061D5
:1012F0000120207522606360013905290DD8DFE8DF
:1013000001F00306090306090823A36007E00A2386
:10131000A36004E00C23A36001E00023A360D0B22B
:10132000012100F029FD2079012100F025FD207820
:10133000012100F0FDFC2079012100F0F9FCFFF70C
:1013400029FE0120FFF770FE0020FFF783FE207CBE
:10135000FFF794FF204638BD8173704708B5062912
:101360002CD80161C9B2042905D14FF06050FFF7B4
:1013700069FF012008BD21B91148FFF763FF012073
:1013800008BD052904D10F48FFF75CFF012008BD07
:10139000012904D10C48FFF755FF012008BD06299B
:1013A00004D10A48FFF74EFF012008BD02290CBFF7
:1013B00007480848FFF746FF012008BD002008BD88
:1013C000011001380320013803200338054001389B
:1013D000065001380760013870B504460D461646C0
:1013E00083680C2B02D1C1F30B0507E00A2B02D155
:1013F000C1F3090502E0082B08BFCDB2A37B63B19E
:101400001022264B1A600C331B6813F0040F08D10E
:101410004FF48072224B1A6003E02078002100F024
:1014200087FC227B920342F48052637B83F00103AA
:1014300042EA433343EAC636A368C3F10C039D4036
:101440003543ADB2174B4FF00042DA622A0A5A63B5
:101450001A46D36A002BFCDA124B9A6B4FF000420B
:10146000DA62EDB25D631A46D36A002BFCDA0D4BEB
:101470009B6BA37B63B110220B4B1A6010331B686C
:1014800013F0040F08D140F20312054B1A6070BD2F
:101490002078012100F04CFC70BD00BF88F00F40A7
:1014A00010B0044000C0024084F00F4008B5002294
:1014B000FFF792FF08BD00BF30B4394A39491368BD
:1014C00013F0800FFBD10B6813F0800FF7D172B6C9
:1014D000354B1B78002B5FD0344B1C6804331D68E0
:1014E000043318680433196804331A6804331B681A
:1014F0002C44204401440A441A44C2F34E0242F4EC
:1015000000422B4B1A602C331C6804331D680433D3
:1015100018680433196804331A6804331B682C44B0
:10152000204401440A441A44C2F34E0242F40042E9
:10153000204B1A6003F108131C6804331D68043340
:1015400018680433196804331A6804331B682C4480
:10155000204401440A441A44C2F34E0242F40042B9
:10156000154B1A602C331C6804331D68043318684B
:101570000433196804331A6804331B682C4420446C
:1015800001440A441A44C2F34E0242F400420B4B97
:101590001A600022044B1A7062B630BC704700BF5C
:1015A00024B0034024B00B40F995FF1F38B003402E
:1015B0002CB0034030B003402CB00B4030B00B4097
:1015C00060223A4B1A70E12201331A70384B1B78B3
:1015D000082B10D1012203F1804303F56C331A600C
:1015E000132334490B6001F5FF2101F2FC710A60FD
:1015F000314A13601FE00A2B0DD139222F4B1A609C
:1016000013232C490B6001F5FF2101F2FC710A60E4
:10161000294A13600FE00C2B0CBF35223D22274BCB
:101620001A60122323490B6001F5FF2101F2FC71BE
:101630000A60214A1360224B1B7833B10123214AEF
:10164000136002F50022136005E000231D4A1360B9
:1016500002F5002213601C4B1B78012B06D8802357
:101660001A4A136002F5002213601AE0042B06D810
:101670008423164A136002F50022136011E0082B40
:1016800006D88523114A136002F50022136008E092
:10169000102B94BF862387230C4A136002F5002287
:1016A000136001220A4B1A70704700BF00400740C8
:1016B000348CFF1F0CB003400CB00B4008B003404B
:1016C000FC95FF1F20B00340358CFF1F24B0034062
:1016D000F995FF1F08B50C2804D9102828BF102041
:1016E000102307E00A2804D8092834BF08230A2356
:1016F00000E00C23DAB2101A08490870084909788A
:10170000994209D0064B1A70064B1B7813B1002280
:10171000054B1A60FFF754FF08BD00BFF895FF1F87
:10172000348CFF1FF995FF1F24B0034010B5044609
:10173000124B1B780BB1FFF7BFFE012C03D8002220
:101740000F4B1A6017E0042C03D804220C4B1A60CC
:1017500011E0082C04D80522094B1A6008220AE07F
:10176000102C04D80622064B1A60102203E0072230
:10177000034B1A602022034B1A7010BDF995FF1F0E
:1017800024B00340358CFF1F2DE9F8430D2813D9F1
:10179000172802D80E38C0B20EE0A0F11A03DBB24F
:1017A000052B02D80938C0B206E0A0F12203DBB253
:1017B000062B73D81838C0B23A4B1E5C3A4B1B78D4
:1017C0000BB1FFF779FE16F0800F29D172B6374CB6
:1017D000374D4FF0010726602F7062B672B623684E
:1017E00013F0800F04D12B7813F0FF0F0FD1F2E725
:1017F000304B186800222E4B1A7062B62E4B1B78A5
:101800001841BDE8F8832B7813F0FF0FE3D062B6E0
:1018100001F0F8F972B6236813F0800FF3D0E7E710
:1018200072B606F040095FFA89F9244F244C06F09D
:101830003F06244D4FF00108B9F1000F04D03B687A
:1018400023F010033B6003E03B6843F010033B6070
:10185000266085F8008062B672B6236813F0800FA8
:1018600004D12B7813F0FF0F0FD1E5E7164B186862
:101870000022144B1A7062B60F4B1B781841BDE85A
:10188000F8832B7813F0FF0FD6D062B601F0BAF9C7
:1018900072B6236813F0800FF3D0E7E70020BDE8AD
:1018A000F88300BFB88E0000F995FF1F00B0034019
:1018B000FB95FF1F10B00340F895FF1F0CB00B40C5
:1018C00000B00B40FA95FF1F10B00B40024B1A6896
:1018D00001321A60704700BF8896FF1F08B50D4C93
:1018E000236813F4802F01D000F0DEFB236813F48B
:1018F000806F01D001F0DCFC236813F4006F01D08D
:1019000001F0D4FF236813F4805FE9D002F05EFA9F
:10191000E6E700BF3480044008B5FFF7DFFF00BFF3
:101920001022014B1A80704700200540704700BF0D
:10193000024A13681844106018467047388CFF1F1D
:10194000EFF31383ABB9EFF31083ABB9EFF3058378
:1019500023B10F2B05D9094A985C03E04FF480703E
:1019600000E00020EFF311833BB1834238BF1846FB
:1019700070474FF0FF30704700207047F0E300E001
:1019800010B5154B1C681C6014F4805F05D0134B18
:10199000DB6813B1114BDB68984714F4005F05D086
:1019A0000E4B1B6913B10D4B1B69984714F0200FA8
:1019B00005D00A4B1B6E13B1084B1B6E984714F0F1
:1019C000100F07D0054BD3F884301BB1034BD3F86D
:1019D0008430984710BD00BFA09004400096FF1FC0
:1019E00010B5274B1C681C6014F4803F05D0254BB4
:1019F0001B6813B1234B1B68984714F4003F05D0B4
:101A0000204B5B6813B11F4B5B68984714F0010FC4
:101A100005D01C4B1B6C13B11A4B1B6C984714F070
:101A2000020F05D0174B5B6C13B1164B5B6C9847DC
:101A300014F0080F05D0134B9B6C13B1114B9B6C2A
:101A4000984714F0040F05D00E4BDB6C13B10D4B0F
:101A5000DB6C984714F4002F05D00A4B5B6E13B172
:101A6000084B5B6E984714F4802F07D0054BD3F8D2
:101A700080301BB1034BD3F88030984710BD00BFB6
:101A8000A0A004400096FF1F10B5384B1C681C60D6
:101A900014F0080F05D0364B5B6A13B1344B5B6A08
:101AA000984714F0100F05D0314B9B6A13B1304B9F
:101AB0009B6A984714F0400F05D02D4BDB6A13B199
:101AC0002B4BDB6A984714F0800F05D0284B1B6B1B
:101AD00013B1274B1B6B984714F0200F05D0244BF4
:101AE0005B6B13B1224B5B6B984714F0010F05D071
:101AF0001F4BDB6B13B11E4BDB6B984714F0020FCF
:101B000005D01B4B9B6D13B1194B9B6D984714F07F
:101B1000040F05D0164BDB6D13B1154BDB6D9847E9
:101B200014F4007F05D0124BDB6E13B1104BDB6E4B
:101B3000984714F4807F05D00D4B1B6F13B10C4BED
:101B40001B6F984714F4806F05D0094B5B6F13B17E
:101B5000074B5B6F984714F4006F05D0044B9B6FE5
:101B600013B1034B9B6F984710BD00BFA0B004405A
:101B70000096FF1F10B5264B1C681C6014F0010F67
:101B800005D0244B9B6813B1224B9B68984714F0F7
:101B9000800F05D01F4B5B6913B11E4B5B699847E3
:101BA00014F0100F05D01B4B9B6913B1194B9B69A7
:101BB000984714F0040F05D0164BDB6913B1154B91
:101BC000DB69984714F0080F05D0124B1B6A13B15C
:101BD000104B1B6A984714F0020F05D00D4B9B6BFE
:101BE00013B10C4B9B6B984714F0200F05D0094B99
:101BF0001B6D13B1074B1B6D984714F0400F05D0B8
:101C0000044B5B6D13B1034B5B6D984710BD00BF78
:101C1000A0C004400096FF1F10B50B4B1C681C6051
:101C200014F0020F05D0094B9B6E13B1074B9B6E4E
:101C3000984714F0010F05D0044BDB6F13B1034B31
:101C4000DB6F984710BD00BFA0D004400096FF1F77
:101C500030B4212831D8042A2FD8DFE802F0070950
:101C6000050B03000B2406E00A2404E0082402E02C
:101C70000C2400E00924124B03EBC0035A68114BFB
:101C8000114DC3F89C51114DC3F8A051104DC3F82C
:101C9000A451104DC3F8A8510F4DC3F8AC5172B602
:101CA000136823F4702313600C4D45F8201043F0A3
:101CB000807343EA0444146062B630BC704700BFCE
:101CC000D08E00000082FF1F81190000E119000082
:101CD000891A0000751B0000191C00000096FF1FE8
:101CE000094B03EBC0035A6872B6136823F087737D
:101CF00023F4803343F0807313600022034B43F8D6
:101D0000202062B6704700BFD08E00000096FF1FF3
:101D1000044B00221A6004490A60044A1060102231
:101D20001A60704714D0034004D0034000D0034031
:101D300021281ED80F4B53F8303093F8802212F030
:101D4000FF0F08D019B1012283F8802070470122CB
:101D500083F800217047074B03EBC000436821B1B3
:101D60001A6842F003021A6070471A6822F00202F1
:101D70001A607047D08E000021281CD80E4B03EB50
:101D8000C0035B68012908D10B4A52F8302082F861
:101D900080124FF4A2721A607047074A52F830203E
:101DA000002082F8800219B94FF480721A607047DF
:101DB00040F203121A607047D08E000072B60C4BCE
:101DC0001B680C4A12680C49096862B611F0806FF2
:101DD00002D0322B88BF0132C3F5BB33FF33074932
:101DE000A1FB03039B094FF47A7000FB023070479C
:101DF00018E000E08896FF1F04ED00E0ABAAAAAA55
:101E000038B50546FFF7DAFF044625B938BD013D70
:101E10000AD004F57A74FFF7D1FF001BB0F57A7F82
:101E2000F5D200F0EFFEF6E738BD00BF10B5254B48
:101E30004FF400021A604FF080721A604FF0007287
:101E40001A604FF080621A604FF000621A60002042
:101E50001D4B18604BF6FF710433196028231B4A91
:101E600013600832136008321360083213600832BE
:101E700013600832136008321360083213600922BD
:101E8000134C226004F58054043420600434216033
:101E90000434236008342360143C226004F5FE24DB
:101EA000043420600B4801600B490B6008310B6063
:101EB0000A4B1A60FFF784FBFA20FFF7A1FF00F03E
:101EC00073FC10BD08E100E0048003400C80034077
:101ED0000080034008800B400C800B4000800B40CA
:101EE00030B40E4B1B7843F002020D4C04EBC204DD
:101EF00060600C48007800280CBF8824C82444EA9D
:101F00000141074D45F8321080F00100054A10707C
:101F100083F00103014A137030BC7047F496FF1F31
:101F20000080FF1F6D97FF1F10B4431E032B11D8B5
:101F300072B60A4A52F8230050B14268074941F884
:101F40002320074A32F813400188611A22F813103F
:101F500062B600E000205DF8044B7047E496FF1F76
:101F60008499FF1F013803280DD872B6074B53F828
:101F700020302BB1002001305B68002BFBD100E04A
:101F8000002062B670470020704700BF3897FF1FDF
:101F900038B572B601231B491B4C5A1812F8012C94
:101FA00012F0080F24D09A0054F832506DB9164B35
:101FB00003EBC20108304860144943F83210144B57
:101FC0001A78013A1A7062B638BD42F0010254F82C
:101FD00032506DB90C4B03EBC201083048600D491B
:101FE00043F832100A4B1A78013A1A7062B638BDBB
:101FF0000133052BD1D162B60022054B1A7000F0D7
:1020000037FC38BD009000000080FF1F88004000B2
:102010006297FF1FC800400010B4431E032B37D83F
:10202000400140F010001C4A104472B61B4AD25CBA
:10203000032A09D8DFE802F019021B050830022242
:1020400016E00830042213E0154A52F823201AB98A
:10205000134A42F8231003E0124A52F82320516039
:10206000104A42F8231062B612E0032200E0052273
:102070000A4CE25401F10803436000F00803002B0E
:102080000CBF8823C8230A8843EA0243036062B670
:102090005DF8044B704700BF0080FF1FA096FF1F34
:1020A0003897FF1F4897FF1F2DE9F84FA34CDFF823
:1020B000E092DFF8E0A2DFF8E0B22578EDB215F0AB
:1020C000040F1DD09E4B1B7813F0FF0F16D09D4BB5
:1020D0001B7803F0FF022BB1531EDBB2994A137039
:1020E00003B900BE984B1B7803F0FF0233B1531EB7
:1020F000DBB2954A13700BB900F0FAFC042323708D
:1021000015F0080F00F0E48299F80030DBB21D09E9
:1021100040F021828D4D9E0805EBC6035A6855F8A4
:102120003630C3F38303013B0C2B00F21082DFE84F
:1021300013F0CB01CB010E020E020E020E020E02B4
:102140000E02E8010E020E020E020D008049136815
:102150000B6052684A607F4A45F8362000227E496B
:102160000A607A490A618A6101217C4A11709BB236
:1021700040F28162934218D8B3F5D06F2ED2B3F5F6
:10218000817F00F01E8106D8802B00F0C980822B51
:1021900000F0CC8066E140F20232934200F02681EA
:1021A000B3F5A06F00F062815CE142F2210293423C
:1021B00000F0868107D8B3F5086F00F0AB80B3F567
:1021C000106F11D04EE142F22122934200F0418182
:1021D00042F22132934200F0498143E1604B5D6855
:1021E000002D40F0188130E1594B9A78544B1A7009
:1021F000564D05F180062B6A13F0800F03D0686AF4
:10220000083800F035FB0835B542F4D1DFF88C8191
:1022100000263746534AB05828B1456800F028FBDD
:102220000DB12846F9E700234E4973504E4AB3508A
:102230004E4BF05828B1456800F01AFB0DB1284606
:10224000F9E7002349497350494AB35028F8023F3F
:10225000484BFB5C023B032B0AD8DFE803F0020685
:1022600002060022434BDA5502E00122414BDA55C7
:1022700001370436102ECDD100223F4B1A700125B4
:102280003E4EDFF81C81314F05EB080313F8013C8B
:1022900006F8043B13F0080F2DD000F0C9FA48B13E
:1022A000A90007EB451200F108035360344A47F8D0
:1022B000312007E0AB00002247F833202E4B1A787C
:1022C00001321A7000F0B4FA58B1AB0043F00103C8
:1022D00007EBC30100F108024A601E4A47F83320A9
:1022E00009E0AB0043F00103002247F83320224B02
:1022F0001A7801321A70AA0042F00201002347F84E
:10230000313042F0030247F8323001351D4B9E4216
:10231000BAD11EE20A4B1B781B4D2B700127AAE095
:10232000194D00232B706B700227A4E0084B9B888B
:10233000042B37D90F22154B1A70C1E080200740BB
:102340006C97FF1FF596FF1F6E97FF1F0080FF1F02
:102350005897FF1FC80040008C96FF1F6D97FF1F06
:1023600004900000E496FF1F9096FF1F3897FF1F10
:102370004897FF1FA096FF1F6297FF1FC4200740CA
:1023800088004000D42007406497FF1FC02007400A
:102390009020074094200740982007408299FF1F13
:1023A00000900000A04A0021117051709F4A12F85D
:1023B000233013F0020F5CD09B4D01232B700227BA
:1023C00059E09B4B9B8803F07F03042B02DC984A67
:1023D00052881AB10F22954B1A7071E0934A12F885
:1023E000231021F0020102F82310B2E1904B9B88E8
:1023F00003F07F03042B02DC8D4A52881AB10F22AE
:102400008A4B1A705CE0894A12F8231041F00201ED
:1024100002F823109DE1864B5E889F88854BA3F1CF
:102420000C02114633F80C0CB04209D133F80A0CF7
:10243000B84205D1360A032E0CBF2F7817891AE04F
:102440000D690C330C32002DEBD10F22774B1A7033
:1024500036E0794B1A68794B1A60754B9A78784B4D
:102460001A7076E10F22714B1A7029E000273D4661
:1024700001E002276C4D6E4BDB889F4228BF1F4650
:10248000402F34BF3E46402628463146FFF728FD00
:102490003544BF1B03D13F2E00F2608110E0402F76
:1024A00034BF3E46402628463146FFF719FD3544E5
:1024B000BF1B01D13F2E03D9624B1D60624B1F80B1
:1024C00001238AF8003042E0594B198842F2210377
:1024D000994212D15D4BD81D12F8011B03F8011F60
:1024E0008342F9D15A4B1B68862B02D10F22594BDC
:1024F0001A7000200146FFF7F3FC574B45F83630C1
:1025000025E0504B1E68BEB14F4FB7F80080B8F1C0
:10251000400F34BF4546402530462946FFF7E0FCD2
:10252000C5EB08039BB23B800BB9402D01D135446C
:1025300000E00025434B1D603D4B1B88B3F5A06FA9
:1025400005D13B4B00225A709B788BF80030012359
:102550008AF80030B9E0414E9F0806EBC708D8F86A
:102560000420A2F10800013DEDB213F0080F47D09E
:1025700000F07EF93A4B53F825304BB35A6838498E
:1025800041F8252003F10802C8F80420354A525DBD
:10259000032A12D8DFE802F002060A0E0321314AAC
:1025A00051550AE002212F4A515506E005212D4AD6
:1025B000515502E004212B4A515518F0080F0CBF69
:1025C0008822C8221B8842EA034346F837307CE061
:1025D000244B5B5D032B0BD8DFE803F07777020613
:1025E0000022204B5A5570E001221E4B5A556CE0D8
:1025F00018F0080F0CBF022203221A4B5A5564E050
:1026000056F837301B0C22F8083C002B55D000231D
:1026100022F8063C42F8043C134B53F825302BBB00
:10262000114B43F8250025E06497FF1FC0200740A9
:102630005897FF1F109000008896FF1F9499FF1F66
:102640007C97FF1F8C96FF1F6097FF1F8B99FF1FC2
:102650008C99FF1FF596FF1FC80040000080FF1FE8
:102660003897FF1FA096FF1FE496FF1F3F4B53F8BC
:10267000253058603D4B43F825003D4B33F815108D
:1026800032F8082C0A4423F8152000F0D1F860B184
:1026900000F10803C8F8043018F0080F354B364A2B
:1026A00008BF134646F837300FE0002346F83730AE
:1026B000324B1A7801321A7007E018F0080F2D4BD0
:1026C0002D4A08BF134646F8373008232370F4E438
:1026D00015F0010F22D02A4902230B700022294B4A
:1026E0001A70294B24481860284C5C609860284870
:1026F000D8601A619A610D20264B1870FF23264876
:1027000003700838037018300270244A13709F2237
:10271000234B1A7001230B70BDE8F88F15F0800F62
:1027200005D00D221B4B1A708022403B1A7015F009
:10273000020F06D0184B1A78D2B21A700222083B48
:102740001A7015F0100F0ED01022164B1A70BDE83B
:10275000F88F00200146FFF7C3FBB1E628460021B1
:10276000FFF7BEFBACE6BDE8F88F00BF9096FF1FF9
:102770008499FF1FC8004000880040006297FF1F37
:1027800094200740F496FF1F0080FF1FA496FF1FB0
:10279000F896FF1FC0200740882007408C20074084
:1027A000842007408020074008B501F083FB002308
:1027B0001B491A465A50C81842600833882BF9D171
:1027C000184B1A6842F480221A60154BC3F3072194
:1027D000154A1170C3F30741143211701B0E0432F5
:1027E0001370FF23343A137008321370783A137061
:1027F00001238432137000216C3211707C3A137003
:1028000070220A4B1A704FF40072A3F241331A601F
:10281000102203F1C04303F5C8231A7008BD00BF9E
:102820000080FF1F348004409C20074049E400E002
:1028300072B60D4B1A68B2FA82F30B2B02D962B64C
:10284000002070474FF00041D94022EA01020649BA
:102850000A6062B6054903EBC303DB00C818002217
:10286000CA504260704700BF3C8CFF1F0084FF1FAE
:1028700008B50F4BC31A0F4AA2FB03131B090B2BFE
:1028800014D80D4A12783AB10C4A127812F0FF0FA0
:1028900002D0FFF77DFB08BD72B6094A4FF0004138
:1028A00021FA03F311681943116062B608BD00BF35
:1028B0000084FF1F398EE3386297FF1F6C97FF1F5C
:1028C0003C8CFF1F10B5134B1B6853B9124B1B7880
:1028D00013F0FF0F18D00320FFF726FB0D4B1860F5
:1028E000A8B10C4B186843885A1C03441C7A03880F
:1028F0009A4206D3FFF7BCFF0022064B1A6020461F
:1029000010BD4280204610BD4FF0FF3010BD4FF08B
:10291000FF3010BD7897FF1F6C97FF1F08B50D4B58
:102920001B6883B90C4B1B7813F0FF0F08D00320F2
:10293000FFF7FAFA074B186028B94FF0FF3008BDCF
:102940004FF0FF3008BD034B1B685A881344187AB8
:1029500008BD00BF7897FF1F6C97FF1F044B988836
:10296000044B1B681BB11A885B88D31A1844704744
:102970008499FF1F7897FF1F2DE9F0470446012235
:10298000374B1A700E46002964D0DFF8E080DFF87C
:10299000E0909A46334FD8F8003083BB99F8003066
:1029A00013F0FF0F06D100222D4B1A704FF0FF30AD
:1029B000BDE8F0874AF2F9250420FFF7D3FA07288B
:1029C0000AD801238AF80030FFF732FFC8F8000068
:1029D000A8B900238AF80030013D01D03B7833B11B
:1029E0000122204B1A704FF0FF30BDE8F08700F055
:1029F00009F999F8003013F0FF0FDDD1D3E7002378
:102A00003B70D8F800104A88C2F14005AE4238BF8A
:102A1000354602F108030B442A444A80761B3DB137
:102A2000254414F8012B03F8012BAC42F9D100E046
:102A300025464B883F2B07D940230B800420FFF706
:102A4000EBFA0023C8F800300522074B1A700EB1CC
:102A50002C46A0E70020024B1870BDE8F08700BFAD
:102A60006F97FF1F7497FF1F6E97FF1F7097FF1FD1
:102A70006C97FF1F00B583B002AB03F8010D184639
:102A80000121FFF779FF03B05DF804FB10B5144B8B
:102A90001B7813F0FF0F21D00122124B1A70124B3A
:102AA000196851B10024114B1C704B880B80042015
:102AB000FFF7B2FA0C4B1C600DE0FFF7B9FE0146C0
:102AC00030B10022094B1A700420FFF7A5FA02E08A
:102AD0000122064B1A700022024B1A7010BD00BF73
:102AE0006C97FF1F6F97FF1F7097FF1F6E97FF1F59
:102AF00008B50E4B1B7813F0FF0F16D10C4B19685D
:102B000041B14B880B800420FFF786FA0022084B66
:102B10001A6008BDFFF78CFE014618B10420FFF7CC
:102B20007BFA08BD0122034B1A7008BD6F97FF1F87
:102B30007097FF1F6E97FF1F03790F2B10D8094A5C
:102B4000137072B6084B0279012101FA02F219885A
:102B500021EA02021A8062B6102303710023036087
:102B6000704700BF1A8000407E97FF1F08B5FDF731
:102B700089FCFDF74FFD00F045F8FAE708B502F0D3
:102B800031F808BD08B503685B689847002008BDA8
:102B90000EB400B582B003AA52F8041B019202F0F1
:102BA000C1FD02B05DF804EB03B0704708B5FFF754
:102BB000D5FE08BD08B5FFF785FE08BD08B5FFF7CF
:102BC000ADFE08BD08B5FFF761FF08BD08B50846B2
:102BD000FFF750FF08BD00BF08B508461146FFF7D4
:102BE000CBFE08BD704700BF044B00221A714FF4A2
:102BF0007A7199601A73024A1A6070478097FF1FB2
:102C0000E88F000008B50F4B1B78CBB901220D4BA4
:102C10001A70FFF7A3FE08B1FFF7E4FF00F0BEFA59
:102C200008B101F011FA00F0B7FD08B101F0A2FA05
:102C300001F056F808B101F033FB0022014B1A7085
:102C400008BD00BF9097FF1F844641EA000313F0C0
:102C500003036DD1403A41D351F8043B40F8043BA3
:102C600051F8043B40F8043B51F8043B40F8043B66
:102C700051F8043B40F8043B51F8043B40F8043B56
:102C800051F8043B40F8043B51F8043B40F8043B46
:102C900051F8043B40F8043B51F8043B40F8043B36
:102CA00051F8043B40F8043B51F8043B40F8043B26
:102CB00051F8043B40F8043B51F8043B40F8043B16
:102CC00051F8043B40F8043B51F8043B40F8043B06
:102CD00051F8043B40F8043B403ABDD2303211D3A6
:102CE00051F8043B40F8043B51F8043B40F8043BE6
:102CF00051F8043B40F8043B51F8043B40F8043BD6
:102D0000103AEDD20C3205D351F8043B40F8043BA5
:102D1000043AF9D2043208D0D2071CBF11F8013BA3
:102D200000F8013B01D30B8803806046704700BF69
:102D3000082A13D38B078DD010F003038AD0C3F178
:102D40000403D21ADB071CBF11F8013B00F8013B5A
:102D500080D331F8023B20F8023B7BE7043AD9D319
:102D6000013A11F8013B00F8013BF9D20B780370EE
:102D70004B7843708B7883706046704730B4002383
:102D8000B0FBF2F402FB14041D46092C94BF30344E
:102D90003734E4B2CC54B0FBF2F008B10133EFE7C2
:102DA0000D4400226A70934207DD885CCC5C8C5431
:102DB000C8540132013B9A42F7DB084630BC7047E9
:102DC000194B1A6842F480621A600023174A137084
:102DD000174A1370174A1370174A1370174A137063
:102DE00040F21332164B1A604FF4517204331A60DA
:102DF000C0F34432134B1A70C0F347125A7000F0FC
:102E00001F00987204229A700221D9745A75882280
:102E10001A743C22DA7040220B4B1A704FF40052A5
:102E2000A3F229331A607047348004401C98FF1FB6
:102E30009997FF1F2498FF1F1D98FF1F9897FF1F4A
:102E400040A0044000A006402DE400E0164B9B7813
:102E500003F0EC0300F00302134310F0040F18BF5B
:102E600043F01003104A937000F00F03042B04D1B9
:102E70001346927942F040029A710B4B5A7902F054
:102E8000EF0210F0100F18BF42F01002064B5A71FB
:102E90009B7903F0EF0310F0200F18BF43F01003ED
:102EA000014A9371704700BF00A0064010B5144B53
:102EB0001B6813F4806F21D0124B1B7813F0FF0FA7
:102EC00006D0104CFFF79EFE237813F0FF0FF9D1C8
:102ED0004FF400520C4B1A6000230C4AD37040F29E
:102EE00003120B490A6004310A600A4A13700A4A45
:102EF00013700A4B1B680BB101221A7010BD00BF82
:102F0000348004409897FF1F84E100E000A0064051
:102F100040A004401C98FF1F9997FF1F9497FF1F24
:102F200010B50446094A137813F0FF0FFBD1204671
:102F30000121FEF721FF20460021FEF7F9FE044B98
:102F400053F83420034B1A6010BD00BF9897FF1F41
:102F5000D08E00002098FF1F10B50D4B1B6813F496
:102F6000806F12D021280CD80A4C0B4B53F830300C
:102F700023600121FEF700FF236800221A70012060
:102F800010BD0020034B186010BD002010BD00BF15
:102F9000348004409497FF1FD08E0000114B1B68B3
:102FA00013F4806F1BD0122804D140F202320E4B72
:102FB0001A600DE0142804D140F202320B4B1A6063
:102FC00006E00B4B5A7B02F0FE025A73002070475A
:102FD000074B5A7B42F001025A73012070470020D0
:102FE000704700BF348004400CA0044014C004406B
:102FF00000A006402DE9F04107461F4B1B6813F463
:10300000806F37D01D4B1B680BB101221A701C4B0F
:103010001C780134402C28BF00241A4D1A4EDFF8CA
:103020006C8017E0FEF78CFC40280FDC337913F03E
:10303000800F0FD02B780133402B28BF002318F8C6
:103040000320D2B2F271DBB22B7003E0FF2801DD66
:10305000FFF7D8FD2B78DBB29C42E3D0FFB20B4BDD
:103060001F5501220A4B1A70E4B2054B1C70BC229A
:10307000054BDA70BDE8F081348004402098FF1FD2
:103080002498FF1F1D98FF1F00A006409C97FF1F5C
:103090009897FF1F2DE9F84F0746284B1B6813F43C
:1030A000806F49D0264B1B680BB101221A7007EBC9
:1030B000010B5F453DD2DFF89890224EDFF88C80FF
:1030C000DFF890A099F800400134402C28BF00247C
:1030D0003578EDB2A54220D1BC2388F80330FEF745
:1030E0002FFC402811DC98F8043013F0800F10D02A
:1030F00033780133402B28BF00231AF80320D2B2C3
:1031000088F80720DBB2337003E0FF2801DDFFF70A
:1031100079FD3378DBB29D42E1D017F8013B0AF824
:1031200004300122084B1A70E4B289F800405F4570
:10313000C8D1BC22054BDA70BDE8F88F348004405A
:103140002098FF1F1D98FF1F9897FF1F00A00640A3
:103150002498FF1F9C97FF1F10B5064B1B7813F098
:10316000FF0F06D0034CFFF74DFD237813F0FF0F40
:10317000F9D110BD9897FF1F064B1B78DBB2064AAA
:103180001278D2B293422CBF3F3202F1FF32D01AF2
:10319000704700BF2498FF1F1D98FF1F054B18782C
:1031A000C0B2054B1B78DBB2984238BF4030C01A22
:1031B000704700BF1C98FF1F9997FF1F10B4184B52
:1031C0001A78D2B2174B1B78DBB29A4218D001336F
:1031D0003F2B18D81449C85CC0B2DCB211490C703E
:1031E00012490968C9B19A4203D300E00023D31AF7
:1031F00001E04032D31A1A2B0FDC00230B700CE0D5
:103200004FF0FF3009E0084B1878C0B20021054BA1
:103210001970064B19680029E8D15DF8044B704716
:103220001C98FF1F9997FF1FDC97FF1F9497FF1FA4
:10323000094B1A78D2B2094B1B78DBB29A4207D0FD
:103240000133402B28BF0023054AD05CC0B2704731
:103250004FF0FF30704700BF1C98FF1F9997FF1F6A
:10326000DC97FF1F0D4B1B6813F4806F14D00C4BC1
:10327000DA7802F0CB02DA7040225A74DA7842F03F
:103280003402DA70074B1A78D2B2074B1A70074B28
:103290001B680BB100221A70704700BF34800440D5
:1032A00000A006409997FF1F1C98FF1F9497FF1FCF
:1032B00070B43D4B1B7913F0300F33D072B63A4BDC
:1032C0009B7D03F0FF022BB9374BDA7940225A7409
:1032D00062B627E062B6354B1978C9B2344B1C7818
:1032E000E4B2314D334EEB79D8B24B1C402B28BFA2
:1032F0000023A3421CBFF0541946531E13F0FF02D3
:10330000F1D1CAB2294B1A702B4B1B6853B1A142A1
:103310002EBFC4EB0101C4F1400409192729C4BF21
:1033200001221A70204BDA78D2B212F0800F27D027
:103330001B7913F0800F23D0204B1C78E4B2204B74
:103340001B78DBB29C4210D017491E4D01E0A3420E
:103350000BD00133402B28BF00230879E85CC0B2B2
:10336000C871087DC0B20728F1D9DBB214490B70CF
:103370000D4B1B7913F0800F02D07C210A4BD970C2
:1033800012F0400F0ED0084B1B7913F0400F09D0FC
:1033900000220D4B1A700D4B1B6803B11A703C22B2
:1033A000014BDA7070BC704700A006401C98FF1FEC
:1033B0009997FF1FDC97FF1F9497FF1F2498FF1F0B
:1033C0001D98FF1F9C97FF1F9897FF1F2098FF1FB6
:1033D000194B1A6842F400621A600023174A1370EE
:1033E000174A1370174A1370174A1370174A13704D
:1033F00040F21332164B1A604FF4517204331A60C4
:10340000C0F34432134B1A70C0F347125A7000F0E5
:103410001F00987204229A700221D9745A7588226A
:103420001A743C22DA7040220B4B1A704FF400429F
:10343000A3F22B331A607047348004409898FF1F22
:103440002D98FF1FA098FF1F9998FF1F2C98FF1F12
:103450000CB0044000B006402FE400E0164B9B780F
:1034600003F0EC0300F00302134310F0040F18BF45
:1034700043F01003104A937000F00F03042B04D1A3
:103480001346927942F040029A710B4B5A7902F03E
:10349000EF0210F0100F18BF42F01002064B5A71E5
:1034A0009B7903F0EF0310F0200F18BF43F01003D7
:1034B000014A9371704700BF00B0064010B5144B2D
:1034C0001B6813F4006F21D0124B1B7813F0FF0F11
:1034D00006D0104CFFF796FB237813F0FF0FF9D1BD
:1034E0004FF400420C4B1A6000230C4AD37040F298
:1034F00003120B490A6004310A600A4A13700A4A2F
:1035000013700A4B1B680BB101221A7010BD00BF6B
:10351000348004402C98FF1F84E100E000B0064096
:103520000CB004409898FF1F2D98FF1F2898FF1F8C
:1035300010B50446094A137813F0FF0FFBD120465B
:103540000121FEF719FC20460021FEF7F1FB044B98
:1035500053F83420034B1A6010BD00BF2C98FF1F96
:10356000D08E00009C98FF1F10B50D4B1B6813F404
:10357000006F12D021280CD80A4C0B4B53F8303076
:1035800023600121FEF7F8FB236800221A70012056
:1035900010BD0020034B186010BD002010BD00BFFF
:1035A000348004402898FF1FD08E00000D4B1B680C
:1035B00013F4006F13D017280AD140F202320A4BDD
:1035C0001A600A4B5A7B42F001025A73012070477D
:1035D000064B5A7B02F0FE025A730020704700200F
:1035E000704700BF3480044008B0044000B006407B
:1035F0002DE9F04107461F4B1B6813F4006F37D0CD
:103600001D4B1B680BB101221A701C4B1C78013436
:10361000282C28BF00241A4D1A4EDFF86C8017E0C2
:10362000FEF78EF940280FDC337913F0800F0FD0AE
:103630002B780133282B28BF002318F80320D2B29F
:10364000F271DBB22B7003E0FF2801DDFFF7DAFA3D
:103650002B78DBB29C42E3D0FFB20B4B1F5501220B
:103660000A4B1A70E4B2054B1C70BC22054BDA7091
:10367000BDE8F081348004409C98FF1FA098FF1F94
:103680009998FF1F00B006403098FF1F2C98FF1F2D
:103690002DE9F84F0746284B1B6813F4006F49D0FB
:1036A000264B1B680BB101221A7007EB010B5F451B
:1036B0003DD2DFF89890224EDFF88C80DFF890A0A2
:1036C00099F800400134282C28BF00243578EDB249
:1036D000A54220D1BC2388F80330FEF731F94028F9
:1036E00011DC98F8043013F0800F10D033780133D8
:1036F000282B28BF00231AF80320D2B288F807200D
:10370000DBB2337003E0FF2801DDFFF77BFA33788B
:10371000DBB29D42E1D017F8013B0AF804300122E8
:10372000084B1A70E4B289F800405F45C8D1BC224A
:10373000054BDA70BDE8F88F348004409C98FF1F79
:103740009998FF1F2C98FF1F00B00640A098FF1FFC
:103750003098FF1F10B5064B1B7813F0FF0F06D0F3
:10376000034CFFF74FFA237813F0FF0FF9D110BD88
:103770002C98FF1F064B1B78DBB2064A1278D2B298
:1037800093422CBF273202F1FF32D01A704700BF9C
:10379000A098FF1F9998FF1F054B1878C0B2054BE2
:1037A0001B78DBB2984238BF4030C01A704700BF68
:1037B0009898FF1F2D98FF1F10B4184B1A78D2B29B
:1037C000174B1B78DBB29A4218D001333F2B18D825
:1037D0001449C85CC0B2DCB211490C7012490968C6
:1037E000C9B19A4203D300E00023D31A01E040326A
:1037F000D31A1A2B0FDC00230B700CE04FF0FF30B4
:1038000009E0084B1878C0B20021054B1970064B2F
:1038100019680029E8D15DF8044B70479898FF1F9C
:103820002D98FF1F5898FF1F2898FF1F094B1A78E3
:10383000D2B2094B1B78DBB29A4207D00133402B3E
:1038400028BF0023054AD05CC0B270474FF0FF305C
:10385000704700BF9898FF1F2D98FF1F5898FF1FB3
:103860000D4B1B6813F4006F14D00C4BDA7802F088
:10387000CB02DA7040225A74DA7842F03402DA70FD
:10388000074B1A78D2B2074B1A70074B1B680BB163
:1038900000221A70704700BF3480044000B0064018
:1038A0002D98FF1F9898FF1F2898FF1F70B43D4B5D
:1038B0001B7913F0300F33D072B63A4B9B7D03F077
:1038C000FF022BB9374BDA7940225A7462B627E0EF
:1038D00062B6354B1978C9B2344B1C78E4B2314D1D
:1038E000334EEB79D8B24B1C402B28BF0023A342A8
:1038F0001CBFF0541946531E13F0FF02F1D1CAB297
:10390000294B1A702B4B1B6853B1A1422EBFC4EB3D
:103910000101C4F1400409192729C4BF01221A700A
:10392000204BDA78D2B212F0800F27D01B7913F037
:10393000800F23D0204B1C78E4B2204B1B78DBB2E5
:103940009C4210D017491E4D01E0A3420BD0013319
:10395000282B28BF00230879E85CC0B2C871087D15
:10396000C0B20728F1D9DBB214490B700D4B1B799B
:1039700013F0800F02D07C210A4BD97012F0400F57
:103980000ED0084B1B7913F0400F09D000220D4BCD
:103990001A700D4B1B6803B11A703C22014BDA7090
:1039A00070BC704700B006409898FF1F2D98FF1F0D
:1039B0005898FF1F2898FF1FA098FF1F9998FF1F76
:1039C0003098FF1F2C98FF1F9C98FF1F174B1A68F9
:1039D00042F480521A600023154A1370154A13707E
:1039E000154A1370154A1370154A137040F21331BB
:1039F000144A11604FF4517104321160C0F3443124
:103A0000114A1170C0F34711517000F01F009072FD
:103A1000937013742C23D37040220C4B1A704FF404
:103A20000032A3F22D331A60704700BF3480044087
:103A30001499FF1FA998FF1F1C99FF1F1599FF1FBD
:103A4000A898FF1F08C0044000C0064031E400E011
:103A5000164B9B7803F0EC0300F00302134310F0C5
:103A6000040F18BF43F01003104A937000F00F03C7
:103A7000042B04D11346927942F040029A710B4B09
:103A80005A7902F0EF0210F0100F18BF42F0100246
:103A9000064B5A719B7903F0EF0310F0200F18BF0B
:103AA00043F01003014A9371704700BF00C0064005
:103AB00010B5144B1B6813F4805F21D0124B1B7898
:103AC00013F0FF0F06D0104CFFF79CF8237813F08B
:103AD000FF0FF9D14FF400320C4B1A6000230C4A4F
:103AE000D37040F203120B490A6004310A600A4A9B
:103AF00013700A4A13700A4B1B680BB101221A702B
:103B000010BD00BF34800440A898FF1F84E100E08E
:103B100000C0064008C004401499FF1FA998FF1F69
:103B2000A498FF1F10B50446094A137813F0FF0F3D
:103B3000FBD120460121FEF71FF920460021FEF7A8
:103B4000F7F8044B53F83420034B1A6010BD00BF44
:103B5000A898FF1FD08E00001899FF1F10B50D4BBD
:103B60001B6813F4805F12D021280CD80A4C0B4B31
:103B700053F8303023600121FEF7FEF8236800225D
:103B80001A70012010BD0020034B186010BD0020EA
:103B900010BD00BF34800440A498FF1FD08E0000E9
:103BA0000D4B1B6813F4805F13D00E280AD140F22E
:103BB00002320A4B1A600A4B5A7B42F001025A73D6
:103BC00001207047064B5A7B02F0FE025A73002018
:103BD00070470020704700BF3480044004C0044098
:103BE00000C006402DE9F04107461F4B1B6813F447
:103BF000805F37D01D4B1B680BB101221A701C4B24
:103C00001C780134282C28BF00241A4D1A4EDFF8E6
:103C10006C8017E0FDF794FE40280FDC337913F039
:103C2000800F0FD02B780133282B28BF002318F8E2
:103C30000320D2B2F271DBB22B7003E0FF2801DD6A
:103C4000FEF7E0FF2B78DBB29C42E3D0FFB20B4BD8
:103C50001F5501220A4B1A70E4B2054B1C70AC22AE
:103C6000054BDA70BDE8F081348004401899FF1FDD
:103C70001C99FF1F1599FF1F00C00640AC98FF1F3D
:103C8000A898FF1F38B505460C4629B115F8010B59
:103C9000FFF7A8FF013CF9D138BD00BF10B5064BB6
:103CA0001B7813F0FF0F06D0034CFEF7ABFF237811
:103CB00013F0FF0FF9D110BDA898FF1F064B1B781A
:103CC000DBB2064A1278D2B293422CBF273202F1FD
:103CD000FF32D01A704700BF1C99FF1F1599FF1FB4
:103CE000054B1878C0B2054B1B78DBB2984238BF41
:103CF0004030C01A704700BF1499FF1FA998FF1FDA
:103D000010B4184B1A78D2B2174B1B78DBB29A4218
:103D100018D001333F2B18D81449C85CC0B2DCB2AC
:103D200011490C7012490968C9B19A4203D300E0E5
:103D30000023D31A01E04032D31A1A2B0FDC0023E0
:103D40000B700CE04FF0FF3009E0084B1878C0B260
:103D50000021054B1970064B19680029E8D15DF860
:103D6000044B70471499FF1FA998FF1FD498FF1F99
:103D7000A498FF1F094B1A78D2B2094B1B78DBB20B
:103D80009A4207D00133402B28BF0023054AD05C5C
:103D9000C0B270474FF0FF30704700BF1499FF1F4B
:103DA000A998FF1FD498FF1F054B1A78D2B2054B74
:103DB0001A70054B1B680BB100221A70704700BFC8
:103DC000A998FF1F1499FF1FA498FF1F2F4B1B7961
:103DD00013F0200F23D02D4BDB79D9B22C4B1B785D
:103DE0000133402B28BF00232A4A1278D2B29A42CC
:103DF00004D0294AD154D9B2254A1170274A1168F2
:103E000069B1274A1278D2B293422EBFC2EB0303A4
:103E1000C2F140029B18272BC4BF01230B701B4B20
:103E2000DB78DBB213F0800F1CD0184A127912F045
:103E3000800F17D01B4A1178C9B2194A1278D2B232
:103E4000914203D16C21114AD1700BE00132282A32
:103E500028BF00221449885CC0B20C49C871D2B294
:103E60000F490A7013F0400F0ED0084B1B7913F066
:103E7000400F09D000220D4B1A700D4B1B6803B187
:103E80001A702C22014BDA70704700BF00C0064048
:103E90001499FF1FA998FF1FD498FF1FA498FF1F14
:103EA0001599FF1F1C99FF1FAC98FF1FA898FF1FB3
:103EB0001899FF1F00B585B072B61B4B70221A709F
:103EC00041211A4A11700F21013A117080221A7093
:103ED0001A46137813F0800FFBD0154B186862B6A2
:103EE000144B98429CBF00EB8000400001A90A22BD
:103EF000FEF744FF9DF804307BB908E001A9595C46
:103F000031B19180023201330A2BF7D100E0002356
:103F100001335B00084A137003E0074A5380012312
:103F2000ECE705B05DF804FB00000240070002402A
:103F3000080002407F969800CC8CFF1F08B50368EC
:103F40001B68C9B2984708BD08B503681B68C9B2A9
:103F5000984708BD08B503681B68C9B2984708BDF3
:103F600008B503681B68C9B2984708BD08B54B0877
:103F700003F1376000F5D830B0FBF1F0FEF720FF19
:103F800008BD00BF10B514464B0803F1376000F5BB
:103F9000D830B0FBF1F0FEF713FF2046FEF756FFD6
:103FA00010BD00BF08B5FEF781FF08BD08B5084683
:103FB000FEF7B6FF08BD00BF08B50846FEF7CCFF08
:103FC000003018BF012008BD08B50846FEF7E6FF1F
:103FD000003018BF012008BD08B5FFF7DFF808BDA5
:103FE00008B5FFF725F908BD08B5FFF7E7F808BDE4
:103FF00008B5FFF7B1F808BD08B5FFF733F908BDFC
:1040000008B5FFF7B9F808BD08B50846FEF7F2FF96
:10401000012008BD08B50846FEF7ECFF012008BDE9
:1040200010B5144608461146FFF734F8204610BD77
:1040300038B50D46084601F01FFB044628462146C8
:10404000FFF728F8204638BD704700BF044B002218
:104050001A714FF47A7199601A73024A1A607047A4
:104060002099FF1F6090000008B503681B68C9B263
:10407000984708BD08B503681B68C9B2984708BDD2
:1040800008B503681B68C9B2984708BD08B503683E
:104090001B68C9B2984708BD08B54B0803F13760E3
:1040A00000F5D830B0FBF1F0FFF792F908BD00BF82
:1040B00010B514464B0803F1376000F5D830B0FB5B
:1040C000F1F0FFF785F92046FFF7C8F910BD00BFF2
:1040D00008B5FFF7F3F908BD08B50846FFF728FA59
:1040E00008BD00BF08B50846FFF73EFA003018BF0C
:1040F000012008BD08B50846FFF758FA003018BF80
:10410000012008BD08B5FFF747FB08BD08B5FFF75C
:104110008DFB08BD08B5FFF74FFB08BD08B5FFF7DD
:1041200019FB08BD08B5FFF79BFB08BD08B5FFF7F5
:1041300021FB08BD08B50846FFF75AFA012008BD63
:1041400008B50846FFF754FA012008BD10B514461B
:1041500008461146FFF79CFA204610BD38B50D46BB
:10416000084601F089FA044628462146FFF790FAEE
:10417000204638BD704700BF044B00221A714FF42F
:104180007A7199601A73024A1A6070473099FF1F5A
:10419000B890000008B503681B68C9B2984708BD0D
:1041A00008B503681B68C9B2984708BD08B503681D
:1041B0001B68C9B2984708BD08B503681B68C9B237
:1041C000984708BD08B54B0803F1B76000F55840A3
:1041D000B0FBF1F0FFF7FAFB08BD00BF10B51446C5
:1041E0004B0803F1B76000F55840B0FBF1F0FFF762
:1041F000EDFB2046FFF72CFC10BD00BF08B5FFF714
:1042000057FC08BD08B50846FFF78CFC08BD00BF89
:1042100008B50846FFF7A2FC003018BF012008BD12
:1042200008B50846FFF7BCFC003018BF012008BDE8
:1042300008B5FFF755FD08BD08B5FFF79BFD08BDA4
:1042400008B5FFF75DFD08BD08B5FFF727FD08BD00
:1042500008B5FFF7A9FD08BD08B5FFF72FFD08BD9C
:1042600008B50846FFF7BEFC012008BD08B50846A2
:10427000FFF7B8FC012008BD10B5144608461146EA
:10428000FFF700FD204610BD38B50D46084601F089
:10429000F3F9044628462146FFF7F4FC204638BDD2
:1042A000704700BF044B00221A714FF47A71996075
:1042B0001A73024A1A6070474099FF1F109100005C
:1042C00081F0004102E000BF83F0004330B54FEAC7
:1042D00041044FEA430594EA050F08BF90EA020F34
:1042E0001FBF54EA000C55EA020C7FEA645C7FEAC7
:1042F000655C00F0E2804FEA5454D4EB5555B8BFEA
:104300006D420CDD2C4480EA020281EA030382EA5A
:10431000000083EA010180EA020281EA0303362DEC
:1043200088BF30BD11F0004F4FEA01314FF4801CBF
:104330004CEA113102D0404261EB410113F0004FD1
:104340004FEA03334CEA133302D0524263EB430388
:1043500094EA050F00F0A780A4F10104D5F1200E26
:104360000DDB02FA0EFC22FA05F2801841F1000181
:1043700003FA0EF2801843FA05F359410EE0A5F155
:1043800020050EF1200E012A03FA0EFC28BF4CF086
:10439000020C43FA05F3C01851EBE37101F000453C
:1043A00007D54FF0000EDCF1000C7EEB00006EEB49
:1043B0000101B1F5801F1BD3B1F5001F0CD34908D3
:1043C0005FEA30004FEA3C0C04F101044FEA44522A
:1043D00012F5800F80F09A80BCF1004F08BF5FEAB1
:1043E000500C50F1000041EB045141EA050130BD91
:1043F0005FEA4C0C404141EB010111F4801FA4F134
:104400000104E9D191F0000F04BF01460020B1FA88
:1044100081F308BF2033A3F10B03B3F120020CDAC0
:104420000C3208DD02F1140CC2F10C0201FA0CF09E
:1044300021FA02F10CE002F11402D8BFC2F1200C03
:1044400001FA02F120FA0CFCDCBF41EA0C019040B9
:10445000E41AA2BF01EB0451294330BD6FEA040402
:104460001F3C1CDA0C340EDC04F11404C4F12002ED
:1044700020FA04F001FA02F340EA030021FA04F3FF
:1044800045EA030130BDC4F10C04C4F1200220FA56
:1044900002F001FA04F340EA0300294630BD21FA94
:1044A00004F0294630BD94F0000F83F4801306BF5A
:1044B00081F480110134013D4EE77FEA645C18BF4E
:1044C0007FEA655C29D094EA050F08BF90EA020FE5
:1044D00005D054EA000C04BF1946104630BD91EADD
:1044E000030F1EBF0021002030BD5FEA545C05D1E0
:1044F0004000494128BF41F0004130BD14F580041F
:104500003CBF01F5801130BD01F0004545F0FE4192
:1045100041F470014FF0000030BD7FEA645C1ABFC7
:10452000194610467FEA655C1CBF0B46024650EAFE
:10453000013406BF52EA033591EA030F41F400212A
:1045400030BD00BF90F0000F04BF0021704730B5B0
:104550004FF4806404F132044FF000054FF0000185
:1045600050E700BF90F0000F04BF0021704730B546
:104570004FF4806404F1320410F0004548BF40421B
:104580004FF000013EE700BF42004FEAE2014FEA70
:1045900031014FEA02701FBF12F07F4393F07F4F4B
:1045A00081F06051704792F0000F14BF93F07F4F7D
:1045B000704730B54FF4607401F0004521F00041C0
:1045C00020E700BF50EA010208BF704730B54FF046
:1045D00000050AE050EA010208BF704730B511F04B
:1045E000004502D5404261EB41014FF4806404F183
:1045F00032045FEA915C3FF4DCAE4FF003025FEA05
:10460000DC0C18BF03325FEADC0C18BF033202EB8C
:10461000DC02C2F1200300FA03FC20FA02F001FAE6
:1046200003FE40EA0E0021FA02F11444C1E600BF85
:1046300070B54FF0FF0C4CF4E06C1CEA11541DBF38
:104640001CEA135594EA0C0F95EA0C0F00F0DEF803
:104650002C4481EA030621EA4C5123EA4C5350EAE8
:10466000013518BF52EA033541F4801143F4801339
:1046700038D0A0FB02CE4FF00005E1FB02E506F0CA
:104680000042E0FB03E54FF00006E1FB03569CF01F
:10469000000F18BF4EF0010EA4F1FF04B6F5007F25
:1046A00064F5407404D25FEA4E0E6D4146EB060697
:1046B00042EAC62141EA55514FEAC52040EA5E5020
:1046C0004FEACE2EB4F1FD0C88BFBCF5E06F1ED8CA
:1046D000BEF1004F08BF5FEA500E50F1000041EB01
:1046E000045170BD06F0004646EA010140EA0200AE
:1046F00081EA0301B4EB5C04C2BFD4EB0C0541EAD0
:10470000045170BD41F480114FF0000E013C00F3E4
:10471000AB8014F1360FDEBF002001F0004170BD08
:10472000C4F10004203C35DA0C341BDC04F1140421
:10473000C4F1200500FA05F320FA04F001FA05F2AD
:1047400040EA020001F0004221F0004110EBD3707A
:1047500021FA04F642EB06015EEA430E08BF20EAA6
:10476000D37070BDC4F10C04C4F1200500FA04F349
:1047700020FA05F001FA04F240EA020001F00041DB
:1047800010EBD37041F100015EEA430E08BF20EA4E
:10479000D37070BDC4F1200500FA05F24EEA020E96
:1047A00020FA04F301FA05F243EA020321FA04F0C5
:1047B00001F0004121FA04F220EA020000EBD3707C
:1047C0005EEA430E08BF20EAD37070BD94F0000F7C
:1047D0000FD101F00046400041EB010111F4801FB0
:1047E00008BF013CF7D041EA060195F0000F18BF61
:1047F000704703F00046520043EB030313F4801F9D
:1048000008BF013DF7D043EA0603704794EA0C0F56
:104810000CEA135518BF95EA0C0F0CD050EA41066C
:1048200018BF52EA4306D1D181EA030101F00041E9
:104830004FF0000070BD50EA410606BF1046194611
:1048400052EA430619D094EA0C0F02D150EA01361D
:1048500013D195EA0C0F05D152EA03361CBF10465E
:1048600019460AD181EA030101F0004141F0FE41FD
:1048700041F470014FF0000070BD41F0FE4141F481
:10488000780170BD70B54FF0FF0C4CF4E06C1CEA81
:1048900011541DBF1CEA135594EA0C0F95EA0C0F36
:1048A00000F0A7F8A4EB050481EA030E52EA0335F1
:1048B0004FEA013100F088804FEA03334FF0805512
:1048C00045EA131343EA12634FEA022245EA11153F
:1048D00045EA10654FEA00260EF000419D4208BFF0
:1048E000964244F1FD0404F5407402D25B084FEA9D
:1048F0003202B61A65EB03055B084FEA32024FF449
:1049000080104FF4002CB6EB020E75EB030E22BFA5
:10491000B61A754640EA0C005B084FEA3202B6EB65
:10492000020E75EB030E22BFB61A754640EA5C0014
:104930005B084FEA3202B6EB020E75EB030E22BFA4
:10494000B61A754640EA9C005B084FEA3202B6EBA5
:10495000020E75EB030E22BFB61A754640EADC0064
:1049600055EA060E18D04FEA051545EA16754FEAC6
:1049700006164FEAC30343EA52734FEAC2025FEAE4
:104980001C1CC0D111F4801F0BD141EA00014FF073
:1049900000004FF0004CB6E711F4801F04BF014344
:1049A0000020B4F1FD0C88BFBCF5E06F3FF6AFAE60
:1049B000B5EB030C04BFB6EB020C5FEA500C50F1F0
:1049C000000041EB045170BD0EF0004E4EEA113173
:1049D00014EB5C04C2BFD4EB0C0541EA045170BD7A
:1049E00041F480114FF0000E013C90E645EA060EBE
:1049F0008DE60CEA135594EA0C0F08BF95EA0C0FEC
:104A00003FF43BAF94EA0C0F0AD150EA01347FF433
:104A100034AF95EA0C0F7FF425AF104619462CE70A
:104A200095EA0C0F06D152EA03353FF4FDAE10466D
:104A3000194622E750EA410618BF52EA43067FF4BE
:104A4000C5AE50EA41047FF40DAF52EA43057FF44E
:104A5000EBAE12E74FF0FF3C06E000BF4FF0010C59
:104A600002E000BF4FF0010C4DF804CD4FEA410CBD
:104A70007FEA6C5C4FEA430C18BF7FEA6C5C1BD08A
:104A800001B050EA410C0CBF52EA430C91EA030F0B
:104A900002BF90EA020F0020704710F1000F91EA68
:104AA000030F58BF994208BF90422CBFD8176FEA36
:104AB000E37040F0010070474FEA410C7FEA6C5C04
:104AC00002D150EA013C07D14FEA430C7FEA6C5C0B
:104AD000D6D152EA033CD3D05DF8040B704700BF37
:104AE0008446104662468C461946634600E000BF85
:104AF00001B5FFF7B7FF002848BF10F1000F01BD57
:104B00004DF808EDFFF7F4FF0CBF012000205DF821
:104B100008FB00BF4DF808EDFFF7EAFF34BF0120A6
:104B200000205DF808FB00BF4DF808EDFFF7E0FF3F
:104B300094BF012000205DF808FB00BF4DF808ED90
:104B4000FFF7CEFF94BF012000205DF808FB00BFF7
:104B50004DF808EDFFF7C4FF34BF012000205DF8D9
:104B600008FB00BF03460846194600F001B800BF25
:104B700010B40C4613460146224602205DF8044B51
:104B800000F0F0BD70B50F4E0F4D761BB61007D07C
:104B9000043D0024013455F8043F9847A642F9D15A
:104BA0000A4E0B4D761B04F09FFBB61008D0043D57
:104BB0000024013455F8043F9847A642F9D170BD4E
:104BC00070BD00BFF4920000F49200001493000046
:104BD000F4920000024B0146186800F00BB800BFC9
:104BE0001091FF1F024B0146186800F085BE00BF00
:104BF0001091FF1F2DE9F04F01F10B05162D83B029
:104C0000064627D935F0070527D4A94225D83046CE
:104C100000F036FBB5F5FC7F26D2C14F4FEAD50C2C
:104C200007EBCC03DC689C4200F0D2816368E26849
:104C3000A16823F00303234430465D68CA6045F051
:104C4000010591605D6000F01DFB0834204603B053
:104C5000BDE8F08F1025A942D9D900240C232046A5
:104C6000336003B0BDE8F08F5FEA552C00F08A8016
:104C7000BCF1040F00F260814FEA951C0CF1380C76
:104C80004FEA4C01A64F07EB8101CC68A14205D148
:104C90000CE0002B7ADAE468A14207D0626822F0C7
:104CA0000302531B0F2BF4DD0CF1FF3C0CF1010C44
:104CB0009B4B3C6903F1080E744500F07E816168EE
:104CC00021F003014A1B0F2A00F36481002AC3F874
:104CD00014E0C3F810E06ADAB1F5007F80F03A81A1
:104CE000C90803EBC1004FEAA1085A688168A160B6
:104CF0004FF0010909FA08F848EA0202E0605A6038
:104D00008460CC604FEAAC030120984090425BD8AD
:104D1000024206D12CF0030C400002420CF1040CBC
:104D2000FAD007EBCC084446E146E3689C4207D141
:104D300045E1002A80F25681DB689C4200F03F8109
:104D4000596821F003014A1B0F2AF2DD1C46D3F8F3
:104D50000CC054F8088F591945F0010942F00105BB
:104D6000C3F804903046C8F80CC0CCF808807961CC
:104D70003961C1F80CE0C1F808E04D608A5000F0DC
:104D800081FA63E77E214FF03F0C7BE72244E36822
:104D90005068A16840F00105CB60304699605560CD
:104DA00000F070FA0834204603B0BDE8F08F2144CB
:104DB00030464B6843F001034B6000F063FA08345F
:104DC000204603B0BDE8F08FBC68636823F0030998
:104DD000A94504D3C5EB09030F2B00F39180514B78
:104DE000514A19681368013305EB010A04EB090BFA
:104DF00000F061810AF5805A0AF10F0A2AF47F6AED
:104E00002AF00F0A30465146019200F023FCB0F11F
:104E1000FF3F8046019A00F00081834500F2FA804E
:104E2000DFF810C1DCF80030C3455344CCF8003043
:104E300000F04A8112683C4901321BBFCBEB080BE2
:104E40005B44C1F80080CCF8003018F0070300F094
:104E50001381C3F10802C3F5805390440833C24460
:104E6000CAF30B0ACAEB030A51463046CDF804C018
:104E700000F0F0FB431CDDF804C000F03581C8EB06
:104E80000002524442F00102DCF80030C7F808800A
:104E90005344BC42C8F80420CCF80030DFF894A09A
:104EA00015D0B9F10F0F40F2EA806168A9F10C0248
:104EB00022F0070201F0010EA118052042EA0E0EB1
:104EC0000F2AC4F804E04860886000F21181174A94
:104ED000BC6811688B4288BF1360154A11688B4209
:104EE00088BF1360626822F003029542C5EB02039B
:104EF00001D80F2B04DC304600F0C4F90024A5E6ED
:104F0000621943F0010345F0010565603046BA605F
:104F1000536000F0B7F90834204603B0BDE8F08FC5
:104F20001491FF1F5899FF1F2095FF1F5499FF1FD1
:104F30005099FF1F5C99FF1FBCF1140F61D9BCF1A0
:104F4000540F00F28F804FEA153C0CF16E0C4FEAC3
:104F50004C0197E64B0A042B58D9142B00F2AE8073
:104F600003F15B02500007EB8000DFF8BC8183682F
:104F7000834200F08A805A6822F00302914202D2F2
:104F80009B689842F7D1D9687A68E160A3608C6029
:104F9000DC60B7E6611942F0010745F00105656084
:104FA000304659611961C1F80CE0C1F808E04F6062
:104FB0008A50083400F066F948E65A68A2E609F11A
:104FC000010919F0030F04F108047FF4AEAE2DE0DF
:104FD00004F108036469A34208BF0CF1020C3FF41A
:104FE00067AE23E619441C464868DB6854F8082F6E
:104FF00040F001054D603046D3609A6000F042F900
:1050000024E60CF15B0C4FEA4C013BE68A0938328E
:105010005000A8E7BC423FF403AFBC68626822F0CE
:10502000030262E7D8F8008098457BD11CF0030F9B
:10503000A8F108030CF1FF3CF4D17B6823EA0003DC
:105040007B60400098423FF6BFAE00283FF4BCAE04
:105050000342CC467FF465AE400003420CF1040CE1
:10506000FAD05EE6BCF5AA7F1AD84FEAD53C0CF11F
:10507000770C4FEA4C0105E64FF48053EFE601232D
:10508000C8F80430444600222FE791100120D8F8D8
:10509000042000FA01F10A43C8F80420194674E715
:1050A00040F254539C451BD84FEA954C0CF17C0CB4
:1050B0004FEA4C01E6E50AF1100AA3E6542B1FD88B
:1050C0000A0B6E3250004EE7CBF30B0100297FF440
:1050D000B1AE0AEB0901BA6841F001015160F6E690
:1050E000FC214FF07E0CCDE501224FF0000ACBE60B
:1050F00004F10801304600F0FFFBDAF80030E6E684
:10510000B3F5AA7F03D8CA0B773250002BE740F2E1
:105110005452934203D88A0C7C32500023E7FC207F
:105120007E2220E77B688CE71491FF1F8842F0B451
:1051300010D98C18A0420DD28518531E42B12146B9
:105140002A4611F8014D02F8014D013B5C1CF8D1D3
:10515000F0BC70470F2A3FD940EA01039B073FD1BB
:10516000A2F110073F0900EB071610360C46034664
:1051700025681D6065685D60A5689D60E568DD6007
:105180001033B34204F11004F2D17B1C02F00F0C77
:105190001B01BCF1030F1944034423D90E461D46DD
:1051A0006446043C56F8047B45F8047B032CF8D88D
:1051B000ACF1040424F00304043402F00302234499
:1051C0002144002AC4D01A4411F8014B03F8014BC2
:1051D0009342F9D1F0BC70470346002AF3D1B7E7F8
:1051E0000346F0E76246002AEDD1B1E7F0B4840748
:1051F00043D0541E002A3ED0CDB2034603E0621EC7
:10520000002C38D0144603F8015B9A07F7D1032C21
:105210002AD9CDB245EA05250F2C45EA054515D911
:10522000A4F110073F0903F1100606EB07161A4612
:10523000156055609560D5601032B242F8D104F027
:105240000F040137032C03EB07130DD91E4622462A
:10525000043A032A46F8045BFAD8221F22F003021C
:105260000432134404F003042CB1C9B21C4403F803
:10527000011BA342FBD1F0BC704714460346C6E7AE
:10528000704700BF704700BF2DE9F04F0C4683B058
:1052900090468146002900F0E280FFF7F1FF08F117
:1052A0000B0654F8043C162E23F00305A4F108075E
:1052B0004BD810210E46B0454CD88D4278DADFF835
:1052C00090B3DBF808E07819864500F0CE8042689C
:1052D00022F0010C8444DCF804C01CF0010F7AD0E9
:1052E00000221046DB0700F1928054F8083CC3EB23
:1052F000070ADAF8043023F003032B4488B370451F
:1053000000F0ED8002EB030E8E452ADBC368826855
:105310005746D3609A6057F8081FDAF80C30CB6014
:105320002A1F242A996000F22681132A40F2B380B2
:105330002368CAF808306368CAF80C301B2A00F2E8
:10534000308108340AF11003A6E026F00706002E8B
:105350003146B0DA0C230020C9F8003003B0BDE8B4
:10536000F08F8B4253DB5746DAF80C1057F8080FD2
:105370002A1F242AC160886000F20981132A40F2A2
:1053800004812168CAF808106168CAF80C101B2A49
:1053900000F21C8108340AF1100221681160616872
:1053A0005160A16891601D46DAF804303C465746CA
:1053B000AA1B0F2A03F0010319D82B433D447B603D
:1053C0006B6843F001036B604846FFF75BFF2046C4
:1053D00003B0BDE8F08F22F0030202EB050C8C4510
:1053E00080DBC26881686546CA609160E0E7B919F0
:1053F00042F001001E430A447E604860536843F057
:10540000010308315360484600F076FADCE7414674
:105410004846FFF7EFFB8046D0B154F8043C23F038
:1054200001023A44A0F10801914200F09E802A1F37
:10543000242A50D8132A23D803462246116819601B
:105440005168596092689A602146484600F054FAC3
:105450004846FFF717FF404603B0BDE8F08F1146FE
:1054600003B0BDE8F04FFFF7C5BBDEF8042022F023
:105470000302501906F1100C604519DA704631E745
:1054800023680360636843601B2A63D800F1080344
:1054900004F10802D2E73B4622681A6062685A604B
:1054A000A2689A603C467546DAF8043057467FE7B2
:1054B0003744831B43F00103CBF808707B6054F83A
:1054C000043C03F001031E43484644F8046CFFF714
:1054D000D9FE20467CE72146FFF728FEB4E702EB21
:1054E000030C06F110029445FFF63BAF5746DAF87D
:1054F0000C3057F8081F2A1F242ACB60996000F24D
:105500008780132A78D92368CAF808306368CAF8F4
:105510000C301B2A00F2858008340AF1100322683F
:105520001A6062685A60A2689A600AEB0603C6EBCA
:105530000C0242F00102CBF808305A60DAF804306D
:1055400003F001031E434846CAF80460FFF79AFEC1
:1055500038463DE7A3688360E368C360242A2CD003
:1055600000F1100304F1100268E750F8042C22F057
:10557000030215441CE72146384675463C46FFF7B2
:10558000D5FD5746DAF8043012E73A4605E72146DA
:1055900038461D463C46FFF7C9FD5746DAF8043049
:1055A00006E7A368CAF81030E368CAF81430242A62
:1055B00018D010340AF118036EE723690361636998
:1055C000436104F1180200F1180337E7A168CAF833
:1055D0001010E168CAF81410242A0FD010340AF110
:1055E0001802DAE62369CAF818306369CAF81C3071
:1055F00018340AF120034FE73B4690E72269CAF8C6
:1056000018206269CAF81C2018340AF12002C4E686
:1056100021463846CDF804C0FFF788FDDDF804C008
:1056200083E7A368CAF81030E368CAF81430242A64
:1056300003D010340AF1180371E72369CAF818304F
:105640006369CAF81C3018340AF1200367E700BF09
:105650001491FF1F38B5074C002305460846236008
:10566000FCF766F9431C00D038BD2368002BFBD043
:105670002B6038BD9899FF1F20F0030110F0030044
:10568000C0F1000051F8043B00F1040C4FEACC0CCF
:105690006FF000021CBF22FA0CF213434FF0010C12
:1056A0004CEA0C2C4CEA0C4CA3EB0C0222EA030251
:1056B00012EACC1204BF51F8043B0430F4D013F0CA
:1056C000FF0F1FBF013013F47F4F013013F47F0F22
:1056D00018BF0130704700BFF0B5ADF5057D04ADD2
:1056E00000934FF4007413460F4603AA294603940F
:1056F000064600F04DFD044680B13946304622464C
:10570000039B00F01BF8AC42039004D030462146C6
:1057100000F0F2F803980DF5057DF0BD4FF0FF3075
:10572000F9E700BF30B4044C0D46134601462A4643
:10573000206830BCFFF7D0BF1091FF1F70B5084C38
:1057400006460025084611461A462560FDF71AFA56
:10575000431C00D070BD2368002BFBD0336070BDAC
:105760009899FF1FF0B5274C2668D6F8484185B0B8
:105770000746002C41D065681F2D1EDD224818B950
:105780004FF0FF3005B0F0BD4FF4C87003910292A6
:105790000193FFF71FFA0399029A019B0446002820
:1057A000EED0D6F848512560002060600546C6F866
:1057B0004841C4F88801C4F88C013FB9AB1C0020F3
:1057C0000135656044F8231005B0F0BD04EB850099
:1057D0004FF0010CC0F88820D4F888610CFA05F26B
:1057E0001643022FC4F88861C0F80831E6D1D4F816
:1057F0008C311A43C4F88C21E0E706F5A674C6F88C
:105800004841B8E764910000D54B0000024B13B14A
:10581000024800F005B87047000000002D58000055
:105820000146002002460346FFF79CBF38B5094DEC
:10583000094C641BA41018BF05EB840505D0013C7E
:1058400055F8043D9847002CF9D1BDE8384003F0E5
:1058500061BD00BF0000000000000000F8B5234D4E
:105860000F460446FFF70CFDAB685E6826F00306A2
:10587000F11B01F6EF7121F47F6121F00F01A1F519
:105880008057B7F5805F07DB20460021FFF7E2FE77
:10589000AB683344984204D02046FFF7F3FC002065
:1058A000F8BD20467942FFF7D5FE01300DD0104BF0
:1058B000AA681968F61B46F001062046C91B566007
:1058C0001960FFF7DFFC0120F8BD20460021FFF73B
:1058D000C1FEAB68C21A0F2ADEDD064D04492D68F1
:1058E00042F00102401B5A600860D5E71491FF1F87
:1058F0005C99FF1F2095FF1F2DE9F0410D460646DC
:10590000002955D0FFF7BCFC55F8041CDFF874C122
:1059100021F00103A5F10804E218DCF8080057683B
:10592000904227F0030769D011F00101576032D08F
:105930000021D0194068C00706D43B449068002974
:105940004ED0D268C260906043F001026260E350C2
:10595000E1B9B3F5007F2DD35A0A042A6AD8980911
:10596000383041000CEB810C4649DCF808206245D8
:1059700066D0516821F003018B4202D292689445AF
:10598000F7D1D368E360A2609C60D4603046BDE884
:10599000F041FFF777BC55F8085C641B0CF1080870
:1059A000A06840452B4443D0E568C560A860C0E7C7
:1059B000BDE8F081DB080CEBC3020125DCF8040034
:1059C0009168A1609B1005FA03F31843E260CCF8DC
:1059D000040094603046CC60BDE8F041FFF752BC53
:1059E000294DA842ADD143F00102CCF81440CCF8C7
:1059F0001040E060A0606260E350C7E71F44CB073F
:105A000007D455F8083CE41A1F44A268E368D36041
:105A10009A601E4B1B6847F001029F426260CCF8FF
:105A20000840B3D31A4B30461968FFF717FFADE7AC
:105A300001217EE7142A0CD802F15B00410091E7B6
:105A40004B688010012505FA00F003434B601346B4
:105A500098E7542A03D8180B6E30410082E7B2F55C
:105A6000AA7F03D8D80B773041007BE740F254512E
:105A70008A4203D8980C7C30410073E7FC217E20D9
:105A800070E700BF1491FF1F1C91FF1F1C95FF1FA3
:105A90005899FF1F004870472495FF1F830770B473
:105AA000C9B23FD0541E2AB303788B4223D0431C83
:105AB00004E0FCB104788C421DD0144613F0030FAF
:105AC000184604F1FF3203F10103F2D1032C14D87C
:105AD000651E4CB303788B420DD0421C002302E0BC
