:1000000000800020BD010000D519000099190000F2
:100010009919000099190000991900009919000018
:10002000991900009919000099190000D5190000CC
:10003000D519000099190000D51900008919000090
:10004000D5190000D5190000D5190000D5190000F8
:10005000D5190000D5190000D5190000D5190000E8
:10006000D5190000D5190000D5190000D5190000D8
:10007000D5190000D5190000D5190000D5190000C8
:10008000D5190000D5190000D5190000D5190000B8
:10009000D5190000D5190000D5190000D5190000A8
:1000A000990B0000A90B0000D5190000D51900001C
:1000B000D5190000D5190000D5190000D519000088
:1000C000D5190000D5190000D5190000D519000078
:1000D000D5190000D5190000D5190000D519000068
:1000E000D5190000D5190000D5190000D519000058
:1000F000D5190000A9320000D5190000A53800006C
:10010000D5190000C53D0000D5190000D519000023
:10011000D5190000D5190000D5190000D519000027
:10012000D5190000D5190000D5190000D519000017
:10013000D5190000D5190000D5190000D519000007
:10014000D5190000D5190000D5190000D5190000F7
:10015000D5190000D5190000D5190000D5190000E7
:10016000D519000065210000D5190000D51900003F
:10017000D5190000D5190000D5190000D5190000C7
:10018000D5190000D5190000D5190000D5190000B7
:10019000D5190000D5190000D5190000D5190000A7
:1001A000D5190000D5190000D5190000D519000097
:1001B000D5190000D5190000D5190000574B4CF295
:1001C000205210B51A804DF628121A8000BF00BFC9
:1001D00001F004FC524B4FF010621A60514A9A60D1
:1001E000514ADA60A3F53043203B1A6812F480725A
:1001F00004D14E490A604FF4A8521A604C4B1A7849
:10020000110703D51A7842F008021A70494B4A4C7C
:100210004A482A221A704A4A00239918A14203D256
:10022000195899500433F8E7464B474900228B424E
:1002300002D243F8042BFAE74448454900235A58B0
:100240001A500433B3F5DE7FF9D1424B424A802184
:1002500003F8011B9342FBD1404B3C4A1A60404BD0
:100260000A221A70A3F5805324225A70A0221A7011
:100270009A799207FCD59A79D406FCD4394A9379B5
:1002800003F00C03082B374BF9D103221A714022DB
:100290005A719A799006FCD5324A9179314B4906C8
:1002A000FBD5314A314911600221516020221A7078
:1002B0009A7902F00C020C2AFAD12D4B2D4A1A60C1
:1002C0002D4B2E4A1A6000225A60072243F8042C54
:1002D0002B4AC3F80C2D62B601F006FE134B1B68C7
:1002E000DA0705D5274801F071FD274B274A1A6028
:1002F000274B1B785B0609D5234C244A236893427D
:1003000004D1204801F062FD0023236004F0EAFEDE
:1003100001F06AFB02F088FCFEE700BF0E200540FA
:1003200030800440823F04000100002B14D00340C1
:1003300002D0074000E007402495FF1F685D0000E1
:100340006087FF1F2895FF1F7499FF1F0082FF1F02
:100350000000000000E400E05FE400E008ED00E0E1
:100360000050064000400640448004400000030165
:1003700004800440C010050014E000E0FF76010096
:100380000000202000D075001CE00340A5C3945A53
:1003900000F00740FFFFFFFFFFFFFFFFFFFFFFFF32
:1003A000FFFFFFFFFFFFFFFFFFFFFFFFFFFFFFFF5D
:1003B000FFFFFFFFFFFFFFFFFFFFFFFFFFFFFFFF4D
:1003C000FFFFFFFFFFFFFFFFFFFFFFFFFFFFFFFF3D
:1003D000FFFFFFFFFFFFFFFFFFFFFFFFFFFFFFFF2D
:1003E000FFFFFFFFFFFFFFFFFFFFFFFFFFFFFFFF1D
:1003F000FFFFFFFFFFFFFFFFFFFFFFFFFFFFFFFF0D
:10040000FFFFFFFFFFFFFFFFFFFFFFFFFEFFFFFFFD
:1004100010B5054C237833B9044B13B10448AFF33E
:1004200000800123237010BD2895FF1F00000000ED
:10043000685D000008B5064B1BB106480649AFF3DE
:1004400000800648036813B1054B03B1984708BD07
:1004500000000000685D00002C95FF1F2495FF1F21
:10046000000000000369D3F83801D3F83431C01A12
:10047000704700BF704700BF0369D3F84422B2F54C
:10048000817F09D8D3F84422501CC3F84402134496
:1004900083F83C110120704701230371002070474D
:1004A00030B40369D3F84442B4F5817F1ED8D3F841
:1004B0004442C4F581740134D3F844522B4403F50B
:1004C0009E73944202D201220271224632B18D18EB
:1004D00011F8014B03F8014BA942F9D10369D3F894
:1004E00044121144C3F84412104602E00123037180
:1004F000002030BC704700BF38B50446084B03608D
:10050000036993F84822022A08D1D3F860522DB12A
:10051000284602F06FFB284602F08EFB204638BDCD
:10052000505A000010B4002202714FF47A748460B3
:100530000273064A026041734FF41A74044A04FBC2
:10054000012101615DF8044B704700BF505A000063
:100550006487FF1F0369490083F83C110369012286
:10056000C3F8442200230371026982F84E327047B7
:10057000D0F83421D0F838319A4208D2D0F834314A
:100580005A1CC0F83421184490F8300070474FF0DE
:10059000FF30704708B50069FFF7EAFF08BD00BFEC
:1005A000D0F83421D0F838319A423DBFD0F83431F8
:1005B000C01890F830004FF0FF30704708B5006960
:1005C000FFF7EEFF08BD00BF38B50446C2681578D6
:1005D000EDB281680B78DBB213F0200F00F0C3811D
:1005E00013F0100F00F0058190F85632DBB2022BA9
:1005F00004D090F85632DBB2032B4CD1D4F8601201
:100600000B689B8B03F080039BB2002B00F0808271
:1006100094F85632DBB2022B40F07A826EE2137805
:1006200013F0800FFBD00A79B54B1A70002384F8C1
:100630005632D4F84432013BC4F840322369D4F82E
:100640004022224492F83C211A7020E0AD4B1A68F7
:100650000B7901219940114219D0AB4A1370D4F89B
:1006600060321A79A94B1A70002384F8563215F0BB
:10067000100F0CD0072384F84E32A36880221A7022
:10068000E36812221A700023C4F8403238BDE368D0
:1006900002221A7038BD90F84E32DBB2012B56D1CF
:1006A00015F0100F0DD0002380F85632072280F885
:1006B0004E2280220A70C26812211170C0F84032A6
:1006C00038BD15F0010F0FD0002380F85632D0F856
:1006D00040321BB9052380F84E3202E0062380F831
:1006E0004E3280230B702EE0D0F840320133C0F838
:1006F0004032D0F8442293420AD3002380F84E328D
:1007000090F84D32012B0CBF8023B0230B701AE000
:1007100090F85632DBB2012B0ED1022380F856320C
:10072000F1230B70D0F860321A79794B1A70036993
:1007300090F83D211A7006E00369D0F84022024487
:1007400092F83C211A70E36802221A7038BD90F8C2
:100750004E32DBB2022B36D115F0100F08D0072332
:1007600080F84E3280230B70C36812221A7038BD95
:1007700015F0010F05D0052380F84E3280230B7051
:100780001DE090F85632DBB2012B0CD1022380F829
:100790005632E1230B70D0F860321A795C4B1A7034
:1007A00003691B780BE0032380F84E32D0F85032F7
:1007B000012B0CBFE823E0230B7003691B78E3686F
:1007C00002221A7038BD90F84E32DBB2042B0AD1E7
:1007D00090F84D32012B0CBF8023B0230B70C368FF
:1007E00002221A7038BD80230B70C36802221A706F
:1007F00038BD90F85632DBB2022B04D090F8563256
:10080000DBB2032B56D1D4F860321A68928B02F017
:10081000800292B2002A00F08C8194F85622D2B263
:10082000022A40F086817AE11A79354B1A7000234A
:1008300084F8563294F84E32DBB2042B1CBF0023EE
:1008400084F84E32A368B0221A70D4F85032013BBB
:10085000C4F83831D4F838315A1CC4F83821226928
:100860001278234483F8302094F84D32012B1DD1A7
:100870002023013B7FF4FDAFA36880221A7015E0AE
:10088000204A12681B790121994011420ED01F4A5B
:100890001370D4F860321A791B4B1A70002384F855
:1008A000563284F84E32A36880221A70E36802221E
:1008B0001A7038BDD0F838210232D0F850329A423E
:1008C00000F03E8190F84E32DBB2042B04D190F858
:1008D0005532002B00F03481D4F838210132D4F89D
:1008E00050329A4280F03A8194F84E32DBB2042BB7
:1008F00040F0298194F85532002B40F02F8122E1FD
:100900001C8000402C8000401F8000401E80004062
:100910001B800040002384F84E32A368B0221A7076
:10092000D4F838315A1CC4F838212269127823448B
:1009300083F8302094F84D32012B06D12023013B5F
:100940007FF4FDAFA36880221A7094F84E32DBB2B8
:10095000042B04D194F85532002B00F00981E36890
:1009600002221A7038BD15F0100F08D01023137032
:1009700015F0400F06D1C36802221A7038BD15F079
:10098000400F60D094F84E32DBB20A2B04D1D4F879
:100990005832002B40F0F08015F0040F1ED00923D0
:1009A00084F84E320023C4F84432A368D0221A706F
:1009B00023691B785B0884F84F32D4F85C3203B1AA
:1009C0009847D4F844320BB984F83C31236994F841
:1009D0003C211A700123C4F8403230E0002384F82F
:1009E000543294F84A322BB912206849032201F09C
:1009F0008DF916E0012B05D111206449032201F085
:100A000085F90EE0032B05D11E206149032201F078
:100A10007DF906E0042B04D11F205D49032201F07B
:100A200075F90A2384F84E320023C4F83831A368DC
:100A3000C0221A7023691B785B0884F84F32E36880
:100A400002221A7038BD13F0100F20D015F0010FDC
:100A500015D1D0F84022D0F844329A4208D2D0F8CA
:100A600040325A1CC0F84022034493F83C2100E075
:100A7000002223691A70A368D0221A703AE0C023BA
:100A80000B7003691B78002380F84E3232E000239C
:100A900080F8543290F84A322BB912203B49032295
:100AA00001F034F916E0012B05D11120374903225A
:100AB00001F02CF90EE0032B05D11E20344903224E
:100AC00001F024F906E0042B04D11F203049032251
:100AD00001F01CF923691B78DAB2D4F83831B3F588
:100AE000817F07D8D4F83831591CC4F83811234411
:100AF00083F83020E36802221A7038BD0A79254B4A
:100B00001A70A368F0221A70032384F85632BEE5E7
:100B100094F85632DBB2032B7FF498AD7FE51A7957
:100B20001C4B1A70A368E8221A70032384F856320B
:100B3000BCE694F85622D2B2032A7FF4A1AE73E643
:100B4000E8230B70C8E6D4F838315A1CC4F83821B1
:100B500022691278234483F83020F6E6002384F8D3
:100B6000553294F84E32DBB2042B7FF4D3AED4E688
:100B7000012384F85532F2E60023C4F83431D4F866
:100B80003801D4F85832984706E700BF5D0C0000E2
:100B90006D0C00001F80004008B502480021FFF7DF
:100BA00013FD08BD6487FF1F08B502480121FFF748
:100BB0000BFD08BDCC89FF1F10B50446C3681B7828
:100BC00013F0200F24D1002380F84E3290F84A32DF
:100BD0001BB9122001F0E2F810E0012B03D1112023
:100BE00001F0DCF80AE0032B03D11E2001F0D6F857
:100BF00004E0042B02D11F2001F0D0F8D4F85832C1
:100C000053B30022C4F83421D4F83801984710BDFA
:100C100090F854320133DBB280F85432012B03D800
:100C200090F84932012B17D094F84A321BB91220A0
:100C300001F0B4F810BD012B03D1112001F0AEF882
:100C400010BD032B03D11E2001F0A8F810BD042B0A
:100C500002D11F2001F0A2F810BD00BF08B5024864
:100C60000021FFF7A9FF08BD6487FF1F08B50248F0
:100C70000121FFF7A1FF08BDCC89FF1F70B50B4E06
:100C800030460021FFF74EFC094D0A4C30462946FC
:100C9000224604F017FA084E30460121FFF742FCC5
:100CA00030462946224604F00DFA70BD5895FF1FC4
:100CB000F90400006087FF1F4495FF1F0B4BDB68A2
:100CC000834211D0094B1A6812F4804F04D0D860C7
:100CD00040F0804018617047044B05491960D860A6
:100CE00040F0804018611A60704700BF00C00240A9
:100CF00001401F00184B1A6842F480521A60174BCB
:100D0000174A1A60174ADA6002F180421A61164ADD
:100D10001A60164B1B7813F0010F07BF4FF41072C7
:100D2000134B4FF40072134B1A60104B1B7813F0E7
:100D3000020F4FF400720CBF0F4B104B1A600B4B9D
:100D40001B7813F0040F07BF4FF410720C4B4FF4D5
:100D500000720C4B1A6070473C80044000C0024097
:100D600001401F000110003800001F805597FF1F31
:100D700018B0044008C004401CB004400CC004403B
:100D800014B0044004C0044008B5084B1A6842F48B
:100D900080521A60064BDB6810B943F0807001E0A6
:100DA00023F08070FFF78AFF08BD00BF3C8004403D
:100DB00000C0024030B46A4B1A6842F480521A6094
:100DC0001A6842F480521A60664BDB6803F0807345
:100DD000002B14BF20230023624AD26802F00F02C6
:100DE000012A0AD9042A02D843F0010305E0062AA1
:100DF00094BF43F0020343F003035A4A126812F40B
:100E0000804F08BF43F04003564A1268002AB8BF1B
:100E100043F010031843524B1B6813F4805F06D154
:100E200043F480534E4A13604F4A4E4BDA6010F041
:100E3000400104D14B4B1A6842F480421A6000F022
:100E400020024A4B4A4C002A14BF22461A4610F090
:100E5000080F18BF42F0806210F0040F10D010F09D
:100E6000030302D1434B134323E0012B02D1424B36
:100E700013431EE0022B0CBF404B414B134318E0C1
:100E800010F0030304D142F4805343F0010310E057
:100E9000012B04D142F4804343F0040309E0022B08
:100EA00007BF42F4C04343F0060342F4E04343F07B
:100EB00007032C4AD46804F000442343D2689342C9
:100EC0000FD0284A126812F4804F02D0254AD3600E
:100ED00007E042F4804545F00105224C2560E360BF
:100EE000226000F010000028264B08BF4FF4F813D2
:100EF00021B31C4A1360244B1B7813F0010F07BF6A
:100F00004FF41072214B4FF40072214B1A601E4BAC
:100F10001B7813F0020F4FF400720CBF1D4B1E4BD9
:100F20001A60194B1B7813F0040F07BF4FF41072AF
:100F30001A4B4FF400721A4B1A600FE043F48043CF
:100F400043F00103074A13604FF4A27302F5F8322D
:100F50001832136004321360083A136030BC7047D3
:100F60003C80044000C002400110013800000138FC
:100F7000000001390101000204040002060600021B
:100F80000707000200001F805597FF1F18B004409C
:100F900008C004401CB004400CC0044014B004401D
:100FA00004C0044008B50B4B1A6842F480521A6022
:100FB000094BDB6803F0E06213F0007F05D020F4FA
:100FC000704300F4704043EA10101043FFF776FEC0
:100FD00008BD00BF3C80044000C00240024B1A68BC
:100FE00001321A60704700BF6C95FF1F024B1A68F0
:100FF00001321A60704700BFB095FF1F08B50A2084
:10100000012100F017FF0920012100F013FF1E4805
:101010000821FFF79FFA0420012100F00BFF0520B3
:10102000002100F007FF0620002100F003FF0A2046
:10103000012100F0DBFE0920012100F0D7FE042091
:10104000012100F0D3FE05201049032200F05EFECE
:1010500006200F49032200F059FEFFF74BFE0D4812
:10106000012100F007FA0C48012100F003FA0C20DE
:1010700000F0BCFB00F000FF084B18600023084A9A
:101080001360084A136008BD5895FF1FDD0F00006C
:10109000ED0F00008095FF1F9895FF1FBC95FF1F67
:1010A0006C95FF1FB095FF1F2DE9F04F83B000F046
:1010B000E3FE9A4B18609A4B1B68632B0AD8994B36
:1010C0001B68632B06D8984B1A68821A41F2873343
:1010D0009A427FD9924F3A68944B03FB02F23A60EE
:1010E000904E326803FB02F33360D7F800B0DFF8AC
:1010F0003892D9F80030C01A03F0A6FD8246DFF816
:101100006882D8F8000003F09FFD894903F0F4FDE0
:1011100003F036FA04460D46584603F095FD85491E
:1011200003F0EAFD514603F09BFE03F029FA024664
:101130000B462046294603F0C5F803F087FCC8F8A3
:10114000000033680193DFF824B2DBF8000003F0FD
:101150007BFD774903F0D0FD03F012FA04460D46FB
:10116000019803F071FD734903F0C6FD514603F089
:1011700077FE03F005FA02460B462046294603F0A7
:10118000A1F803F063FCCBF800006B4C23685B68AC
:1011900020466A49092298472046D8F800100A22BA
:1011A000002301F05DFD23685B68204664490B2243
:1011B00098472046DBF800100A22002301F050FD7A
:1011C000204601F03DFD00233B60336000F054FEFB
:1011D000C9F8000000F050FE534B1B68C01AB0F570
:1011E0007A7FC0F09780574C206803F02DFD50495E
:1011F00003F082FD05460E2000F024FB03F028FDDD
:101200004C4903F079FD0146284603F06DFC03F0DC
:1012100039FF20604C4C206803F016FD444903F070
:101220006BFD05460F2000F00DFB03F011FD414959
:1012300003F062FD0146284603F056FC03F022FF4E
:101240000646206003F000FD4FF0685103F054FDA6
:101250000446002103F0EEFE40B920464FF07E51D7
:1012600003F006FF20B14FF07E5002E0002000E0C6
:10127000204603F085F904460D46344BC3E900458A
:10128000C6F57F600F3003F0DFFC4FF0685103F0CC
:1012900033FD0646002103F0CDFE40B930464FF045
:1012A0007E5103F0E5FE20B14FF07E5002E00020B9
:1012B00000E0304603F064F980468946244BC3E9D8
:1012C0000089204B186803F039F906460F4620467E
:1012D000294632463B4603F0A7F903F0DFFB85B20F
:1012E0001C4B1D801C4C4046494632463B4603F091
:1012F0009BF903F0D3FB20801848294600F062F9DF
:101300001748218800F05EF94FF40053154A136026
:10131000043A136003B0BDE8F08F00BFB895FF1F1B
:101320006C95FF1FB095FF1FBC95FF1FF049020091
:101330009A99193FCDCCCC3E5897FF1F685A0000B0
:10134000745A0000C495FF1FC895FF1F7895FF1FB2
:101350007095FF1FC295FF1FC095FF1F8095FF1F4F
:101360009895FF1F08F00F40CC95FF1FB495FF1F05
:1013700008B5074803210A224FF0FF3300F03EF87A
:101380000448032109224FF0FF3300F037F808BD6D
:101390008095FF1F9895FF1F08B5042804D14FF0D2
:1013A0006050FFF7FFFD08BD18B90E48FFF7FAFDC2
:1013B00008BD052803D10C48FFF7F4FD08BD01283E
:1013C00003D10A48FFF7EEFD08BD062803D10848FF
:1013D000FFF7E8FD08BD02280CBF06480648FFF7E6
:1013E000E1FD08BD01100138032001380320033856
:1013F00005400138065001380760013838B5044609
:101400000025057345738573042020610120207534
:1014100022606360013905290DD8DFE801F0030679
:10142000090306090823A36007E00A23A36004E078
:101430000C23A36001E00023A360D0B2012100F0DF
:10144000F9FC2079012100F0F5FC2078012100F061
:10145000CDFC2079012100F0C9FCFFF74BFC0120F5
:10146000FFF792FC0020FFF7A5FC207CFFF794FF1C
:10147000204638BD08B506292CD80161C9B2042917
:1014800005D14FF06050FFF78DFD012008BD21B957
:101490001148FFF787FD012008BD052904D10F4839
:1014A000FFF780FD012008BD012904D10C48FFF79A
:1014B00079FD012008BD062904D10A48FFF772FD15
:1014C000012008BD02290CBF07480848FFF76AFD44
:1014D000012008BD002008BD01100138032001389B
:1014E00003200338054001380650013807600138F1
:1014F00070B504460D46164683680C2B02D1C1F325
:101500000B0507E00A2B02D1C1F3090502E0082B05
:1015100008BFCDB2A37B63B11022264B1A600C33F7
:101520001B6813F0040F08D14FF48072224B1A602D
:1015300003E02078002100F059FC227B920342F462
:101540008052637B83F0010342EA433343EAC636A9
:10155000A368C3F10C039D403543ADB2174B4FF068
:101560000042DA622A0A5A631A46D36A002BFCDA6E
:10157000124B9A6B4FF00042DA62EDB25D631A468D
:10158000D36A002BFCDA0D4B9B6BA37B63B110225B
:101590000B4B1A6010331B6813F0040F08D140F294
:1015A0000312054B1A6070BD2078012100F01EFC6B
:1015B00070BD00BF88F00F4010B0044000C0024072
:1015C00084F00F4008B50022FFF792FF08BD00BF6E
:1015D00030B4394A3949136813F0800FFBD10B68D6
:1015E00013F0800FF7D172B6354B1B78002B5FD00C
:1015F000344B1C6804331D680433186804331968BD
:1016000004331A6804331B682C44204401440A4400
:101610001A44C2F34E0242F400422B4B1A602C33A0
:101620001C6804331D6804331868043319680433D4
:101630001A6804331B682C44204401440A441A44A9
:10164000C2F34E0242F40042204B1A6003F1081329
:101650001C6804331D6804331868043319680433A4
:101660001A6804331B682C44204401440A441A4479
:10167000C2F34E0242F40042154B1A602C331C6830
:1016800004331D68043318680433196804331A6876
:1016900004331B682C44204401440A441A44C2F316
:1016A0004E0242F400420B4B1A600022044B1A70A7
:1016B00062B630BC704700BF24B0034024B00B407A
:1016C000D195FF1F38B003402CB0034030B0034029
:1016D0002CB00B4030B00B4060223A4B1A70E12224
:1016E00001331A70384B1B78082B10D1012203F1FB
:1016F000804303F56C331A60132334490B6001F502
:10170000FF2101F2FC710A60314A13601FE00A2BCD
:101710000DD139222F4B1A6013232C490B6001F590
:10172000FF2101F2FC710A60294A13600FE00C2BC3
:101730000CBF35223D22274B1A60122323490B6030
:1017400001F5FF2101F2FC710A60214A1360224B6E
:101750001B7833B10123214A136002F50022136084
:1017600005E000231D4A136002F5002213601C4BA4
:101770001B78012B06D880231A4A136002F5002239
:1017800013601AE0042B06D88423164A136002F56E
:101790000022136011E0082B06D88523114A13603C
:1017A00002F50022136008E0102B94BF86238723E4
:1017B0000C4A136002F50022136001220A4B1A70D2
:1017C000704700BF00400740348CFF1F0CB003403F
:1017D0000CB00B4008B00340D495FF1F20B003406D
:1017E000358CFF1F24B00340D195FF1F08B50C288E
:1017F00004D9102828BF1020102307E00A2804D895
:10180000092834BF08230A2300E00C23DAB2101A97
:101810000849087008490978994209D0064B1A709E
:10182000064B1B7813B10022054B1A60FFF754FFDB
:1018300008BD00BFD095FF1F348CFF1FD195FF1F3F
:1018400024B003402DE9F8430D2813D9172802D8F6
:101850000E38C0B20EE0A0F11A03DBB2052B02D89D
:101860000938C0B206E0A0F12203DBB2062B73D820
:101870001838C0B23A4B1E5C3A4B1B780BB1FFF7DD
:10188000A7FE16F0800F29D172B6374C374D4FF0B6
:10189000010726602F7062B672B6236813F0800FBE
:1018A00004D12B7813F0FF0F0FD1F2E7304B1868FB
:1018B00000222E4B1A7062B62E4B1B781841BDE8E1
:1018C000F8832B7813F0FF0FE3D062B601F030FA03
:1018D00072B6236813F0800FF3D0E7E772B606F014
:1018E00040095FFA89F9244F244C06F03F06244D45
:1018F0004FF00108B9F1000F04D03B6823F010034A
:101900003B6003E03B6843F010033B60266085F8D2
:10191000008062B672B6236813F0800F04D12B7872
:1019200013F0FF0F0FD1E5E7164B18680022144B98
:101930001A7062B60F4B1B781841BDE8F8832B78FC
:1019400013F0FF0FD6D062B601F0F2F972B6236839
:1019500013F0800FF3D0E7E70020BDE8F88300BF65
:10196000805A0000D195FF1F00B00340D395FF1FA0
:1019700010B00340D095FF1F0CB00B4000B00B40DF
:10198000D295FF1F10B00B40024B1A6801321A604B
:10199000704700BF6096FF1F08B50D4C236813F415
:1019A000802F01D000F0DEFB236813F4806F01D09C
:1019B00001F07AFC236813F4006F01D001F072FF8C
:1019C000236813F4805FE9D002F0FCF9E6E700BF7A
:1019D0003480044008B5FFF7DFFF00BF1022014B41
:1019E0001A80704700200540704700BF024A136804
:1019F0001844106018467047388CFF1FEFF31383AC
:101A0000ABB9EFF31083ABB9EFF3058323B10F2B21
:101A100005D9094A985C03E04FF4807000E000208B
:101A2000EFF311833BB1834238BF184670474FF044
:101A3000FF30704700207047F0E300E010B5154B11
:101A40001C681C6014F4805F05D0134BDB6813B175
:101A5000114BDB68984714F4005F05D00E4B1B69EF
:101A600013B10D4B1B69984714F0200F05D00A4B9A
:101A70001B6E13B1084B1B6E984714F0100F07D064
:101A8000054BD3F884301BB1034BD3F8843098470F
:101A900010BD00BFA0900440D895FF1F10B5274B84
:101AA0001C681C6014F4803F05D0254B1B6813B1E3
:101AB000234B1B68984714F4003F05D0204B5B680C
:101AC00013B11F4B5B68984714F0010F05D01C4BF6
:101AD0001B6C13B11A4B1B6C984714F0020F05D006
:101AE000174B5B6C13B1164B5B6C984714F0080FE7
:101AF00005D0134B9B6C13B1114B9B6C984714F0A2
:101B0000040F05D00E4BDB6C13B10D4BDB6C98470B
:101B100014F4002F05D00A4B5B6E13B1084B5B6EBB
:101B2000984714F4802F07D0054BD3F880301BB1B1
:101B3000034BD3F88030984710BD00BFA0A00440ED
:101B4000D895FF1F10B5384B1C681C6014F0080FA7
:101B500005D0364B5B6A13B1344B5B6A984714F07F
:101B6000100F05D0314B9B6A13B1304B9B6A9847DD
:101B700014F0400F05D02D4BDB6A13B12B4BDB6A01
:101B8000984714F0800F05D0284B1B6B13B1274BDF
:101B90001B6B984714F0200F05D0244B5B6B13B1DF
:101BA000224B5B6B984714F0010F05D01F4BDB6B8A
:101BB00013B11E4BDB6B984714F0020F05D01B4B83
:101BC0009B6D13B1194B9B6D984714F0040F05D012
:101BD000164BDB6D13B1154BDB6D984714F4007F8A
:101BE00005D0124BDB6E13B1104BDB6E984714F42B
:101BF000807F05D00D4B1B6F13B10C4B1B6F9847AB
:101C000014F4806F05D0094B5B6F13B1074B5B6F0A
:101C1000984714F4006F05D0044B9B6F13B1034B2E
:101C20009B6F984710BD00BFA0B00440D895FF1F20
:101C300010B5264B1C681C6014F0010F05D0244B16
:101C40009B6813B1224B9B68984714F0800F05D016
:101C50001F4B5B6913B11E4B5B69984714F0100F63
:101C600005D01B4B9B6913B1194B9B69984714F026
:101C7000040F05D0164BDB6913B1154BDB69984790
:101C800014F0080F05D0124B1B6A13B1104B1B6ADE
:101C9000984714F0020F05D00D4B9B6B13B10C4B02
:101CA0009B6B984714F0200F05D0094B1B6D13B1A7
:101CB000074B1B6D984714F0400F05D0044B5B6D2C
:101CC00013B1034B5B6D984710BD00BFA0C004402B
:101CD000D895FF1F10B50B4B1C681C6014F0020F49
:101CE00005D0094B9B6E13B1074B9B6E984714F0C0
:101CF000010F05D0044BDB6F13B1034BDB6F98472B
:101D000010BD00BFA0D00440D895FF1F30B42128DB
:101D100031D8042A2FD8DFE802F00709050B0300A9
:101D20000B2406E00A2404E0082402E00C2400E06E
:101D30000924124B03EBC0035A68114B114DC3F831
:101D40009C51114DC3F8A051104DC3F8A451104D32
:101D5000C3F8A8510F4DC3F8AC5172B6136823F401
:101D6000702313600C4D45F8201043F0807343EA54
:101D70000444146062B630BC704700BF985A00003B
:101D80000082FF1F3D1A00009D1A0000451B000045
:101D9000311C0000D51C0000D895FF1F094B03EB38
:101DA000C0035A6872B6136823F0877323F4803334
:101DB00043F0807313600022034B43F8202062B687
:101DC000704700BF985A0000D895FF1F044B0022AF
:101DD0001A6004490A60044A106010221A607047B1
:101DE00014D0034004D0034000D0034021281ED863
:101DF0000F4B53F8303093F8802212F0FF0F08D0C9
:101E000019B1012283F880207047012283F8002154
:101E10007047074B03EBC000436821B11A6842F0DA
:101E200003021A6070471A6822F002021A607047B3
:101E3000985A000021281CD80E4B03EBC0035B68A6
:101E4000012908D10B4A52F8302082F880124FF451
:101E5000A2721A607047074A52F83020002082F8B8
:101E6000800219B94FF480721A60704740F2031271
:101E70001A607047985A000072B60C4B1B680C4AE7
:101E800012680C49096862B611F0806F02D0322BDB
:101E900088BF0132C3F5BB33FF330749A1FB0303FE
:101EA0009B094FF47A7000FB0230704718E000E0A5
:101EB0006096FF1F04ED00E0ABAAAAAA38B505465C
:101EC000FFF7DAFF044625B938BD013D0AD004F515
:101ED0007A74FFF7D1FF001BB0F57A7FF5D200F0DE
:101EE00027FFF6E738BD00BF10B5254B4FF40002C1
:101EF0001A604FF080721A604FF000721A604FF053
:101F000080621A604FF000621A6000201D4B18605A
:101F10004BF6FF710433196028231B4A1360083203
:101F200013600832136008321360083213600832FD
:101F3000136008321360083213600922134C2260C8
:101F400004F5805404342060043421600434236098
:101F500008342360143C226004F5FE24043420601D
:101F60000B4801600B490B6008310B600A4B1A608B
:101F7000FFF7B2FBFA20FFF7A1FF00F073FC10BDE2
:101F800008E100E0048003400C800340008003402F
:101F900008800B400C800B4000800B4030B40E4B8F
:101FA0001B7843F002020D4C04EBC20460600C4845
:101FB000007800280CBF8824C82444EA0141074D5A
:101FC00045F8321080F00100054A107083F00103DB
:101FD000014A137030BC7047CC96FF1F0080FF1F72
:101FE0004597FF1F10B4431E032B11D872B60A4A3F
:101FF00052F8230050B14268074941F82320074AAC
:1020000032F813400188611A22F8131062B600E01A
:1020100000205DF8044B7047BC96FF1F5C99FF1FC2
:10202000013803280DD872B6074B53F820302BB176
:10203000002001305B68002BFBD100E0002062B67D
:1020400070470020704700BF1097FF1F38B572B669
:1020500001231B491B4C5A1812F8012C12F0080FCF
:1020600024D09A0054F832506DB9164B03EBC201DC
:1020700008304860144943F83210144B1A78013A7A
:102080001A7062B638BD42F0010254F832506DB990
:102090000C4B03EBC201083048600D4943F8321085
:1020A0000A4B1A78013A1A7062B638BD0133052B13
:1020B000D1D162B60022054B1A7000F037FC38BD52
:1020C000D05B00000080FF1F880040003A97FF1F90
:1020D000C800400010B4431E032B37D8400140F025
:1020E00010001C4A104472B61B4AD25C032A09D85D
:1020F000DFE802F019021B050830022216E0083062
:10210000042213E0154A52F823201AB9134A42F860
:10211000231003E0124A52F823205160104A42F87B
:10212000231062B612E0032200E005220A4CE254BA
:1021300001F10803436000F00803002B0CBF882363
:10214000C8230A8843EA0243036062B65DF8044B81
:10215000704700BF0080FF1F7896FF1F1097FF1F7A
:102160002097FF1F2DE9F84FA34CDFF8E092DFF82E
:10217000E0A2DFF8E0B22578EDB215F0040F1DD033
:102180009E4B1B7813F0FF0F16D09D4B1B7803F06E
:10219000FF022BB1531EDBB2994A137003B900BE84
:1021A000984B1B7803F0FF0233B1531EDBB2954A04
:1021B00013700BB900F0FAFC0423237015F0080F1C
:1021C00000F0E48299F80030DBB21D0940F0218272
:1021D0008D4D9E0805EBC6035A6855F83630C3F39B
:1021E0008303013B0C2B00F21082DFE813F0CB01DC
:1021F000CB010E020E020E020E020E020E02E801CA
:102200000E020E020E020D00804913680B60526828
:102210004A607F4A45F8362000227E490A607A49A2
:102220000A618A6101217C4A11709BB240F281628D
:10223000934218D8B3F5D06F2ED2B3F5817F00F05A
:102240001E8106D8802B00F0C980822B00F0CC8044
:1022500066E140F20232934200F02681B3F5A06FAE
:1022600000F062815CE142F22102934200F086813B
:1022700007D8B3F5086F00F0AB80B3F5106F11D03D
:102280004EE142F22122934200F0418142F221329A
:10229000934200F0498143E1604B5D68002D40F0BE
:1022A000188130E1594B9A78544B1A70564D05F10C
:1022B00080062B6A13F0800F03D0686A083800F09C
:1022C00035FB0835B542F4D1DFF88C81002637465E
:1022D000534AB05828B1456800F028FB0DB1284694
:1022E000F9E700234E4973504E4AB3504E4BF05815
:1022F00028B1456800F01AFB0DB12846F9E7002324
:1023000049497350494AB35028F8023F484BFB5C97
:10231000023B032B0AD8DFE803F002060206002284
:10232000434BDA5502E00122414BDA5501370436BE
:10233000102ECDD100223F4B1A7001253E4EDFF802
:102340001C81314F05EB080313F8013C06F8043BF0
:1023500013F0080F2DD000F0C9FA48B1A90007EB1F
:10236000451200F108035360344A47F8312007E072
:10237000AB00002247F833202E4B1A7801321A7036
:1023800000F0B4FA58B1AB0043F0010307EBC3010E
:1023900000F108024A601E4A47F8332009E0AB000A
:1023A00043F00103002247F83320224B1A78013210
:1023B0001A70AA0042F00201002347F8313042F0BF
:1023C000030247F8323001351D4B9E42BAD11EE25E
:1023D0000A4B1B781B4D2B700127AAE0194D0023D7
:1023E0002B706B700227A4E0084B9B88042B37D915
:1023F0000F22154B1A70C1E0802007404497FF1F41
:10240000CD96FF1F4697FF1F0080FF1F3097FF1FCD
:10241000C80040006496FF1F4597FF1FD45B000073
:10242000BC96FF1F6896FF1F1097FF1F2097FF1F86
:102430007896FF1F3A97FF1FC4200740880040008E
:10244000D42007403C97FF1FC02007409020074042
:1024500094200740982007405A99FF1FD05B000046
:10246000A04A0021117051709F4A12F8233013F0D6
:10247000020F5CD09B4D01232B70022759E09B4B30
:102480009B8803F07F03042B02DC984A52881AB120
:102490000F22954B1A7071E0934A12F8231021F025
:1024A000020102F82310B2E1904B9B8803F07F03F6
:1024B000042B02DC8D4A52881AB10F228A4B1A7003
:1024C0005CE0894A12F8231041F0020102F823105F
:1024D0009DE1864B5E889F88854BA3F10C021146D7
:1024E00033F80C0CB04209D133F80A0CB84205D1CC
:1024F000360A032E0CBF2F7817891AE00D690C33AA
:102500000C32002DEBD10F22774B1A7036E0794B4D
:102510001A68794B1A60754B9A78784B1A7076E185
:102520000F22714B1A7029E000273D4601E0022777
:102530006C4D6E4BDB889F4228BF1F46402F34BF37
:102540003E46402628463146FFF728FD3544BF1B4E
:1025500003D13F2E00F2608110E0402F34BF3E4691
:10256000402628463146FFF719FD3544BF1B01D1EF
:102570003F2E03D9624B1D60624B1F8001238AF8F6
:10258000003042E0594B198842F22103994212D19E
:102590005D4BD81D12F8011B03F8011F8342F9D1CE
:1025A0005A4B1B68862B02D10F22594B1A70002000
:1025B0000146FFF7F3FC574B45F8363025E0504B0A
:1025C0001E68BEB14F4FB7F80080B8F1400F34BF5E
:1025D0004546402530462946FFF7E0FCC5EB080399
:1025E0009BB23B800BB9402D01D1354400E0002562
:1025F000434B1D603D4B1B88B3F5A06F05D13B4B92
:1026000000225A709B788BF8003001238AF8003042
:10261000B9E0414E9F0806EBC708D8F80420A2F1A4
:102620000800013DEDB213F0080F47D000F07EF92D
:102630003A4B53F825304BB35A68384941F82520B6
:1026400003F10802C8F80420354A525D032A12D863
:10265000DFE802F002060A0E0321314A51550AE072
:1026600002212F4A515506E005212D4A515502E01D
:1026700004212B4A515518F0080F0CBF8822C8229C
:102680001B8842EA034346F837307CE0244B5B5D0D
:10269000032B0BD8DFE803F0777702060022204BEC
:1026A0005A5570E001221E4B5A556CE018F0080F85
:1026B0000CBF022203221A4B5A5564E056F83730F9
:1026C0001B0C22F8083C002B55D0002322F8063CB6
:1026D00042F8043C134B53F825302BBB114B43F805
:1026E000250025E03C97FF1FC02007403097FF1FC3
:1026F000E05B00006096FF1F6C99FF1F5497FF1F5F
:102700006496FF1F3897FF1F6399FF1F6499FF1F8F
:10271000CD96FF1FC80040000080FF1F1097FF1FCD
:102720007896FF1FBC96FF1F3F4B53F8253058602B
:102730003D4B43F825003D4B33F8151032F8082C7B
:102740000A4423F8152000F0D1F860B100F1080325
:10275000C8F8043018F0080F354B364A08BF134646
:1027600046F837300FE0002346F83730324B1A78FE
:1027700001321A7007E018F0080F2D4B2D4A08BFE0
:10278000134646F8373008232370F4E415F0010FA0
:1027900022D02A4902230B700022294B1A70294BA0
:1027A00024481860284C5C6098602848D8601A61FA
:1027B0009A610D20264B1870FF23264803700838B5
:1027C000037018300270244A13709F22234B1A7032
:1027D00001230B70BDE8F88F15F0800F05D00D2296
:1027E0001B4B1A708022403B1A7015F0020F06D066
:1027F000184B1A78D2B21A700222083B1A7015F0E0
:10280000100F0ED01022164B1A70BDE8F88F002062
:102810000146FFF7C3FBB1E628460021FFF7BEFBE8
:10282000ACE6BDE8F88F00BF6896FF1F5C99FF1FFC
:10283000C8004000880040003A97FF1F94200740DE
:10284000CC96FF1F0080FF1F7C96FF1FD096FF1FB6
:10285000C0200740882007408C2007408420074084
:102860008020074008B501F021FB00231B491A46D0
:102870005A50C81842600833882BF9D1184B1A688F
:1028800042F480221A60154BC3F30721154A1170D8
:10289000C3F30741143211701B0E04321370FF236F
:1028A000343A137008321370783A1370012384326B
:1028B000137000216C3211707C3A137070220A4B35
:1028C0001A704FF40072A3F241331A60102203F120
:1028D000C04303F5C8231A7008BD00BF0080FF1F66
:1028E000348004409C20074049E400E072B60D4B60
:1028F0001A68B2FA82F30B2B02D962B60020704735
:102900004FF00041D94022EA010206490A6062B64E
:10291000054903EBC303DB00C8180022CA5042601C
:10292000704700BF3C8CFF1F0084FF1F08B50F4B92
:10293000C31A0F4AA2FB03131B090B2B14D80D4A11
:1029400012783AB10C4A127812F0FF0F02D0FFF75A
:102950007DFB08BD72B6094A4FF0004121FA03F32E
:1029600011681943116062B608BD00BF0084FF1FE3
:10297000398EE3383A97FF1F4497FF1F3C8CFF1FA7
:1029800010B5134B1B6853B9124B1B7813F0FF0F94
:1029900018D00320FFF726FB0D4B1860A8B10C4B95
:1029A000186843885A1C03441C7A03889A4206D349
:1029B000FFF7BCFF0022064B1A60204610BD428084
:1029C000204610BD4FF0FF3010BD4FF0FF3010BD5E
:1029D0005097FF1F4497FF1F08B50D4B1B6883B925
:1029E0000C4B1B7813F0FF0F08D00320FFF7FAFA07
:1029F000074B186028B94FF0FF3008BD4FF0FF308B
:102A000008BD034B1B685A881344187A08BD00BFE1
:102A10005097FF1F4497FF1F044B9888044B1B6877
:102A20001BB11A885B88D31A184470475C99FF1F42
:102A30005097FF1F2DE9F04704460122374B1A70CB
:102A40000E46002964D0DFF8E080DFF8E0909A4677
:102A5000334FD8F8003083BB99F8003013F0FF0FE4
:102A600006D100222D4B1A704FF0FF30BDE8F087E1
:102A70004AF2F9250420FFF7D3FA07280AD80123E0
:102A80008AF80030FFF732FFC8F80000A8B9002329
:102A90008AF80030013D01D03B7833B10122204B50
:102AA0001A704FF0FF30BDE8F08700F041F999F857
:102AB000003013F0FF0FDDD1D3E700233B70D8F8CF
:102AC00000104A88C2F14005AE4238BF354602F1D7
:102AD00008030B442A444A80761B3DB1254414F870
:102AE000012B03F8012BAC42F9D100E025464B88BD
:102AF0003F2B07D940230B800420FFF7EBFA00237C
:102B0000C8F800300522074B1A700EB12C46A0E71A
:102B10000020024B1870BDE8F08700BF4797FF1FE9
:102B20004C97FF1F4697FF1F4897FF1F4497FF1FB3
:102B300000B583B002AB03F8010D18460121FFF781
:102B400079FF03B05DF804FB10B5144B1B7813F04C
:102B5000FF0F21D00122124B1A70124B196851B18C
:102B60000024114B1C704B880B800420FFF7B2FA35
:102B70000C4B1C600DE0FFF7B9FE014630B100229E
:102B8000094B1A700420FFF7A5FA02E00122064B58
:102B90001A700022024B1A7010BD00BF4497FF1F2D
:102BA0004797FF1F4897FF1F4697FF1F08B50E4B1B
:102BB0001B7813F0FF0F16D10C4B196841B14B88ED
:102BC0000B800420FFF786FA0022084B1A6008BD2C
:102BD000FFF78CFE014618B10420FFF77BFA08BD11
:102BE0000122034B1A7008BD4797FF1F4897FF1F2C
:102BF0004697FF1F03790F2B10D8094A137072B63E
:102C0000084B0279012101FA02F2198821EA020235
:102C10001A8062B61023037100230360704700BF5F
:102C20001A8000405697FF1F08B5FEF7E7F9FEF738
:102C30003BFA00F07DF8FAE708B502F083FA08BD28
:102C400000B583B0054B1B88ADF8043003685B68A2
:102C500001A90222984703B05DF804FBA85B0000BD
:102C6000F0B58BB0164622B903681B68C9B2984705
:102C70002FE0012A08BF0A2621B930228DF825202D
:102C8000212417E021243746B1FBF6F506FB151584
:102C9000EDB22246092D94BF30353735EDB20DF136
:102CA000280E724402F8245CB1FBF7F111B1013C2B
:102CB000E4B2E9E733B1013CE4B20AAB23442D228C
:102CC00003F8242C03685B6801A92144C4F12202A3
:102CD00098470BB0F0BD00BF08B5FFF79DFE08BDDB
:102CE00008B5FFF74DFE08BD08B5FFF775FE08BD36
:102CF00008B5FFF729FF08BD08B50846FFF718FF1C
:102D000008BD00BF08B508461146FFF793FE08BD91
:102D1000704700BF044B00221A714FF47A7199601A
:102D20001A73024A1A6070475897FF1FB85B000079
:102D300008B50F4B1B78CBB901220D4B1A70FFF76A
:102D40006BFE08B1FFF7E4FF00F024FA08B101F0D0
:102D500077F900F01DFD08B101F008FA00F0BCFFA2
:102D600008B101F099FA0022014B1A7008BD00BFAA
:102D70006897FF1F30B40023B0FBF2F402FB140489
:102D80001D46092C94BF30343734E4B2CC54B0FB28
:102D9000F2F008B10133EFE70D4400226A7093426C
:102DA00007DD885CCC5C8C54C8540132013B9A42EC
:102DB000F7DB084630BC7047194B1A6842F4806252
:102DC0001A600023174A1370174A1370174A1370BA
:102DD000174A1370174A137040F21332164B1A60D9
:102DE0004FF4517204331A60C0F34432134B1A701B
:102DF000C0F347125A7000F01F00987204229A70B4
:102E00000221D9745A7588221A743C22DA70402241
:102E10000B4B1A704FF40052A3F229331A6070471B
:102E200034800440F497FF1F7197FF1FFC97FF1F2A
:102E3000F597FF1F7097FF1F40A0044000A00640B9
:102E40002DE400E0164B9B7803F0EC0300F0030246
:102E5000134310F0040F18BF43F01003104A93708F
:102E600000F00F03042B04D11346927942F0400284
:102E70009A710B4B5A7902F0EF0210F0100F18BF45
:102E800042F01002064B5A719B7903F0EF0310F0E9
:102E9000200F18BF43F01003014A9371704700BF21
:102EA00000A0064010B5144B1B6813F4806F21D0AE
:102EB000124B1B7813F0FF0F06D0104CFFF738FFB2
:102EC000237813F0FF0FF9D14FF400520C4B1A6026
:102ED00000230C4AD37040F203120B490A600431FC
:102EE0000A600A4A13700A4A13700A4B1B680BB136
:102EF00001221A7010BD00BF348004407097FF1F7C
:102F000084E100E000A0064040A00440F497FF1FC9
:102F10007197FF1F6C97FF1F10B50446094A13787D
:102F200013F0FF0FFBD120460121FEF783FF20465F
:102F30000021FEF75BFF044B53F83420034B1A606B
:102F400010BD00BF7097FF1F985A0000F897FF1F31
:102F500010B50D4B1B6813F4806F12D021280CD8CC
:102F60000A4C0B4B53F8303023600121FEF762FF0F
:102F7000236800221A70012010BD0020034B186046
:102F800010BD002010BD00BF348004406C97FF1FAF
:102F9000985A0000114B1B6813F4806F1BD0122845
:102FA00004D140F202320E4B1A600DE0142804D115
:102FB00040F202320B4B1A6006E00B4B5A7B02F0D8
:102FC000FE025A7300207047074B5A7B42F0010201
:102FD0005A73012070470020704700BF34800440BE
:102FE0000CA0044014C0044000A006402DE9F041AC
:102FF00007461F4B1B6813F4806F37D01D4B1B68AF
:103000000BB101221A701C4B1C780134402C28BFD4
:1030100000241A4D1A4EDFF86C8017E0FEF7EEFC24
:1030200040280FDC337913F0800F0FD02B78013359
:10303000402B28BF002318F80320D2B2F271DBB274
:103040002B7003E0FF2801DDFFF772FE2B78DBB267
:103050009C42E3D0FFB20B4B1F5501220A4B1A7062
:10306000E4B2054B1C70BC22054BDA70BDE8F08160
:1030700034800440F897FF1FFC97FF1FF597FF1F50
:1030800000A006407497FF1F7097FF1F2DE9F84FAF
:103090000746284B1B6813F4806F49D0264B1B68EA
:1030A0000BB101221A7007EB010B5F453DD2DFF82F
:1030B0009890224EDFF88C80DFF890A099F80040BD
:1030C0000134402C28BF00243578EDB2A54220D130
:1030D000BC2388F80330FEF791FC402811DC98F8F7
:1030E000043013F0800F10D033780133402B28BF09
:1030F00000231AF80320D2B288F80720DBB233701D
:1031000003E0FF2801DDFFF713FE3378DBB29D42B9
:10311000E1D017F8013B0AF804300122084B1A707D
:10312000E4B289F800405F45C8D1BC22054BDA7093
:10313000BDE8F88F34800440F897FF1FF597FF1F14
:103140007097FF1F00A00640FC97FF1F7497FF1F9A
:1031500010B5064B1B7813F0FF0F06D0034CFFF79A
:10316000E7FD237813F0FF0FF9D110BD7097FF1F13
:10317000064B1B78DBB2064A1278D2B293422CBFC0
:103180003F3202F1FF32D01A704700BFFC97FF1F99
:10319000F597FF1F054B1878C0B2054B1B78DBB2C3
:1031A000984238BF4030C01A704700BFF497FF1FE5
:1031B0007197FF1F10B4184B1A78D2B2174B1B78B7
:1031C000DBB29A4218D001333F2B18D81449C85C9F
:1031D000C0B2DCB211490C7012490968C9B19A42F7
:1031E00003D300E00023D31A01E04032D31A1A2B94
:1031F0000FDC00230B700CE04FF0FF3009E0084BB0
:103200001878C0B20021054B1970064B19680029C7
:10321000E8D15DF8044B7047F497FF1F7197FF1FCB
:10322000B497FF1F6C97FF1F094B1A78D2B2094B56
:103230001B78DBB29A4207D00133402B28BF002312
:10324000054AD05CC0B270474FF0FF30704700BFF6
:10325000F497FF1F7197FF1FB497FF1F0D4B1B685B
:1032600013F4806F14D00C4BDA7802F0CB02DA70D2
:1032700040225A74DA7842F03402DA70074B1A7836
:10328000D2B2074B1A70074B1B680BB100221A70A1
:10329000704700BF3480044000A006407197FF1FB4
:1032A000F497FF1F6C97FF1F70B43D4B1B7913F011
:1032B000300F33D072B63A4B9B7D03F0FF022BB92F
:1032C000374BDA7940225A7462B627E062B6354B42
:1032D0001978C9B2344B1C78E4B2314D334EEB79D6
:1032E000D8B24B1C402B28BF0023A3421CBFF05474
:1032F0001946531E13F0FF02F1D1CAB2294B1A70BE
:103300002B4B1B6853B1A1422EBFC4EB0101C4F18A
:10331000400409192729C4BF01221A70204BDA780A
:10332000D2B212F0800F27D01B7913F0800F23D078
:10333000204B1C78E4B2204B1B78DBB29C4210D0AF
:1033400017491E4D01E0A3420BD00133402B28BF8B
:1033500000230879E85CC0B2C871087DC0B20728B4
:10336000F1D9DBB214490B700D4B1B7913F0800FB0
:1033700002D07C210A4BD97012F0400F0ED0084BBE
:103380001B7913F0400F09D000220D4B1A700D4B22
:103390001B6803B11A703C22014BDA7070BC704795
:1033A00000A00640F497FF1F7197FF1FB497FF1FFF
:1033B0006C97FF1FFC97FF1FF597FF1F7497FF1F68
:1033C0007097FF1FF897FF1F194B1A6842F40062AD
:1033D0001A600023174A1370174A1370174A1370A4
:1033E000174A1370174A137040F21332164B1A60C3
:1033F0004FF4517204331A60C0F34432134B1A7005
:10340000C0F347125A7000F01F00987204229A709D
:103410000221D9745A7588221A743C22DA7040222B
:103420000B4B1A704FF40042A3F22B331A60704713
:10343000348004407098FF1F0598FF1F7898FF1F85
:103440007198FF1F0498FF1F0CB0044000B00640A5
:103450002FE400E0164B9B7803F0EC0300F003022E
:10346000134310F0040F18BF43F01003104A937079
:1034700000F00F03042B04D11346927942F040026E
:103480009A710B4B5A7902F0EF0210F0100F18BF2F
:1034900042F01002064B5A719B7903F0EF0310F0D3
:1034A000200F18BF43F01003014A9371704700BF0B
:1034B00000B0064010B5144B1B6813F4006F21D008
:1034C000124B1B7813F0FF0F06D0104CFFF730FCA7
:1034D000237813F0FF0FF9D14FF400420C4B1A6020
:1034E00000230C4AD37040F203120B490A600431E6
:1034F0000A600A4A13700A4A13700A4B1B680BB120
:1035000001221A7010BD00BF348004400498FF1FD0
:1035100084E100E000B006400CB004407098FF1F4A
:103520000598FF1F0098FF1F10B50446094A13783D
:1035300013F0FF0FFBD120460121FEF77BFC204654
:103540000021FEF753FC044B53F83420034B1A6060
:1035500010BD00BF0498FF1F985A00007498FF1F09
:1035600010B50D4B1B6813F4006F12D021280CD836
:103570000A4C0B4B53F8303023600121FEF75AFC04
:10358000236800221A70012010BD0020034B186030
:1035900010BD002010BD00BF348004400098FF1F04
:1035A000985A00000D4B1B6813F4006F13D01728B6
:1035B0000AD140F202320A4B1A600A4B5A7B42F09F
:1035C00001025A7301207047064B5A7B02F0FE023B
:1035D0005A73002070470020704700BF34800440B9
:1035E00008B0044000B006402DE9F04107461F4BEB
:1035F0001B6813F4006F37D01D4B1B680BB1012201
:103600001A701C4B1C780134282C28BF00241A4D3A
:103610001A4EDFF86C8017E0FEF7F0F940280FDC57
:10362000337913F0800F0FD02B780133282B28BF6C
:10363000002318F80320D2B2F271DBB22B7003E042
:10364000FF2801DDFFF774FB2B78DBB29C42E3D04F
:10365000FFB20B4B1F5501220A4B1A70E4B2054B07
:103660001C70BC22054BDA70BDE8F0813480044048
:103670007498FF1F7898FF1F7198FF1F00B00640D5
:103680000898FF1F0498FF1F2DE9F84F0746284BA5
:103690001B6813F4006F49D0264B1B680BB1012245
:1036A0001A7007EB010B5F453DD2DFF89890224E70
:1036B000DFF88C80DFF890A099F800400134282CC6
:1036C00028BF00243578EDB2A54220D1BC2388F86C
:1036D0000330FEF793F9402811DC98F8043013F01A
:1036E000800F10D033780133282B28BF00231AF81D
:1036F0000320D2B288F80720DBB2337003E0FF2842
:1037000001DDFFF715FB3378DBB29D42E1D017F8FE
:10371000013B0AF804300122084B1A70E4B289F820
:1037200000405F45C8D1BC22054BDA70BDE8F88F78
:10373000348004407498FF1F7198FF1F0498FF1F86
:1037400000B006407898FF1F0898FF1F10B5064B81
:103750001B7813F0FF0F06D0034CFFF7E9FA23782C
:1037600013F0FF0FF9D110BD0498FF1F064B1B7813
:10377000DBB2064A1278D2B293422CBF273202F152
:10378000FF32D01A704700BF7898FF1F7198FF1F53
:10379000054B1878C0B2054B1B78DBB2984238BF96
:1037A0004030C01A704700BF7098FF1F0598FF1F78
:1037B00010B4184B1A78D2B2174B1B78DBB29A426E
:1037C00018D001333F2B18D81449C85CC0B2DCB202
:1037D00011490C7012490968C9B19A4203D300E03B
:1037E0000023D31A01E04032D31A1A2B0FDC002336
:1037F0000B700CE04FF0FF3009E0084B1878C0B2B6
:103800000021054B1970064B19680029E8D15DF8B5
:10381000044B70477098FF1F0598FF1F3098FF1FDB
:103820000098FF1F094B1A78D2B2094B1B78DBB204
:103830009A4207D00133402B28BF0023054AD05CB1
:10384000C0B270474FF0FF30704700BF7098FF1F45
:103850000598FF1F3098FF1F0D4B1B6813F4006F76
:1038600014D00C4BDA7802F0CB02DA7040225A7492
:10387000DA7842F03402DA70074B1A78D2B2074B8A
:103880001A70074B1B680BB100221A70704700BFFB
:103890003480044000B006400598FF1F7098FF1F59
:1038A0000098FF1F70B43D4B1B7913F0300F33D0DD
:1038B00072B63A4B9B7D03F0FF022BB9374BDA7996
:1038C00040225A7462B627E062B6354B1978C9B205
:1038D000344B1C78E4B2314D334EEB79D8B24B1CEB
:1038E000402B28BF0023A3421CBFF0541946531E8F
:1038F00013F0FF02F1D1CAB2294B1A702B4B1B688F
:1039000053B1A1422EBFC4EB0101C4F14004091917
:103910002729C4BF01221A70204BDA78D2B212F0E4
:10392000800F27D01B7913F0800F23D0204B1C78F9
:10393000E4B2204B1B78DBB29C4210D017491E4DDD
:1039400001E0A3420BD00133282B28BF00230879C4
:10395000E85CC0B2C871087DC0B20728F1D9DBB2FB
:1039600014490B700D4B1B7913F0800F02D07C2192
:103970000A4BD97012F0400F0ED0084B1B7913F090
:10398000400F09D000220D4B1A700D4B1B6803B17C
:103990001A703C22014BDA7070BC704700B00640D0
:1039A0007098FF1F0598FF1F3098FF1F0098FF1F9A
:1039B0007898FF1F7198FF1F0898FF1F0498FF1F3A
:1039C0007498FF1F174B1A6842F480521A60002344
:1039D000154A1370154A1370154A1370154A13705F
:1039E000154A137040F21331144A11604FF45171AB
:1039F00004321160C0F34431114A1170C0F3471111
:103A0000517000F01F009072937013742C23D370C8
:103A100040220C4B1A704FF40032A3F22D331A607F
:103A2000704700BF34800440EC98FF1F8198FF1F4F
:103A3000F498FF1FED98FF1F8098FF1F08C00440F7
:103A400000C0064031E400E0164B9B7803F0EC0325
:103A500000F00302134310F0040F18BF43F01003EB
:103A6000104A937000F00F03042B04D1134692798F
:103A700042F040029A710B4B5A7902F0EF0210F0BB
:103A8000100F18BF42F01002064B5A719B7903F0D9
:103A9000EF0310F0200F18BF43F01003014A937199
:103AA000704700BF00C0064010B5144B1B6813F4EC
:103AB000805F21D0124B1B7813F0FF0F06D0104C03
:103AC000FFF736F9237813F0FF0FF9D14FF40032E6
:103AD0000C4B1A6000230C4AD37040F203120B49BE
:103AE0000A6004310A600A4A13700A4A13700A4BCA
:103AF0001B680BB101221A7010BD00BF3480044056
:103B00008098FF1F84E100E000C0064008C0044028
:103B1000EC98FF1F8198FF1F7C98FF1F10B504468B
:103B2000094A137813F0FF0FFBD120460121FEF75D
:103B300081F920460021FEF759F9044B53F834204F
:103B4000034B1A6010BD00BF8098FF1F985A0000F9
:103B5000F098FF1F10B50D4B1B6813F4805F12D057
:103B600021280CD80A4C0B4B53F83030236001212C
:103B7000FEF760F9236800221A70012010BD0020B2
:103B8000034B186010BD002010BD00BF34800440FE
:103B90007C98FF1F985A00000D4B1B6813F4805F40
:103BA00013D00E280AD140F202320A4B1A600A4B97
:103BB0005A7B42F001025A7301207047064B5A7B30
:103BC00002F0FE025A73002070470020704700BFC9
:103BD0003480044004C0044000C006402DE9F04198
:103BE00007461F4B1B6813F4805F37D01D4B1B68C3
:103BF0000BB101221A701C4B1C780134282C28BFF1
:103C000000241A4D1A4EDFF86C8017E0FDF7F6FE1F
:103C100040280FDC337913F0800F0FD02B7801335D
:103C2000282B28BF002318F80320D2B2F271DBB290
:103C30002B7003E0FF2801DDFFF77AF82B78DBB269
:103C40009C42E3D0FFB20B4B1F5501220A4B1A7066
:103C5000E4B2054B1C70AC22054BDA70BDE8F08174
:103C600034800440F098FF1FF498FF1FED98FF1F69
:103C700000C006408498FF1F8098FF1F38B5054696
:103C80000C4629B115F8010BFFF7A8FF013CF9D14B
:103C900038BD00BF10B5064B1B7813F0FF0F06D0E0
:103CA000034CFFF745F8237813F0FF0FF9D110BD4F
:103CB0008098FF1F064B1B78DBB2064A1278D2B2FF
:103CC00093422CBF273202F1FF32D01A704700BF57
:103CD000F498FF1FED98FF1F054B1878C0B2054BF5
:103CE0001B78DBB2984238BF4030C01A704700BF23
:103CF000EC98FF1F8198FF1F10B4184B1A78D2B2AE
:103D0000174B1B78DBB29A4218D001333F2B18D8DF
:103D10001449C85CC0B2DCB211490C701249096880
:103D2000C9B19A4203D300E00023D31A01E0403224
:103D3000D31A1A2B0FDC00230B700CE04FF0FF306E
:103D400009E0084B1878C0B20021054B1970064BEA
:103D500019680029E8D15DF8044B7047EC98FF1F03
:103D60008198FF1FAC98FF1F7C98FF1F094B1A78A2
:103D7000D2B2094B1B78DBB29A4207D00133402BF9
:103D800028BF0023054AD05CC0B270474FF0FF3017
:103D9000704700BFEC98FF1F8198FF1FAC98FF1F72
:103DA000054B1A78D2B2054B1A70054B1B680BB144
:103DB00000221A70704700BF8198FF1FEC98FF1F08
:103DC0007C98FF1F2F4B1B7913F0200F23D02D4B16
:103DD000DB79D9B22C4B1B780133402B28BF002351
:103DE0002A4A1278D2B29A4204D0294AD154D9B27E
:103DF000254A1170274A116869B1274A1278D2B250
:103E000093422EBFC2EB0303C2F140029B18272B43
:103E1000C4BF01230B701B4BDB78DBB213F0800FA8
:103E20001CD0184A127912F0800F17D01B4A117853
:103E3000C9B2194A1278D2B2914203D16C21114A07
:103E4000D1700BE00132282A28BF00221449885C77
:103E5000C0B20C49C871D2B20F490A7013F0400FBA
:103E60000ED0084B1B7913F0400F09D000220D4BE8
:103E70001A700D4B1B6803B11A702C22014BDA70BB
:103E8000704700BF00C00640EC98FF1F8198FF1FDD
:103E9000AC98FF1F7C98FF1FED98FF1FF498FF1F41
:103EA0008498FF1F8098FF1FF098FF1F00B585B012
:103EB00072B61B4B70221A7041211A4A11700F21E1
:103EC000013A117080221A701A46137813F0800F8D
:103ED000FBD0154B186862B6144B98429CBF00EBA0
:103EE0008000400001A90A22FEF744FF9DF804303B
:103EF0007BB908E001A9595C31B1918002320133EC
:103F00000A2BF7D100E0002301335B00084A13704D
:103F100003E0074A53800123ECE705B05DF804FB9A
:103F20000000024007000240080002407F9698000F
:103F3000CC8CFF1F08B503681B68C9B2984708BD41
:103F400008B503681B68C9B2984708BD08B503687F
:103F50001B68C9B2984708BD08B503681B68C9B299
:103F6000984708BD08B54B0803F1376000F5D83015
:103F7000B0FBF1F0FEF720FF08BD00BF10B51446FE
:103F80004B0803F1376000F5D830B0FBF1F0FEF7D5
:103F900013FF2046FEF756FF10BD00BF08B5FEF721
:103FA00081FF08BD08B50846FEF7B6FF08BD00BF93
:103FB00008B50846FEF7CCFF003018BF012008BD49
:103FC00008B50846FEF7E6FF003018BF012008BD1F
:103FD00008B5FFF7DFF808BD08B5FFF725F908BDFC
:103FE00008B5FFF7E7F808BD08B5FFF7B1F808BD59
:103FF00008B5FFF733F908BD08B5FFF7B9F808BDF4
:1040000008B50846FEF7F2FF012008BD08B50846CE
:10401000FEF7ECFF012008BD10B514460846114616
:10402000FFF734F8204610BD38B50D46084601F0BC
:1040300043FB044628462146FFF728F8204638BDB2
:10404000704700BF044B00221A714FF47A719960D7
:104050001A73024A1A607047F898FF1F305C00001C
:1040600008B503681B68C9B2984708BD08B503685E
:104070001B68C9B2984708BD08B503681B68C9B278
:10408000984708BD08B503681B68C9B2984708BDC2
:1040900008B54B0803F1376000F5D830B0FBF1F0FC
:1040A000FFF792F908BD00BF10B514464B0803F1A5
:1040B000376000F5D830B0FBF1F0FFF785F9204606
:1040C000FFF7C8F910BD00BF08B5FFF7F3F908BD49
:1040D00008B50846FFF728FA08BD00BF08B508462E
:1040E000FFF73EFA003018BF012008BD08B50846AA
:1040F000FFF758FA003018BF012008BD08B5FFF7D8
:1041000047FB08BD08B5FFF78DFB08BD08B5FFF7F5
:104110004FFB08BD08B5FFF719FB08BD08B5FFF751
:104120009BFB08BD08B5FFF721FB08BD08B5084695
:10413000FFF75AFA012008BD08B50846FFF754FA00
:10414000012008BD10B5144608461146FFF79CFA39
:10415000204610BD38B50D46084601F0ADFA0446BC
:1041600028462146FFF790FA204638BD704700BF29
:10417000044B00221A714FF47A7199601A73024A43
:104180001A6070470899FF1F885C000008B5036833
:104190001B68C9B2984708BD08B503681B68C9B257
:1041A000984708BD08B503681B68C9B2984708BDA1
:1041B00008B503681B68C9B2984708BD08B54B0825
:1041C00003F1B76000F55840B0FBF1F0FFF7FAFBE0
:1041D00008BD00BF10B514464B0803F1B76000F5E9
:1041E0005840B0FBF1F0FFF7EDFB2046FFF72CFC49
:1041F00010BD00BF08B5FFF757FC08BD08B508465D
:10420000FFF78CFC08BD00BF08B50846FFF7A2FC0D
:10421000003018BF012008BD08B50846FFF7BCFCF8
:10422000003018BF012008BD08B5FFF755FD08BDD7
:1042300008B5FFF79BFD08BD08B5FFF75DFD08BD9C
:1042400008B5FFF727FD08BD08B5FFF7A9FD08BDB4
:1042500008B5FFF72FFD08BD08B50846FFF7BEFCFF
:10426000012008BD08B50846FFF7B8FC012008BDCD
:1042700010B5144608461146FFF700FD204610BD54
:1042800038B50D46084601F017FA0446284621467F
:10429000FFF7F4FC204638BD704700BF044B0022F6
:1042A0001A714FF47A7199601A73024A1A60704752
:1042B0001899FF1FE05C000081F0004102E000BFA0
:1042C00083F0004330B54FEA41044FEA430594EAD6
:1042D000050F08BF90EA020F1FBF54EA000C55EA11
:1042E000020C7FEA645C7FEA655C00F0E2804FEAE2
:1042F0005454D4EB5555B8BF6D420CDD2C4480EAC4
:10430000020281EA030382EA000083EA010180EAF3
:10431000020281EA0303362D88BF30BD11F0004F41
:104320004FEA01314FF4801C4CEA113102D0404277
:1043300061EB410113F0004F4FEA03334CEA1333B2
:1043400002D0524263EB430394EA050F00F0A780CA
:10435000A4F10104D5F1200E0DDB02FA0EFC22FAC5
:1043600005F2801841F1000103FA0EF2801843FAB9
:1043700005F359410EE0A5F120050EF1200E012AAA
:1043800003FA0EFC28BF4CF0020C43FA05F3C018E8
:1043900051EBE37101F0004507D54FF0000EDCF161
:1043A000000C7EEB00006EEB0101B1F5801F1BD30A
:1043B000B1F5001F0CD349085FEA30004FEA3C0C0E
:1043C00004F101044FEA445212F5800F80F09A8004
:1043D000BCF1004F08BF5FEA500C50F1000041EB08
:1043E000045141EA050130BD5FEA4C0C404141EB0C
:1043F000010111F4801FA4F10104E9D191F0000F33
:1044000004BF01460020B1FA81F308BF2033A3F1B5
:104410000B03B3F120020CDA0C3208DD02F1140CAC
:10442000C2F10C0201FA0CF021FA02F10CE002F1E7
:104430001402D8BFC2F1200C01FA02F120FA0CFCE0
:10444000DCBF41EA0C019040E41AA2BF01EB045129
:10445000294330BD6FEA04041F3C1CDA0C340EDC27
:1044600004F11404C4F1200220FA04F001FA02F36A
:1044700040EA030021FA04F345EA030130BDC4F128
:104480000C04C4F1200220FA02F001FA04F340EA1D
:104490000300294630BD21FA04F0294630BD94F0CE
:1044A000000F83F4801306BF81F480110134013DB5
:1044B0004EE77FEA645C18BF7FEA655C29D094EA26
:1044C000050F08BF90EA020F05D054EA000C04BFA4
:1044D0001946104630BD91EA030F1EBF002100208F
:1044E00030BD5FEA545C05D14000494128BF41F02E
:1044F000004130BD14F580043CBF01F5801130BD92
:1045000001F0004545F0FE4141F470014FF000001C
:1045100030BD7FEA645C1ABF194610467FEA655CCD
:104520001CBF0B46024650EA013406BF52EA03356F
:1045300091EA030F41F4002130BD00BF90F0000F5D
:1045400004BF0021704730B54FF4806404F1320499
:104550004FF000054FF0000150E700BF90F0000F52
:1045600004BF0021704730B54FF4806404F1320479
:1045700010F0004548BF40424FF000013EE700BF49
:1045800042004FEAE2014FEA31014FEA02701FBFD9
:1045900012F07F4393F07F4F81F06051704792F0AB
:1045A000000F14BF93F07F4F704730B54FF4607425
:1045B00001F0004521F0004120E700BF50EA010270
:1045C00008BF704730B54FF000050AE050EA01021D
:1045D00008BF704730B511F0004502D5404261EB8D
:1045E00041014FF4806404F132045FEA915C3FF4CE
:1045F000DCAE4FF003025FEADC0C18BF03325FEA67
:10460000DC0C18BF033202EBDC02C2F1200300FA1B
:1046100003FC20FA02F001FA03FE40EA0E0021FA40
:1046200002F11444C1E600BF70B54FF0FF0C4CF42A
:10463000E06C1CEA11541DBF1CEA135594EA0C0FE0
:1046400095EA0C0F00F0DEF82C4481EA030621EA1B
:104650004C5123EA4C5350EA013518BF52EA033556
:1046600041F4801143F4801338D0A0FB02CE4FF008
:104670000005E1FB02E506F00042E0FB03E54FF038
:104680000006E1FB03569CF0000F18BF4EF0010E30
:10469000A4F1FF04B6F5007F64F5407404D25FEA2C
:1046A0004E0E6D4146EB060642EAC62141EA5551DF
:1046B0004FEAC52040EA5E504FEACE2EB4F1FD0C21
:1046C00088BFBCF5E06F1ED8BEF1004F08BF5FEA9F
:1046D000500E50F1000041EB045170BD06F0004651
:1046E00046EA010140EA020081EA0301B4EB5C04FE
:1046F000C2BFD4EB0C0541EA045170BD41F48011F6
:104700004FF0000E013C00F3AB8014F1360FDEBF1A
:10471000002001F0004170BDC4F10004203C35DAF6
:104720000C341BDC04F11404C4F1200500FA05F379
:1047300020FA04F001FA05F240EA020001F000421A
:1047400021F0004110EBD37021FA04F642EB060190
:104750005EEA430E08BF20EAD37070BDC4F10C04BA
:10476000C4F1200500FA04F320FA05F001FA04F27E
:1047700040EA020001F0004110EBD37041F100016A
:104780005EEA430E08BF20EAD37070BDC4F1200575
:1047900000FA05F24EEA020E20FA04F301FA05F2DD
:1047A00043EA020321FA04F001F0004121FA04F285
:1047B00020EA020000EBD3705EEA430E08BF20EA55
:1047C000D37070BD94F0000F0FD101F0004640008F
:1047D00041EB010111F4801F08BF013CF7D041EA11
:1047E000060195F0000F18BF704703F00046520015
:1047F00043EB030313F4801F08BF013DF7D043EAE6
:104800000603704794EA0C0F0CEA135518BF95EA9B
:104810000C0F0CD050EA410618BF52EA4306D1D122
:1048200081EA030101F000414FF0000070BD50EA41
:10483000410606BF1046194652EA430619D094EACB
:104840000C0F02D150EA013613D195EA0C0F05D1B5
:1048500052EA03361CBF104619460AD181EA030109
:1048600001F0004141F0FE4141F470014FF00000C1
:1048700070BD41F0FE4141F4780170BD70B54FF05C
:10488000FF0C4CF4E06C1CEA11541DBF1CEA1355DC
:1048900094EA0C0F95EA0C0F00F0A7F8A4EB0504BE
:1048A00081EA030E52EA03354FEA013100F08880B5
:1048B0004FEA03334FF0805545EA131343EA12637E
:1048C0004FEA022245EA111545EA10654FEA002633
:1048D0000EF000419D4208BF964244F1FD0404F5EC
:1048E000407402D25B084FEA3202B61A65EB030548
:1048F0005B084FEA32024FF480104FF4002CB6EB05
:10490000020E75EB030E22BFB61A754640EA0C0084
:104910005B084FEA3202B6EB020E75EB030E22BFC4
:10492000B61A754640EA5C005B084FEA3202B6EB05
:10493000020E75EB030E22BFB61A754640EA9C00C4
:104940005B084FEA3202B6EB020E75EB030E22BF94
:10495000B61A754640EADC0055EA060E18D04FEA52
:10496000051545EA16754FEA06164FEAC30343EAF2
:1049700052734FEAC2025FEA1C1CC0D111F4801FBF
:104980000BD141EA00014FF000004FF0004CB6E7B8
:1049900011F4801F04BF01430020B4F1FD0C88BF57
:1049A000BCF5E06F3FF6AFAEB5EB030C04BFB6EB62
:1049B000020C5FEA500C50F1000041EB045170BD55
:1049C0000EF0004E4EEA113114EB5C04C2BFD4EB82
:1049D0000C0541EA045170BD41F480114FF0000E06
:1049E000013C90E645EA060E8DE60CEA135594EA82
:1049F0000C0F08BF95EA0C0F3FF43BAF94EA0C0F85
:104A00000AD150EA01347FF434AF95EA0C0F7FF4F9
:104A100025AF104619462CE795EA0C0F06D152EA4D
:104A200003353FF4FDAE1046194622E750EA410631
:104A300018BF52EA43067FF4C5AE50EA41047FF442
:104A40000DAF52EA43057FF4EBAE12E74FEA4102A5
:104A500012F5001215D211D56FF47873B3EB6252D0
:104A600012D94FEAC12343F0004343EA505311F0F7
:104A7000004F23FA02F018BF404270474FF0000089
:104A8000704750EA013005D111F0004008BF6FF0C7
:104A9000004070474FF00000704700BF4A0011D23D
:104AA00012F5001211D20DD56FF47873B3EB625288
:104AB0000ED44FEAC12343F0004343EA505323FA94
:104AC00002F070474FF00000704750EA013002D109
:104AD0004FF0FF3070474FF00000704780F000400B
:104AE00002E000BF81F0004142001FBF5FEA4103C6
:104AF00092EA030F7FEA226C7FEA236C6AD04FEAC6
:104B00001262D2EB1363C1BFD2184140484041400A
:104B1000B8BF5B42192B88BF704710F0004F40F4BC
:104B2000000020F07F4018BF404211F0004F41F4D8
:104B3000000121F07F4118BF494292EA030F3FD0A4
:104B4000A2F1010241FA03FC10EB0C00C3F12003B7
:104B500001FA03F100F0004302D5494260EB400046
:104B6000B0F5000F13D3B0F1807F06D340084FEAB1
:104B7000310102F10102FE2A51D2B1F1004F40EBA6
:104B8000C25008BF20F0010040EA0300704749000E
:104B900040EB000010F4000FA2F10102EDD1B0FAD9
:104BA00080FCACF1080CB2EB0C0200FA0CF0AABFCE
:104BB00000EBC25052421843BCBFD040184370476C
:104BC00092F0000F81F4000106BF80F40000013272
:104BD000013BB5E74FEA41037FEA226C18BF7FEA49
:104BE000236C21D092EA030F04D092F0000F08BF8B
:104BF0000846704790EA010F1CBF0020704712F072
:104C00007F4F04D1400028BF40F00040704712F1B0
:104C100000723CBF00F50000704700F0004343F015
:104C2000FE4040F4000070477FEA226216BF08464B
:104C30007FEA23630146420206BF5FEA412390EA0E
:104C4000010F40F4800070474FF0000304E000BF04
:104C500010F0004348BF40425FEA000C08BF7047B5
:104C600043F0964301464FF000001CE050EA010279
:104C700008BF70474FF000030AE000BF50EA01028E
:104C800008BF704711F0004302D5404261EB41017B
:104C90005FEA010C02BF84460146002043F0B643A0
:104CA00008BFA3F18053A3F50003BCFA8CF2083AC5
:104CB000A3EBC25310DB01FA02FC634400FA02FCCE
:104CC000C2F12002BCF1004F20FA02F243EB0200D5
:104CD00008BF20F00100704702F1200201FA02FC37
:104CE000C2F1200250EA4C0021FA02F243EB02002A
:104CF00008BF20EADC7070474FF0FF0C1CEAD0526E
:104D00001EBF1CEAD15392EA0C0F93EA0C0F6FD02E
:104D10001A4480EA010C400218BF5FEA41211ED00C
:104D20004FF0006343EA501043EA5111A0FB0131F8
:104D30000CF00040B1F5000F3EBF490041EAD371CD
:104D40005B0040EA010062F17F02FD2A1DD8B3F149
:104D5000004F40EBC25008BF20F00100704790F0B8
:104D6000000F0CF0004C08BF49024CEA502040EA0A
:104D700051207F3AC2BFD2F1FF0340EAC2507047D0
:104D800040F400004FF00003013A5DDC12F1190F0E
:104D9000DCBF00F000407047C2F10002410021FA80
:104DA00002F1C2F1200200FA02FC5FEA310040F198
:104DB000000053EA4C0308BF20EADC70704792F011
:104DC000000F00F0004C02BF400010F4000F013A49
:104DD000F9D040EA0C0093F0000F01F0004C02BF44
:104DE000490011F4000F013BF9D041EA0C018FE7B3
:104DF0000CEAD15392EA0C0F18BF93EA0C0F0AD0B9
:104E000030F0004C18BF31F0004CD8D180EA0100DE
:104E100000F00040704790F0000F17BF90F0004F77
:104E2000084691F0000F91F0004F14D092EA0C0F59
:104E300001D142020FD193EA0C0F03D14B0218BFEC
:104E4000084608D180EA010000F0004040F0FE4032
:104E500040F40000704740F0FE4040F440007047CE
:104E60004FF0FF0C1CEAD0521EBF1CEAD15392EA4D
:104E70000C0F93EA0C0F69D0A2EB030280EA010C3D
:104E800049024FEA402037D04FF0805343EA1111D6
:104E900043EA10130CF000408B4238BF5B0042F134
:104EA0007D024FF4000C8B4224BF5B1A40EA0C00D9
:104EB000B3EB510F24BFA3EB510340EA5C00B3EB0B
:104EC000910F24BFA3EB910340EA9C00B3EBD10FF9
:104ED00024BFA3EBD10340EADC001B0118BF5FEA4B
:104EE0001C1CE0D1FD2A3FF650AF8B4240EBC25074
:104EF00008BF20F0010070470CF0004C4CEA502035
:104F00007F32C2BFD2F1FF0340EAC250704740F483
:104F100000004FF00003013A37E792F0000F00F075
:104F2000004C02BF400010F4000F013AF9D040EAF3
:104F30000C0093F0000F01F0004C02BF490011F487
:104F4000000F013BF9D041EA0C0195E70CEAD1537F
:104F500092EA0C0F08D142027FF47DAF93EA0C0F66
:104F60007FF470AF084676E793EA0C0F04D14B024A
:104F70003FF44CAF08466EE730F0004C18BF31F0FC
:104F8000004CCAD130F000427FF45CAF31F00043F6
:104F90007FF43CAF5FE700BF4FF0FF3C06E000BF8F
:104FA0004FF0010C02E000BF4FF0010C4DF804CDB2
:104FB0004FEA40024FEA41037FEA226C18BF7FEAC2
:104FC000236C11D001B052EA530C18BF90EA010FC4
:104FD00058BFB2EB030088BFC81738BF6FEAE17053
:104FE00018BF40F0010070477FEA226C02D15FEAEF
:104FF000402C05D17FEA236CE4D15FEA412CE1D05B
:105000005DF8040B704700BF844608466146FFE721
:105010000FB5FFF7C9FF002848BF10F1000F0FBD03
:105020004DF808EDFFF7F4FF0CBF012000205DF8FC
:1050300008FB00BF4DF808EDFFF7EAFF34BF012081
:1050400000205DF808FB00BF4DF808EDFFF7E0FF1A
:1050500094BF012000205DF808FB00BF4DF808ED6B
:10506000FFF7D2FF94BF012000205DF808FB00BFCE
:105070004DF808EDFFF7C8FF34BF012000205DF8B0
:1050800008FB00BF42000ED2B2F1FE4F0BD34FF02F
:105090009E03B3EB126209D44FEA002343F00043AE
:1050A00023FA02F070474FF00000704712F1610FD1
:1050B00001D1420202D14FF0FF3070474FF00000A3
:1050C000704700BF03460846194600F001B800BF0C
:1050D00010B40C4613460146224602205DF8044BEC
:1050E00000F01ABB70B50F4E0F4D761BB61007D0EF
:1050F000043D0024013455F8043F9847A642F9D1F5
:105100000A4E0B4D761B00F017FEB61008D0043D7A
:105110000024013455F8043F9847A642F9D170BDE8
:1051200070BD00BF445D0000445D0000645D000090
:10513000445D0000024B0146186800F00BB800BF48
:105140001091FF1F024B0146186800F0AFBB00BF73
:105150001091FF1F2DE9F04F01F10B05162D83B0C3
:10516000064627D935F0070527D4A94225D8304669
:1051700000F08CFAB5F5FC7F26D2C14F4FEAD50C72
:1051800007EBCC03DC689C4200F0D2816368E268E4
:10519000A16823F00303234430465D68CA6045F0EC
:1051A000010591605D6000F073FA0834204603B099
:1051B000BDE8F08F1025A942D9D900240C23204640
:1051C000336003B0BDE8F08F5FEA552C00F08A80B1
:1051D000BCF1040F00F260814FEA951C0CF1380C11
:1051E0004FEA4C01A64F07EB8101CC68A14205D1E3
:1051F0000CE0002B7ADAE468A14207D0626822F062
:105200000302531B0F2BF4DD0CF1FF3C0CF1010CDE
:105210009B4B3C6903F1080E744500F07E81616888
:1052200021F003014A1B0F2A00F36481002AC3F80E
:1052300014E0C3F810E06ADAB1F5007F80F03A813B
:10524000C90803EBC1004FEAA1085A688168A16050
:105250004FF0010909FA08F848EA0202E0605A60D2
:105260008460CC604FEAAC030120984090425BD848
:10527000024206D12CF0030C400002420CF1040C57
:10528000FAD007EBCC084446E146E3689C4207D1DC
:1052900045E1002A80F25681DB689C4200F03F81A4
:1052A000596821F003014A1B0F2AF2DD1C46D3F88E
:1052B0000CC054F8088F591945F0010942F0010556
:1052C000C3F804903046C8F80CC0CCF80880796167
:1052D0003961C1F80CE0C1F808E04D608A5000F077
:1052E000D7F963E77E214FF03F0C7BE72244E36868
:1052F0005068A16840F00105CB6030469960556068
:1053000000F0C6F90834204603B0BDE8F08F214410
:1053100030464B6843F001034B6000F0B9F90834A4
:10532000204603B0BDE8F08FBC68636823F0030932
:10533000A94504D3C5EB09030F2B00F39180514B12
:10534000514A19681368013305EB010A04EB090B94
:1053500000F061810AF5805A0AF10F0A2AF47F6A87
:105360002AF00F0A30465146019200F093F9B0F14D
:10537000FF3F8046019A00F00081834500F2FA80E9
:10538000DFF810C1DCF80030C3455344CCF80030DE
:1053900000F04A8112683C4901321BBFCBEB080B7D
:1053A0005B44C1F80080CCF8003018F0070300F02F
:1053B0001381C3F10802C3F5805390440833C244FB
:1053C000CAF30B0ACAEB030A51463046CDF804C0B3
:1053D00000F060F9431CDDF804C000F03581C8EB33
:1053E0000002524442F00102DCF80030C7F80880A5
:1053F0005344BC42C8F80420CCF80030DFF894A035
:1054000015D0B9F10F0F40F2EA806168A9F10C02E2
:1054100022F0070201F0010EA118052042EA0E0E4B
:105420000F2AC4F804E04860886000F21181174A2E
:10543000BC6811688B4288BF1360154A11688B42A3
:1054400088BF1360626822F003029542C5EB020335
:1054500001D80F2B04DC304600F01AF90024A5E631
:10546000621943F0010345F0010565603046BA60FA
:10547000536000F00DF90834204603B0BDE8F08F0A
:105480001491FF1F3099FF1F2095FF1F2C99FF1FBC
:105490002899FF1F3499FF1FBCF1140F61D9BCF18B
:1054A000540F00F28F804FEA153C0CF16E0C4FEA5E
:1054B0004C0197E64B0A042B58D9142B00F2AE800E
:1054C00003F15B02500007EB8000DFF8BC818368CA
:1054D000834200F08A805A6822F00302914202D28D
:1054E0009B689842F7D1D9687A68E160A3608C60C4
:1054F000DC60B7E6611942F0010745F0010565601F
:10550000304659611961C1F80CE0C1F808E04F60FC
:105510008A50083400F0BCF848E65A68A2E609F15F
:10552000010919F0030F04F108047FF4AEAE2DE079
:1055300004F108036469A34208BF0CF1020C3FF4B4
:1055400067AE23E619441C464868DB6854F8082F08
:1055500040F001054D603046D3609A6000F098F845
:1055600024E60CF15B0C4FEA4C013BE68A09383229
:105570005000A8E7BC423FF403AFBC68626822F069
:10558000030262E7D8F8008098457BD11CF0030F36
:10559000A8F108030CF1FF3CF4D17B6823EA000377
:1055A0007B60400098423FF6BFAE00283FF4BCAE9F
:1055B0000342CC467FF465AE400003420CF1040C7C
:1055C000FAD05EE6BCF5AA7F1AD84FEAD53C0CF1BA
:1055D000770C4FEA4C0105E64FF48053EFE60123C8
:1055E000C8F80430444600222FE791100120D8F873
:1055F000042000FA01F10A43C8F80420194674E7B0
:1056000040F254539C451BD84FEA954C0CF17C0C4E
:105610004FEA4C01E6E50AF1100AA3E6542B1FD825
:105620000A0B6E3250004EE7CBF30B0100297FF4DA
:10563000B1AE0AEB0901BA6841F001015160F6E62A
:10564000FC214FF07E0CCDE501224FF0000ACBE6A5
:1056500004F10801304600F029F9DAF80030E6E6F6
:10566000B3F5AA7F03D8CA0B773250002BE740F27C
:105670005452934203D88A0C7C32500023E7FC201A
:105680007E2220E77B688CE71491FF1F704700BFE4
:10569000704700BF38B5074C002305460846236015
:1056A000FCF7A4F9431C00D038BD2368002BFBD0C5
:1056B0002B6038BD7099FF1F20F0030110F003002C
:1056C000C0F1000051F8043B00F1040C4FEACC0C8F
:1056D0006FF000021CBF22FA0CF213434FF0010CD2
:1056E0004CEA0C2C4CEA0C4CA3EB0C0222EA030211
:1056F00012EACC1204BF51F8043B0430F4D013F08A
:10570000FF0F1FBF013013F47F4F013013F47F0FE1
:1057100018BF0130704700BFF0B5274C2668D6F897
:10572000484185B00746002C41D065681F2D1EDD1D
:10573000224818B94FF0FF3005B0F0BD4FF4C870E3
:10574000039102920193FFF7F5FC0399029A019BE2
:1057500004460028EED0D6F848512560002060604D
:105760000546C6F84841C4F88801C4F88C013FB921
:10577000AB1C00200135656044F8231005B0F0BD76
:1057800004EB85004FF0010CC0F88820D4F8886144
:105790000CFA05F21643022FC4F88861C0F80831EC
:1057A000E6D1D4F88C311A43C4F88C21E0E706F531
:1057B000A674C6F84841B8E7345D000035510000D2
:1057C000024B13B1024800F005B87047000000001A
:1057D000E15700000146002002460346FFF79CBF48
:1057E00038B5094D094C641BA41018BF05EB84059E
:1057F00005D0013C55F8043D9847002CF9D1BDE88F
:10580000384000F0AFBA00BF000000000000000008
:10581000F8B5234D0F460446FFF738FFAB685E68C6
:1058200026F00306F11B01F6EF7121F47F6121F0F0
:105830000F01A1F58057B7F5805F07DB20460021F7
:10584000FFF728FFAB683344984204D02046FFF7A7
:105850001FFF0020F8BD20467942FFF71BFF0130F3
:105860000DD0104BAA681968F61B46F001062046B9
:10587000C91B56601960FFF70BFF0120F8BD2046D9
:105880000021FFF707FFAB68C21A0F2ADEDD064DC5
:1058900004492D6842F00102401B5A600860D5E7B8
:1058A0001491FF1F3499FF1F2095FF1F2DE9F04130
:1058B0000D460646002955D0FFF7E8FE55F8041CB2
:1058C000DFF874C121F00103A5F10804E218DCF847
:1058D00008005768904227F0030769D011F00101D2
:1058E000576032D00021D0194068C00706D43B442D
:1058F000906800294ED0D268C260906043F00102E7
:105900006260E350E1B9B3F5007F2DD35A0A042A4F
:105910006AD89809383041000CEB810C4649DCF814
:105920000820624566D0516821F003018B4202D203
:1059300092689445F7D1D368E360A2609C60D4601C
:105940003046BDE8F041FFF7A3BE55F8085C641B84
:105950000CF10808A06840452B4443D0E568C560B9
:10596000A860C0E7BDE8F081DB080CEBC3020125AD
:10597000DCF804009168A1609B1005FA03F318435A
:10598000E260CCF8040094603046CC60BDE8F041A1
:10599000FFF77EBE294DA842ADD143F00102CCF8FD
:1059A0001440CCF81040E060A0606260E350C7E7AC
:1059B0001F44CB0707D455F8083CE41A1F44A268DB
:1059C000E368D3609A601E4B1B6847F001029F4258
:1059D0006260CCF80840B3D31A4B30461968FFF721
:1059E00017FFADE701217EE7142A0CD802F15B0016
:1059F000410091E74B688010012505FA00F0034350
:105A00004B60134698E7542A03D8180B6E304100B8
:105A100082E7B2F5AA7F03D8D80B773041007BE745
:105A200040F254518A4203D8980C7C30410073E70D
:105A3000FC217E2070E700BF1491FF1F1C91FF1F07
:105A40001C95FF1F3099FF1F0000000000000000A0
:105A500079040000A1040000650400009505000021
:105A6000BD050000750400006C65667452504D3A27
:105A70002000000009726967687452504D3A200096
:105A8000050E08090D0C06070F04001303931A9264
:105A900017C585848687C4004008FE4340A00440A3
:105AA0004408FE4344A004400018FE4300C00440E4
:105AB0003000FE43309004403400FE4334900440F4
:105AC0001C18FE431CC004401018FE4310C00440C4
:105AD0000818FE4308C004400C18FE430CC00440E4
