:1000000000800020BD010000792A00003D2A000088
:100010003D2A00003D2A00003D2A00003D2A000044
:100020003D2A00003D2A00003D2A0000792A0000F8
:10003000792A00003D2A0000792A00002D2A0000BC
:10004000792A0000792A0000792A0000792A000024
:10005000792A0000792A0000792A0000792A000014
:10006000792A0000792A0000792A0000792A000004
:10007000792A0000792A0000792A0000792A0000F4
:10008000792A0000792A0000792A0000792A0000E4
:10009000792A0000792A0000792A0000792A0000D4
:1000A000091D0000191D0000792A0000792A0000AE
:1000B000792A0000792A0000792A0000792A0000B4
:1000C000792A0000792A0000792A0000792A0000A4
:1000D000792A0000792A0000792A0000792A000094
:1000E000792A0000792A0000792A0000792A000084
:1000F000792A000075430000792A00007149000048
:10010000792A0000914E0000792A0000792A000027
:10011000792A0000792A0000792A0000792A000053
:10012000792A0000792A0000792A0000792A000043
:10013000792A0000792A0000792A0000792A000033
:10014000792A0000792A0000792A0000792A000023
:10015000792A0000792A0000792A0000792A000013
:10016000792A000009320000792A0000792A00006B
:10017000792A0000792A0000792A0000792A0000F3
:10018000792A0000792A0000792A0000792A0000E3
:10019000792A0000792A0000792A0000792A0000D3
:1001A000792A0000792A0000792A0000792A0000C3
:1001B000792A0000792A0000792A0000574B4CF276
:1001C000205210B51A804DF628121A8000BF00BFC9
:1001D00002F056FC524B4FF010621A60514A9A607E
:1001E000514ADA60A3F53043203B1A6812F480725A
:1001F00004D14E490A604FF4A8521A604C4B1A7849
:10020000110703D51A7842F008021A70494B4A4C7C
:100210004A482A221A704A4A00239918A14203D256
:10022000195899500433F8E7464B474900228B424E
:1002300002D243F8042BFAE74448454900235A58B0
:100240001A500433B3F5DE7FF9D1424B424A802184
:1002500003F8011B9342FBD1404B3C4A1A60404BD0
:100260000A221A70A3F5805324225A70A0221A7011
:100270009A799207FCD59A79D406FCD4394A9379B5
:1002800003F00C03082B374BF9D103221A714022DB
:100290005A719A799006FCD5324A9179314B4906C8
:1002A000FBD5314A314911600221516020221A7078
:1002B0009A7902F00C020C2AFAD12D4B2D4A1A60C1
:1002C0002D4B2E4A1A6000225A60072243F8042C54
:1002D0002B4AC3F80C2D62B602F058FE134B1B6874
:1002E000DA0705D5274802F0C3FD274B274A1A60D5
:1002F000274B1B785B0609D5234C244A236893427D
:1003000004D1204802F0B4FD0023236005F0E4FC92
:1003100002F0BCFB03F0DAFCFEE700BF0E20054054
:1003200030800440823F04000100002B14D00340C1
:1003300002D0074000E007405C95FF1FC4A4000006
:100340006087FF1F5C95FF1F489EFF1F0082FF1FF5
:100350000000000000E400E05FE400E008ED00E0E1
:100360000050064000400640448004400000030165
:1003700004800440C010050014E000E0FF76010096
:10038000000020201CF2FE041CE00340A5C3945A88
:1003900000F00740FFFFFFFFFFFFFFFFFFFFFFFF32
:1003A000FFFFFFFFFFFFFFFFFFFFFFFFFFFFFFFF5D
:1003B000FFFFFFFFFFFFFFFFFFFFFFFFFFFFFFFF4D
:1003C000FFFFFFFFFFFFFFFFFFFFFFFFFFFFFFFF3D
:1003D000FFFFFFFFFFFFFFFFFFFFFFFFFFFFFFFF2D
:1003E000FFFFFFFFFFFFFFFFFFFFFFFFFFFFFFFF1D
:1003F000FFFFFFFFFFFFFFFFFFFFFFFFFFFFFFFF0D
:10040000FFFFFFFFFFFFFFFFFFFFFFFFFEFFFFFFFD
:1004100010B5054C237833B9044B13B10448AFF33E
:1004200000800123237010BD5C95FF1F00000000B9
:10043000BCA4000008B5064B1BB106480649AFF343
:1004400000800648036813B1054B03B1984708BD07
:1004500000000000BCA400006095FF1F5C95FF1F1A
:1004600000000000024B1A6801321A60704700BF9A
:100470007C95FF1F024B1A6801321A60704700BF5B
:10048000B495FF1F38B50220012102F025FD072099
:10049000012102F021FD0820012102F01DFD0A20AA
:1004A000012102F019FD0920012102F015FD0520AE
:1004B000002102F011FD0620002102F00DFD0220B6
:1004C000012102F0E5FC0720012102F0E1FC0820F7
:1004D000012102F0DDFC0A20012102F0D9FC0920F3
:1004E000002102F0D5FC05201849042202F060FC2E
:1004F00006201749042202F05BFC164D2846052110
:1005000001F094FE144C2046052101F08FFE284690
:10051000002101F089FE2046002101F085FE2846D9
:10052000002101F02BFF2046002101F027FF0C20C5
:1005300002F080F9042002F0A9F9084801F054FF04
:1005400002F0ECFC064B186038BD00BF65040000EB
:10055000750400008495FF1F9C95FF1FBC95FF1F2D
:10056000C095FF1FFFFFFFFF70B502F0D7FC444BA3
:100570001B68C01A41F2873290427AD902F0CEFC51
:100580003F4B18603F4803683F4A02FB03F33F4C70
:10059000A4FB03131B0B3E490B603E490D6802FB95
:1005A00005F2A4FB0252120B3B4C22609A422CBF74
:1005B00014461C469A4294BFA318E3185B08374CB4
:1005C0002360002303600B60354D28460E2101F0A7
:1005D00069FF344C2080284601F07EFF2388834247
:1005E00003D2284601F078FF0BE02D4801F076FF9A
:1005F0002C4B1B88984203D2294801F06FFF00E082
:100600001846284C2080264E304601F065FF25888C
:100610002D1A2580304601F063FF0646A8B205F08A
:1006200003F804460D46304604F0EEFF02460B4642
:100630002046294605F088F90FA3D3E9002305F0E9
:1006400059F805F019FB80B24A2802D9154B1880D9
:1006500002E00022134B1A80124B1988124B1980AA
:10066000124C2180124801F089FE1248218801F0C5
:1006700085FE70BDAFF300800000000000FEAF40BB
:10068000C095FF1F7C95FF1FF82401005917B7D1B3
:10069000D495FF1FB495FF1F7895FF1FCC95FF1FC2
:1006A000C495FF1F8095FF1FB895FF1FD095FF1FB2
:1006B0008495FF1F9C95FF1F10B50E48032107224C
:1006C0004FF0FF3301F074FD0B48032108224FF077
:1006D000FF3301F06DFD09480A21052201F080FE7B
:1006E000074C204601F0DAFE20460649064A05F08E
:1006F000E3FA10BD8495FF1F9C95FF1FBC95FF1F5B
:10070000C495FF1FA12400006087FF1F38B5054670
:100710000C4690F86634E3B10B685B6808460D49F7
:1007200010229847204695F866141022002303F003
:10073000FDFA23685B682046074903229847204654
:1007400095F868141022002303F0F0FA204603F015
:10075000C9FA38BDB49E0000C89E000038B50546F1
:100760000C4690F86634D3B10B685B6808461D49A7
:1007700026229847204603F0B5FA95F86634012BF7
:1007800008D123685B68204617492F2298472046E6
:1007900003F0A8FA28462146FFF7B8FF38BDC37911
:1007A0004BB90B685B68084610491C2298472046E5
:1007B00003F098FA38BD90F83C344BB90B685B688D
:1007C00008460B491A229847204603F08BFA38BD99
:1007D0000B685B68084607490F229847204603F0DC
:1007E00081FA38BDD49E0000FC9E00002C9F0000C2
:1007F0004C9F0000689F000008B5FFF7AFFF03F0B3
:10080000FDFAFCE708B5837863F07F038370024646
:10081000806852F8101F00F067FA08BD10B5044652
:100820000A4680682430A16900F0D2F9034628B155
:10083000A08800F00F0003EB401010BD002010BD99
:1008400038B504460D46037893B90021242205F0FB
:10085000BFFDA560EB79102B02D0202B03D009E05F
:100860002023237001E0402323700120A07038BDB5
:10087000002038BD002038BD2DE9F04104460E4669
:1008800007690378002B3CD042698A423DD011B9F8
:100890000023036131E013F0080F03D0C1698E42D9
:1008A0002FD808E013F0200F05D083681B89B1EB27
:1008B000431F26D821E0A1688D790935501EE840F4
:1008C00006F1FF3C2CFA05F5A84200D832B913F026
:1008D000400F14BF0B6A236A23610AE02D1A08E057
:1008E000A0682169424600F09DF9013D002802DC24
:1008F00007E004F11008002DF2D166610120BDE887
:10090000F08127610020BDE8F0810120BDE8F08181
:1009100038B504460378002B34D090F90230002B10
:100920001EDA0121FFF77AFF054628B30378E52B8D
:1009300022D0237813F0080F1CBFE369C361238C16
:100940004383638C8382114B1B682BB1183005F1F4
:10095000160198472B8B6B82A37803F07F03A3705B
:10096000A56805F1240000F00BF928B105F50C701D
:1009700000F006F9034630B9637843F00103637071
:10098000002300E00123184638BD00BFDC95FF1F9F
:1009900010B50446FFF7BCFF0023237010BD00BF55
:1009A0002DE9F84F044688469246037813F0080F65
:1009B00000F0B980837813F0020F00F0B48013F0D8
:1009C000040F05D0E169FFF757FF002800F0AB8066
:1009D0006369DB439A4500F2A680BAF1000F00F08C
:1009E000868056464FF001094FF0050BA0686369F9
:1009F0004579C3F3080715EA532521D1002F40F0AC
:100A00009A80216981B104F1100200F00BF90028ED
:100A1000C0F28980002840F093802046FFF7F2FE64
:100A2000002840F08D807EE0236A3BB92046FFF726
:100A3000E9FE002877D02369236281E023617FE00B
:100A4000216900F0E9F84119002F40F08A80B6F5DD
:100A5000007F7BD318E04A4600E05A46A068243065
:100A600000F0B6F800285ED0384441462A4601F02E
:100A700039FD2F44B7F5007F32D1A068243000F053
:100A80007FF800282CD14EE0B6F5806F16D3A2680F
:100A900013795D1BEDB2C6F34723AB4228BF2B464B
:100AA0005D02D06A884202D8184488425FD8A068A4
:100AB0000268D7684246B84790B934E0A368DA6A5A
:100AC000914205D1002283F824204FF0FF32DA62F0
:100AD000A06803685B684246984720B34FF40075EE
:100AE00063692B446361A844761B7FF47FAF63691D
:100AF000E269934205D9E361A37863F07F03A370B1
:100B000006E01E4B1B681BB1A37863F07F03A37044
:100B1000A37813F0080F03D02046FFF7F9FE10B1B9
:100B20005046BDE8F88F637843F0010363704FF0DF
:100B3000FF30BDE8F88F216900F06EF8014610E043
:100B4000A068216900F068F8014680E7C7F50075E4
:100B5000AE4238BF35466269E3699A42BFF47DAF61
:100B600079E7C7F50075AE4238BF354673E7002018
:100B700082F824004FF0FF30D06298E7DC95FF1F29
:100B8000F8B50446037813F0010F1BD0406804F158
:100B90000C0603685B68A168324698470546A0B119
:100BA000237813F0020F08D0606802680169A36817
:100BB000576819443246B84730B1237823F001030F
:100BC000237002E0012500E005462846F8BD00BF7D
:100BD00070B504460D46164683688B4210D0FFF769
:100BE000CFFFA8B116F0040F07D1606803681B6837
:100BF000294604F10C02984760B100232370A560D8
:100C000006F0030623781E43204600F80C6B70BDE7
:100C1000002070BD002070BD023983799940406981
:100C20000844704770B504460D461646C379202B1C
:100C30000FD1816900F50C7001EBD5110222FFF78D
:100C4000C7FFD8B105F07F0550F8253023F0704379
:100C50000EE0102B14D1C1F30721836900F50C704D
:100C600019440222FFF7B4FF60B1EDB230F815303D
:100C7000E1698B4208D83360012006E0FF2004E0E0
:100C8000FF2002E0FF2000E0002040B270BD00BF66
:100C900038B50C461546C379202B0ED1816900F575
:100CA0000C7001EBD4110322FFF792FFB0B104F0F6
:100CB0007F0440F82450012038BD102B10D1C1F31F
:100CC0000721836900F50C7019440322FFF780FFA8
:100CD00040B1E4B220F81450012038BD002038BDE6
:100CE000002038BD002038BD2DE9F04182B0054616
:100CF00090460F4609B9C66800E00E4634460134F6
:100D0000EB699C4288BF02242846214601AAFFF7CE
:100D100089FF002804DB08B1019B1BB1B442EED16E
:100D2000002613E0284621466FF07042FFF7B0FF1F
:100D3000064658B13FB1284639462246FFF7A8FF7C
:100D400010B9064602E0EC60C8F80040304602B038
:100D5000BDE8F08138B504460023C3710122C260AA
:100D6000A06280F824304FF0FF32C262C4F834022F
:100D700080F83032C0F838220D46A9B1042971D864
:100D8000243019461A46FFF723FF00286CD000EBE9
:100D9000051595F8AE3105F5D47513F07F0F65D1C3
:100DA000D5F80E500DB963E0002504F12400294662
:100DB0000022FFF70DFF034600285BD0B0F80B20A0
:100DC000B2F5007F58D1027C022A57D1C289002A8D
:100DD00056D0407B2071421E62710022A271012810
:100DE0000DD01146012203E012B9A171002038BDD7
:100DF0005200D2B20131C9B29042F5D1A171D98A63
:100E000001B9596A2161DA892A44A261B3F8110053
:100E1000208102EB41022262B3F81110490101F274
:100E2000FF1102EB61226261B3F8131001B9196A74
:100E3000AA1A1144A27921FA02F2511CE16140F68A
:100E4000F4718A4203D80C23E371002038BD4FF6B9
:100E5000F4718A4291BF1023DB6A23622023E3717D
:100E6000012038BD002038BD002038BD002038BD2D
:100E7000002038BD002038BD002038BD002038BD1E
:100E8000002038BD10B50446037963B140790121D3
:100E900001F0FEFF2068FF2100F04EFB206800F00B
:100EA000A5FB0023237110BD10B5044603794BB98F
:100EB0000068E17900F08CFA6079002101F0E8FF28
:100EC0000123237110BD00BF2DE9F041044688467F
:100ED0001746184B1E681D4607E02B689B1BB3F591
:100EE000967F02D91123A3711DE0206800F0BEFA9D
:100EF0002072FF28F1D0FE2802D00F23A37112E048
:100F0000206841463A4600F0C5FA207210B11C2311
:100F1000A37108E0206800F0A9FA206800F0A6FAA2
:100F20000120BDE8F0812046FFF7ACFF0020BDE8BE
:100F3000F08100BF349BFF1FF8B504460F46084BF5
:100F40001E681D4603E02B689B1BBB4206D220682F
:100F500000F08CFAFF28F6D10120F8BD0020F8BD82
:100F6000349BFF1FF0B583B004460F46019203790E
:100F70000BB9FFF799FF20464FF41671FFF7DCFF1E
:100F8000206847F0400100F0D7FA0DF107050DF198
:100F90000306206815F8011900F0CEFAB542F8D121
:100FA000AFB12068872100F0C7FA0C2F02D120686A
:100FB00000F05CFA0025206800F058FA207210F06A
:100FC000800F09D00135B5F5807FF4D104E02068A9
:100FD000952100F0B1FAEDE703B0F0BD2DE9F0473F
:100FE00004469A4600234372837101604271504B5C
:100FF0001E680846114600F0D9F98021E171206889
:1010000000F0E6F90A25FF272068394600F094FA37
:101010006B1E13F0FF05F7D1206800F0E7FA0025FA
:10102000434F07E03B689B1BB3F5FA6F02D90123DE
:10103000A3716CE0204629462A46FFF793FF01285A
:10104000F0D14FF008084FF4D577DFF8E490204650
:1010500041463A46FFF786FF052802D10123637215
:1010600016E00425206800F001FA2072013D15F019
:10107000FF05F7D1AA2802D10223637208E0D9F84C
:1010800000309B1BB3F5FA6FE1D90223A3713EE058
:10109000637A022B14BF4FF000084FF080483727C7
:1010A0000025DFF88C9008E0D9F800309B1BB3F5E1
:1010B000FA6F02D90A23A37129E0204639462A464D
:1010C000FFF750FF204629214246FFF74BFF00283B
:1010D000EAD1637A022B12D120463A210022FFF78F
:1010E00041FF10B10823A37111E0206800F0BEF9A0
:1010F00000F0C000C02810D1032363720DE0204629
:10110000FFF7C0FE84F807A00120BDE8F087204665
:10111000FFF7B8FE0020BDE8F087206800F0A6F9D0
:10112000206800F0A3F9206800F0A0F9E7E700BF0D
:10113000349BFF1F38B504460B461546407A0328FA
:1011400018BF4B02204611211A46FFF70BFF10B1C2
:101150000423A3710BE0204629464FF40072FFF7E9
:10116000B3FE054618B12046FFF78CFE03E020468B
:10117000FFF788FE0025284638BD00BF10B504469D
:101180000A46437A032B18BF4A021221FFF7EAFEF0
:1011900030B10523A3712046FFF774FE002010BD77
:1011A000012010BD10B504460C210022FFF7DAFE25
:1011B00030B10323A3712046FFF764FE002010BD69
:1011C0002046FFF75FFE012010BD00BF2DE9F04172
:1011D000064614461F46FFF7D1FF0146A0B17FB176
:1011E00000254FF40078304621464246FFF76CFE5A
:1011F000014648B10135ADB204F50074BD42F2D3E9
:101200003046FFF7CFFF01460846BDE8F08100BF3A
:1012100038B504461546006800F08EF92068294666
:101220004FF4007200F098F92068FF2100F084F973
:101230002068FF2100F080F9206800F017F9207283
:1012400000F01F00052806D01323A3712046FFF7E6
:1012500019FE002038BD012038BD00BF38B5044656
:101260000B461546417A032918BF5B0218211A461E
:10127000FFF778FE10B10623A3710AE02046FE2195
:101280002A46FFF7C5FF054618B12046FFF7FAFDCD
:1012900003E02046FFF7F6FD0025284638BD00BFD5
:1012A00070B504460D460679FFF7FEFD20464FF463
:1012B0001671FFF741FE10B91723A3710BE020460A
:1012C000FC212A46FFF7A4FF054620B13EB920467F
:1012D000FFF7D8FD03E02046FFF7D4FD00252846A0
:1012E00070BD00BF70B504460D461646372100227A
:1012F000FFF738FE204617213246FFF733FE10B1C4
:101300000923A3710BE0637A032B18BF6D022046FB
:1013100019212A46FFF726FE30B10723A371204684
:10132000FFF7B0FD002070BD012070BD38B5044648
:10133000FFF7BAFD20464FF41671FFF7FDFD70B1BF
:101340002068FD2100F0F8F820464FF41671FFF7F1
:10135000F3FD054618B12046FFF794FD05E0122382
:10136000A3712046FFF78EFD0025284638BD00BF3B
:10137000F8B5074614461E461A46FFF7B3FF78B184
:1013800056B1002538462146FFF78AFF40B10135A6
:1013900004F50074B542F5D13846FFF7C7FFF8BD34
:1013A0003846FFF76FFD0020F8BD00BF10B50C46B2
:1013B0000846012101F090FD2046012101F068FD61
:1013C000024B1A6842F480521A6010BD3C800440FF
:1013D00002290FD9042910D9082910D90C2911D9AB
:1013E000102912D9202913D9194B1A4A402988BF2C
:1013F00013460EE04FF000430BE0002309E041F2FA
:10140000010306E042F2020303E043F2030300E0BB
:10141000114B43F0605243F0F0431049C9689142C8
:1014200003D10E4909698B4204D00C490C4808606D
:10143000CA600B610B4A094B1A604FF410730A4AD9
:1014400013604FF4007104321160083A1360704762
:1014500005500100066001000440010000C0024088
:1014600001401F8000001F8018B00440084B1A681C
:1014700042F480621A604FF00042DA62FF225A633F
:101480001A46D36A002BFCDA014B986BC0B2704746
:1014900000C00240F8B50E461546244A244B1A6097
:1014A00015F0010F05D04C1CFFF7E0FF3070013D37
:1014B0002646052D04D9032100231D4C1D4802E0BA
:1014C0006908F9D103E0606301338B42FBDBA5EBD4
:1014D00041053544AE4215D23046154A154FD36A00
:1014E00013F0F00FFBD05763936BC3F30724047022
:1014F000437002308542F2D8F3432B4423F00103BA
:1015000002331E4405EB4105B5420DD93146084A68
:10151000D36A13F0F00FFBD0936BC3F3072008706E
:101520004B7002318D42F3D80020F8BD00041F80BB
:1015300000C00240FFFF0090064B1A6842F4806230
:101540001A604FF00042DA6259631A46D36A002BE0
:10155000FCDA704700C00240F8B51446214A224B1D
:101560001A6014F0010F05D04D1C0978FFF7E4FF55
:10157000013C2946052C2DD80D1960082CD10DE011
:10158000194613F8026C13F8014C44EA062444F09F
:1015900010447C63013202339042F1DC8D420FD95A
:1015A000114A0C784B7843EA0424D36A13F0F00F05
:1015B000FBD044F010435363936B02318D42F0D85B
:1015C00070B1094AD36A13F0F00FFBD0936B013866
:1015D000F8D1F8BD0D1903208B1C0022024FCFE774
:1015E000F8BD00BF00041F8000C00240704700BF6C
:1015F0000369D3F83801D3F83431C01A704700BFFB
:10160000704700BF0369D3F84422B2F5817F09D83F
:10161000D3F84422501CC3F84402134483F83C110D
:1016200001207047012303710020704730B4036923
:10163000D3F84442B4F5817F1ED8D3F84442C4F5B0
:1016400081740134D3F844522B4403F59E739442C1
:1016500002D201220271224632B18D1811F8014BDB
:1016600003F8014BA942F9D10369D3F8441211449C
:10167000C3F84412104602E001230371002030BC7D
:10168000704700BF38B50446084B0360036993F800
:101690004822022A08D1D3F860522DB1284602F020
:1016A000FBFA284602F01AFB204638BD809F000056
:1016B00010B4002202714FF47A7484600273064AF7
:1016C000026041734FF41A74044A04FB0121016162
:1016D0005DF8044B704700BF809F00006487FF1FC8
:1016E000D0F83421D0F838319A4208D2D0F83431C9
:1016F0005A1CC0F83421184490F8300070474FF05D
:10170000FF30704708B50069FFF7EAFF08BD00BF6A
:10171000D0F83421D0F838319A423DBFD0F8343176
:10172000C01890F830004FF0FF30704708B50069DE
:10173000FFF7EEFF08BD00BF38B50446C268157854
:10174000EDB281680B78DBB213F0200F00F0C3819B
:1017500013F0100F00F0058190F85632DBB2022B27
:1017600004D090F85632DBB2032B4CD1D4F860127F
:101770000B689B8B03F080039BB2002B00F08082F0
:1017800094F85632DBB2022B40F07A826EE2137884
:1017900013F0800FFBD00A79B54B1A70002384F840
:1017A0005632D4F84432013BC4F840322369D4F8AD
:1017B0004022224492F83C211A7020E0AD4B1A6876
:1017C0000B7901219940114219D0AB4A1370D4F81A
:1017D00060321A79A94B1A70002384F8563215F03A
:1017E000100F0CD0072384F84E32A36880221A70A1
:1017F000E36812221A700023C4F8403238BDE3684F
:1018000002221A7038BD90F84E32DBB2012B56D14D
:1018100015F0100F0DD0002380F85632072280F803
:101820004E2280220A70C26812211170C0F8403224
:1018300038BD15F0010F0FD0002380F85632D0F8D4
:1018400040321BB9052380F84E3202E0062380F8AF
:101850004E3280230B702EE0D0F840320133C0F8B6
:101860004032D0F8442293420AD3002380F84E320B
:1018700090F84D32012B0CBF8023B0230B701AE07F
:1018800090F85632DBB2012B0ED1022380F856328B
:10189000F1230B70D0F860321A79794B1A70036912
:1018A00090F83D211A7006E00369D0F84022024406
:1018B00092F83C211A70E36802221A7038BD90F841
:1018C0004E32DBB2022B36D115F0100F08D00723B1
:1018D00080F84E3280230B70C36812221A7038BD14
:1018E00015F0010F05D0052380F84E3280230B70D0
:1018F0001DE090F85632DBB2012B0CD1022380F8A8
:101900005632E1230B70D0F860321A795C4B1A70B2
:1019100003691B780BE0032380F84E32D0F8503275
:10192000012B0CBFE823E0230B7003691B78E368ED
:1019300002221A7038BD90F84E32DBB2042B0AD165
:1019400090F84D32012B0CBF8023B0230B70C3687D
:1019500002221A7038BD80230B70C36802221A70ED
:1019600038BD90F85632DBB2022B04D090F85632D4
:10197000DBB2032B56D1D4F860321A68928B02F096
:10198000800292B2002A00F08C8194F85622D2B2E2
:10199000022A40F086817AE11A79354B1A700023C9
:1019A00084F8563294F84E32DBB2042B1CBF00236D
:1019B00084F84E32A368B0221A70D4F85032013B3A
:1019C000C4F83831D4F838315A1CC4F838212269A7
:1019D0001278234483F8302094F84D32012B1DD126
:1019E0002023013B7FF4FDAFA36880221A7015E02D
:1019F000204A12681B790121994011420ED01F4ADA
:101A00001370D4F860321A791B4B1A70002384F8D3
:101A1000563284F84E32A36880221A70E36802229C
:101A20001A7038BDD0F838210232D0F850329A42BC
:101A300000F03E8190F84E32DBB2042B04D190F8D6
:101A40005532002B00F03481D4F838210132D4F81B
:101A500050329A4280F03A8194F84E32DBB2042B35
:101A600040F0298194F85532002B40F02F8122E17B
:101A70001C8000402C8000401F8000401E800040E1
:101A80001B800040002384F84E32A368B0221A70F5
:101A9000D4F838315A1CC4F838212269127823440A
:101AA00083F8302094F84D32012B06D12023013BDE
:101AB0007FF4FDAFA36880221A7094F84E32DBB237
:101AC000042B04D194F85532002B00F00981E3680F
:101AD00002221A7038BD15F0100F08D010231370B1
:101AE00015F0400F06D1C36802221A7038BD15F0F8
:101AF000400F60D094F84E32DBB20A2B04D1D4F8F8
:101B00005832002B40F0F08015F0040F1ED009234E
:101B100084F84E320023C4F84432A368D0221A70ED
:101B200023691B785B0884F84F32D4F85C3203B128
:101B30009847D4F844320BB984F83C31236994F8BF
:101B40003C211A700123C4F8403230E0002384F8AD
:101B5000543294F84A322BB912206849032201F01A
:101B600027F916E0012B05D111206449032201F069
:101B70001FF90EE0032B05D11E206149032201F05D
:101B800017F906E0042B04D11F205D49032201F060
:101B90000FF90A2384F84E320023C4F83831A368C1
:101BA000C0221A7023691B785B0884F84F32E368FF
:101BB00002221A7038BD13F0100F20D015F0010F5B
:101BC00015D1D0F84022D0F844329A4208D2D0F849
:101BD00040325A1CC0F84022034493F83C2100E0F4
:101BE000002223691A70A368D0221A703AE0C02339
:101BF0000B7003691B78002380F84E3232E000231B
:101C000080F8543290F84A322BB912203B49032213
:101C100001F0CEF816E0012B05D11120374903223F
:101C200001F0C6F80EE0032B05D11E203449032233
:101C300001F0BEF806E0042B04D11F203049032236
:101C400001F0B6F823691B78DAB2D4F83831B3F56D
:101C5000817F07D8D4F83831591CC4F8381123448F
:101C600083F83020E36802221A7038BD0A79254BC8
:101C70001A70A368F0221A70032384F85632BEE566
:101C800094F85632DBB2032B7FF498AD7FE51A79D6
:101C90001C4B1A70A368E8221A70032384F856328A
:101CA000BCE694F85622D2B2032A7FF4A1AE73E6C2
:101CB000E8230B70C8E6D4F838315A1CC4F8382130
:101CC00022691278234483F83020F6E6002384F852
:101CD000553294F84E32DBB2042B7FF4D3AED4E607
:101CE000012384F85532F2E60023C4F83431D4F8E5
:101CF0003801D4F85832984706E700BFCD1D0000E0
:101D0000DD1D00001F80004008B502480021FFF7DC
:101D100013FD08BD6487FF1F08B502480121FFF7C6
:101D20000BFD08BDCC89FF1F10B50446C3681B78A6
:101D300013F0200F24D1002380F84E3290F84A325D
:101D40001BB9122001F07CF810E0012B03D1112007
:101D500001F076F80AE0032B03D11E2001F070F8A1
:101D600004E0042B02D11F2001F06AF8D4F85832A5
:101D700053B30022C4F83421D4F83801984710BD79
:101D800090F854320133DBB280F85432012B03D87F
:101D900090F84932012B17D094F84A321BB912201F
:101DA00001F04EF810BD012B03D1112001F048F8CD
:101DB00010BD032B03D11E2001F042F810BD042BEF
:101DC00002D11F2001F03CF810BD00BF08B5024849
:101DD0000021FFF7A9FF08BD6487FF1F08B502486F
:101DE0000121FFF7A1FF08BDCC89FF1F70B50B4E85
:101DF00030460021FFF75CFC094D0A4C304629466D
:101E0000224603F059FF084E30460121FFF750FCEF
:101E100030462946224603F04FFF70BDF495FF1F60
:101E2000851600006087FF1FE095FF1F0B4BDB68E6
:101E3000834211D0094B1A6812F4804F04D0D86045
:101E400040F0804018617047044B05491960D86024
:101E500040F0804018611A60704700BF00C0024027
:101E600001401F00184B1A6842F480521A60174B49
:101E7000174A1A60174ADA6002F180421A61164A5C
:101E80001A60164B1B7813F0010F07BF4FF4107246
:101E9000134B4FF40072134B1A60104B1B7813F066
:101EA000020F4FF400720CBF0F4B104B1A600B4B1C
:101EB0001B7813F0040F07BF4FF410720C4B4FF454
:101EC00000720C4B1A6070473C80044000C0024016
:101ED00001401F000110003800001F80299CFF1FD7
:101EE00018B0044008C004401CB004400CC00440BA
:101EF00014B0044004C0044008B5084B1A6842F40A
:101F000080521A60064BDB6810B943F0807001E024
:101F100023F08070FFF78AFF08BD00BF3C800440BB
:101F200000C0024030B46A4B1A6842F480521A6012
:101F30001A6842F480521A60664BDB6803F08073C3
:101F4000002B14BF20230023624AD26802F00F0244
:101F5000012A0AD9042A02D843F0010305E0062A1F
:101F600094BF43F0020343F003035A4A126812F489
:101F7000804F08BF43F04003564A1268002AB8BF9A
:101F800043F010031843524B1B6813F4805F06D1D3
:101F900043F480534E4A13604F4A4E4BDA6010F0C0
:101FA000400104D14B4B1A6842F480421A6000F0A1
:101FB00020024A4B4A4C002A14BF22461A4610F00F
:101FC000080F18BF42F0806210F0040F10D010F01C
:101FD000030302D1434B134323E0012B02D1424BB5
:101FE00013431EE0022B0CBF404B414B134318E040
:101FF00010F0030304D142F4805343F0010310E0D6
:10200000012B04D142F4804343F0040309E0022B86
:1020100007BF42F4C04343F0060342F4E04343F0F9
:1020200007032C4AD46804F000442343D268934247
:102030000FD0284A126812F4804F02D0254AD3608C
:1020400007E042F4804545F00105224C2560E3603D
:10205000226000F010000028264B08BF4FF4F81350
:1020600021B31C4A1360244B1B7813F0010F07BFE8
:102070004FF41072214B4FF40072214B1A601E4B2B
:102080001B7813F0020F4FF400720CBF1D4B1E4B58
:102090001A60194B1B7813F0040F07BF4FF410722E
:1020A0001A4B4FF400721A4B1A600FE043F480434E
:1020B00043F00103074A13604FF4A27302F5F832AC
:1020C0001832136004321360083A136030BC704752
:1020D0003C80044000C0024001100138000001387B
:1020E000000001390101000204040002060600029A
:1020F0000707000200001F80299CFF1F18B0044042
:1021000008C004401CB004400CC0044014B004409B
:1021100004C0044008B50B4B1A6842F480521A60A0
:10212000094BDB6803F0E06213F0007F05D020F478
:10213000704300F4704043EA10101043FFF776FE3E
:1021400008BD00BF3C80044000C0024008B5042820
:1021500004D14FF06050FFF7DDFF08BD18B90E48FD
:10216000FFF7D8FF08BD052803D10C48FFF7D2FFC1
:1021700008BD012803D10A48FFF7CCFF08BD062897
:1021800003D10848FFF7C6FF08BD02280CBF064868
:102190000648FFF7BFFF08BD0110013803200138D2
:1021A0000320033805400138065001380760013824
:1021B00038B50446002505734573857304202061F6
:1021C0000120207522606360013905290DD8DFE800
:1021D00001F00306090306090823A36007E00A23A8
:1021E000A36004E00C23A36001E00023A360D0B24D
:1021F000012100F071FE2079012100F06DFE2078B0
:10220000012100F045FE2079012100F041FEFFF799
:1022100029FE0120FFF770FE0020FFF783FE207CDF
:10222000FFF794FF204638BD8173704708B5062933
:102230002CD80161C9B2042905D14FF06050FFF7D5
:1022400069FF012008BD21B91148FFF763FF012094
:1022500008BD052904D10F48FFF75CFF012008BD28
:10226000012904D10C48FFF755FF012008BD0629BC
:1022700004D10A48FFF74EFF012008BD02290CBF18
:1022800007480848FFF746FF012008BD002008BDA9
:1022900001100138032001380320033805400138BC
:1022A000065001380760013870B504460D461646E1
:1022B00083680C2B02D1C1F30B0507E00A2B02D176
:1022C000C1F3090502E0082B08BFCDB2A37B63B1BF
:1022D0001022264B1A600C331B6813F0040F08D130
:1022E0004FF48072224B1A6003E02078002100F046
:1022F000CFFD227B920342F48052637B83F0010383
:1023000042EA433343EAC636A368C3F10C039D4057
:102310003543ADB2174B4FF00042DA622A0A5A63D6
:102320001A46D36A002BFCDA124B9A6B4FF000422C
:10233000DA62EDB25D631A46D36A002BFCDA0D4B0C
:102340009B6BA37B63B110220B4B1A6010331B688D
:1023500013F0040F08D140F20312054B1A6070BD50
:102360002078012100F094FD70BD00BF88F00F407F
:1023700010B0044000C0024084F00F4008B50022B5
:10238000FFF792FF08BD00BF08B50830FEF708FB55
:1023900008BD00BF00B583B002AB03F8011D0830D3
:1023A00019460122FEF7FCFA03B05DF804FB00BFFA
:1023B00008B500F58C60FEF7BDFE08BD08B500F558
:1023C0008C60FEF74BFF08BD08B500F58C60FEF78A
:1023D000FDFE08BD08B500F58C60FEF7C9FF08BD1D
:1023E00041700270704700BF10B50346174901F5F0
:1023F0008C6001F26C415A781B78FEF7EFFD00B358
:10240000124C04F23C40FEF7C3FA20460121FEF7CD
:10241000A1FC20B920460021FEF79CFC88B10B49A5
:1024200001F23C40FEF70CFA034650B1074A92F81D
:102430003C2412F0700F1DBF0549064A11600023AD
:102440001BB902480449FEF7D7F910BD3496FF1FA7
:10245000709AFF1FD895FF1F2C9CFF1F0B4A00236B
:10246000D37182F83C3482F83D3482F86434192107
:1024700082F8661482F8693405491160054A1372BE
:1024800053721371044B1360704700BF3496FF1FE3
:10249000B09F00000896FF1FA09F0000704700BF7C
:1024A000704700BF08B5084600F01EFA83B2A3F5D6
:1024B000CD7080B240F6CA41884207D90448054928
:1024C0001A4601F025FC4FF6FF7008BD184608BDFE
:1024D0002C9CFF1FC09F00000088704740887047F9
:1024E00080887047844641EA000313F003036DD1EE
:1024F000403A41D351F8043B40F8043B51F8043BC7
:1025000040F8043B51F8043B40F8043B51F8043BCD
:1025100040F8043B51F8043B40F8043B51F8043BBD
:1025200040F8043B51F8043B40F8043B51F8043BAD
:1025300040F8043B51F8043B40F8043B51F8043B9D
:1025400040F8043B51F8043B40F8043B51F8043B8D
:1025500040F8043B51F8043B40F8043B51F8043B7D
:1025600040F8043B51F8043B40F8043B51F8043B6D
:1025700040F8043B403ABDD2303211D351F8043B0D
:1025800040F8043B51F8043B40F8043B51F8043B4D
:1025900040F8043B51F8043B40F8043B103AEDD2BC
:1025A0000C3205D351F8043B40F8043B043AF9D20D
:1025B000043208D0D2071CBF11F8013B00F8013BE0
:1025C00001D30B8803806046704700BF082A13D3ED
:1025D0008B078DD010F003038AD0C3F10403D21A05
:1025E000DB071CBF11F8013B00F8013B80D331F839
:1025F000023B20F8023B7BE7043AD9D3013A11F8B9
:10260000013B00F8013BF9D20B7803704B78437023
:102610008B7883706046704730B4394A3949136803
:1026200013F0800FFBD10B6813F0800FF7D172B657
:10263000354B1B78002B5FD0344B1C6804331D686E
:10264000043318680433196804331A6804331B68A8
:102650002C44204401440A441A44C2F34E0242F47A
:1026600000422B4B1A602C331C6804331D68043362
:1026700018680433196804331A6804331B682C443F
:10268000204401440A441A44C2F34E0242F4004278
:10269000204B1A6003F108131C6804331D680433CF
:1026A00018680433196804331A6804331B682C440F
:1026B000204401440A441A44C2F34E0242F4004248
:1026C000154B1A602C331C6804331D6804331868DA
:1026D0000433196804331A6804331B682C442044FB
:1026E00001440A441A44C2F34E0242F400420B4B26
:1026F0001A600022044B1A7062B630BC704700BFEB
:1027000024B0034024B00B40A59AFF1F38B003400B
:102710002CB0034030B003402CB00B4030B00B4025
:1027200060223A4B1A70E12201331A70384B1B7841
:10273000082B10D1012203F1804303F56C331A609A
:10274000132334490B6001F5FF2101F2FC710A608B
:10275000314A13601FE00A2B0DD139222F4B1A602A
:1027600013232C490B6001F5FF2101F2FC710A6073
:10277000294A13600FE00C2B0CBF35223D22274B5A
:102780001A60122323490B6001F5FF2101F2FC714D
:102790000A60214A1360224B1B7833B10123214A7E
:1027A000136002F50022136005E000231D4A136048
:1027B00002F5002213601C4B1B78012B06D88023E6
:1027C0001A4A136002F5002213601AE0042B06D89F
:1027D0008423164A136002F50022136011E0082BCF
:1027E00006D88523114A136002F50022136008E021
:1027F000102B94BF862387230C4A136002F5002216
:10280000136001220A4B1A70704700BF0040074056
:10281000348CFF1F0CB003400CB00B4008B00340D9
:10282000A89AFF1F20B00340358CFF1F24B003403F
:10283000A59AFF1F08B50C2804D9102828BF10201E
:10284000102307E00A2804D8092834BF08230A23E4
:1028500000E00C23DAB2101A084908700849097818
:10286000994209D0064B1A70064B1B7813B100220F
:10287000054B1A60FFF754FF08BD00BFA49AFF1F65
:10288000348CFF1FA59AFF1F24B0034010B50446E7
:10289000124B1B780BB1FFF7BFFE012C03D80022AF
:1028A0000F4B1A6017E0042C03D804220C4B1A605B
:1028B00011E0082C04D80522094B1A6008220AE00E
:1028C000102C04D80622064B1A60102203E00722BF
:1028D000034B1A602022034B1A7010BDA59AFF1FEC
:1028E00024B00340358CFF1F2DE9F8430D2813D980
:1028F000172802D80E38C0B20EE0A0F11A03DBB2DE
:10290000052B02D80938C0B206E0A0F12203DBB2E1
:10291000062B73D81838C0B23A4B1E5C3A4B1B7862
:102920000BB1FFF779FE16F0800F29D172B6374C44
:10293000374D4FF0010726602F7062B672B62368DC
:1029400013F0800F04D12B7813F0FF0F0FD1F2E7B3
:10295000304B186800222E4B1A7062B62E4B1B7833
:102960001841BDE8F8832B7813F0FF0FE3D062B66F
:1029700001F044FA72B6236813F0800FF3D0E7E752
:1029800072B606F040095FFA89F9244F244C06F02C
:102990003F06244D4FF00108B9F1000F04D03B6809
:1029A00023F010033B6003E03B6843F010033B60FF
:1029B000266085F8008062B672B6236813F0800F37
:1029C00004D12B7813F0FF0F0FD1E5E7164B1868F1
:1029D0000022144B1A7062B60F4B1B781841BDE8E9
:1029E000F8832B7813F0FF0FD6D062B601F006FA09
:1029F00072B6236813F0800FF3D0E7E70020BDE83C
:102A0000F88300BF54A00000A59AFF1F00B0034048
:102A1000A79AFF1F10B00340A49AFF1F0CB00B40F1
:102A200000B00B40A69AFF1F10B00B40024B1A6873
:102A300001321A60704700BF349BFF1F08B50D4C70
:102A4000236813F4802F01D000F0DEFB236813F419
:102A5000806F01D001F08EFC236813F4006F01D069
:102A600001F086FF236813F4805FE9D002F010FACA
:102A7000E6E700BF3480044008B5FFF7DFFF00BF82
:102A80001022014B1A80704700200540704700BF9C
:102A9000024A13681844106018467047388CFF1FAC
:102AA000EFF31383ABB9EFF31083ABB9EFF3058307
:102AB00023B10F2B05D9094A985C03E04FF48070CD
:102AC00000E00020EFF311833BB1834238BF18468A
:102AD00070474FF0FF30704700207047F0E300E090
:102AE00010B5154B1C681C6014F4805F05D0134BA7
:102AF000DB6813B1114BDB68984714F4005F05D015
:102B00000E4B1B6913B10D4B1B69984714F0200F36
:102B100005D00A4B1B6E13B1084B1B6E984714F07F
:102B2000100F07D0054BD3F884301BB1034BD3F8FB
:102B30008430984710BD00BFA0900440AC9AFF1F9E
:102B400010B5274B1C681C6014F4803F05D0254B42
:102B50001B6813B1234B1B68984714F4003F05D042
:102B6000204B5B6813B11F4B5B68984714F0010F53
:102B700005D01C4B1B6C13B11A4B1B6C984714F0FF
:102B8000020F05D0174B5B6C13B1164B5B6C98476B
:102B900014F0080F05D0134B9B6C13B1114B9B6CB9
:102BA000984714F0040F05D00E4BDB6C13B10D4B9E
:102BB000DB6C984714F4002F05D00A4B5B6E13B101
:102BC000084B5B6E984714F4802F07D0054BD3F861
:102BD00080301BB1034BD3F88030984710BD00BF45
:102BE000A0A00440AC9AFF1F10B5384B1C681C60B5
:102BF00014F0080F05D0364B5B6A13B1344B5B6A97
:102C0000984714F0100F05D0314B9B6A13B1304B2D
:102C10009B6A984714F0400F05D02D4BDB6A13B127
:102C20002B4BDB6A984714F0800F05D0284B1B6BA9
:102C300013B1274B1B6B984714F0200F05D0244B82
:102C40005B6B13B1224B5B6B984714F0010F05D0FF
:102C50001F4BDB6B13B11E4BDB6B984714F0020F5D
:102C600005D01B4B9B6D13B1194B9B6D984714F00E
:102C7000040F05D0164BDB6D13B1154BDB6D984778
:102C800014F4007F05D0124BDB6E13B1104BDB6EDA
:102C9000984714F4807F05D00D4B1B6F13B10C4B7C
:102CA0001B6F984714F4806F05D0094B5B6F13B10D
:102CB000074B5B6F984714F4006F05D0044B9B6F74
:102CC00013B1034B9B6F984710BD00BFA0B00440E9
:102CD000AC9AFF1F10B5264B1C681C6014F0010F46
:102CE00005D0244B9B6813B1224B9B68984714F086
:102CF000800F05D01F4B5B6913B11E4B5B69984772
:102D000014F0100F05D01B4B9B6913B1194B9B6935
:102D1000984714F0040F05D0164BDB6913B1154B1F
:102D2000DB69984714F0080F05D0124B1B6A13B1EA
:102D3000104B1B6A984714F0020F05D00D4B9B6B8C
:102D400013B10C4B9B6B984714F0200F05D0094B27
:102D50001B6D13B1074B1B6D984714F0400F05D046
:102D6000044B5B6D13B1034B5B6D984710BD00BF07
:102D7000A0C00440AC9AFF1F10B50B4B1C681C6030
:102D800014F0020F05D0094B9B6E13B1074B9B6EDD
:102D9000984714F0010F05D0044BDB6F13B1034BC0
:102DA000DB6F984710BD00BFA0D00440AC9AFF1F56
:102DB00030B4212831D8042A2FD8DFE802F00709DF
:102DC000050B03000B2406E00A2404E0082402E0BB
:102DD0000C2400E00924124B03EBC0035A68114B8A
:102DE000114DC3F89C51114DC3F8A051104DC3F8BB
:102DF000A451104DC3F8A8510F4DC3F8AC5172B691
:102E0000136823F4702313600C4D45F8201043F031
:102E1000807343EA0444146062B630BC704700BF5C
:102E20006CA000000082FF1FE12A0000412B00007F
:102E3000E92B0000D52C0000792D0000AC9AFF1F73
:102E4000094B03EBC0035A6872B6136823F087730B
:102E500023F4803343F0807313600022034B43F864
:102E6000202062B6704700BF6CA00000AC9AFF1F24
:102E7000044B00221A6004490A60044A10601022C0
:102E80001A60704714D0034004D0034000D00340C0
:102E900021281ED80F4B53F8303093F8802212F0BF
:102EA000FF0F08D019B1012283F88020704701225A
:102EB00083F800217047074B03EBC000436821B142
:102EC0001A6842F003021A6070471A6822F0020280
:102ED0001A6070476CA0000021281CD80E4B03EB31
:102EE000C0035B68012908D10B4A52F8302082F8F0
:102EF00080124FF4A2721A607047074A52F83020CD
:102F0000002082F8800219B94FF480721A6070476D
:102F100040F203121A6070476CA0000072B60C4BAE
:102F20001B680C4A12680C49096862B611F0806F80
:102F300002D0322B88BF0132C3F5BB33FF330749C0
:102F4000A1FB03039B094FF47A7000FB023070472A
:102F500018E000E0349BFF1F04ED00E0ABAAAAAA32
:102F600038B50546FFF7DAFF044625B938BD013DFF
:102F70000AD004F57A74FFF7D1FF001BB0F57A7F11
:102F8000F5D200F03BFFF6E738BD00BF10B5254B8A
:102F90004FF400021A604FF080721A604FF0007216
:102FA0001A604FF080621A604FF000621A600020D1
:102FB0001D4B18604BF6FF710433196028231B4A20
:102FC000136008321360083213600832136008324D
:102FD000136008321360083213600832136009224C
:102FE000134C226004F580540434206004342160C2
:102FF0000434236008342360143C226004F5FE246A
:10300000043420600B4801600B490B6008310B60F1
:103010000A4B1A60FFF784FBFA20FFF7A1FF00F0CC
:1030200073FC10BD08E100E0048003400C80034005
:103030000080034008800B400C800B4000800B4058
:1030400030B40E4B1B7843F002020D4C04EBC2046B
:1030500060600C48007800280CBF8824C82444EA2B
:103060000141074D45F8321080F00100054A10700B
:1030700083F00103014A137030BC7047A09BFF1F0F
:103080000080FF1F199CFF1F10B4431E032B11D893
:1030900072B60A4A52F8230050B14268074941F813
:1030A0002320074A32F813400188611A22F81310CE
:1030B00062B600E000205DF8044B7047909BFF1F54
:1030C000309EFF1F013803280DD872B6074B53F806
:1030D00020302BB1002001305B68002BFBD100E0D9
:1030E000002062B670470020704700BFE49BFF1FBE
:1030F00038B572B601231B491B4C5A1812F8012C23
:1031000012F0080F24D09A0054F832506DB9164BC3
:1031100003EBC20108304860144943F83210144BE5
:103120001A78013A1A7062B638BD42F0010254F8BA
:1031300032506DB90C4B03EBC201083048600D49A9
:1031400043F832100A4B1A78013A1A7062B638BD49
:103150000133052BD1D162B60022054B1A7000F065
:1031600037FC38BDA0A100000080FF1F8800400090
:103170000E9CFF1FC800400010B4431E032B37D81D
:10318000400140F010001C4A104472B61B4AD25C49
:10319000032A09D8DFE802F019021B0508300222D1
:1031A00016E00830042213E0154A52F823201AB919
:1031B000134A42F8231003E0124A52F823205160C8
:1031C000104A42F8231062B612E0032200E0052202
:1031D0000A4CE25401F10803436000F00803002B9D
:1031E0000CBF8823C8230A8843EA0243036062B6FF
:1031F0005DF8044B704700BF0080FF1F4C9BFF1F12
:10320000E49BFF1FF49BFF1F2DE9F84FA34CDFF851
:10321000E092DFF8E0A2DFF8E0B22578EDB215F039
:10322000040F1DD09E4B1B7813F0FF0F16D09D4B43
:103230001B7803F0FF022BB1531EDBB2994A1370C7
:1032400003B900BE984B1B7803F0FF0233B1531E45
:10325000DBB2954A13700BB900F0FAFC042323701B
:1032600015F0080F00F0E48299F80030DBB21D0978
:1032700040F021828D4D9E0805EBC6035A6855F833
:103280003630C3F38303013B0C2B00F21082DFE8DE
:1032900013F0CB01CB010E020E020E020E020E0243
:1032A0000E02E8010E020E020E020D0080491368A4
:1032B0000B6052684A607F4A45F8362000227E49FA
:1032C0000A607A490A618A6101217C4A11709BB2C5
:1032D00040F28162934218D8B3F5D06F2ED2B3F585
:1032E000817F00F01E8106D8802B00F0C980822BE0
:1032F00000F0CC8066E140F20232934200F0268179
:10330000B3F5A06F00F062815CE142F221029342CA
:1033100000F0868107D8B3F5086F00F0AB80B3F5F5
:10332000106F11D04EE142F22122934200F0418110
:1033300042F22132934200F0498143E1604B5D68E3
:10334000002D40F0188130E1594B9A78544B1A7097
:10335000564D05F180062B6A13F0800F03D0686A82
:10336000083800F035FB0835B542F4D1DFF88C8120
:1033700000263746534AB05828B1456800F028FB6C
:103380000DB12846F9E700234E4973504E4AB35019
:103390004E4BF05828B1456800F01AFB0DB1284695
:1033A000F9E7002349497350494AB35028F8023FCE
:1033B000484BFB5C023B032B0AD8DFE803F0020614
:1033C00002060022434BDA5502E00122414BDA5556
:1033D00001370436102ECDD100223F4B1A70012543
:1033E0003E4EDFF81C81314F05EB080313F8013C1A
:1033F00006F8043B13F0080F2DD000F0C9FA48B1CD
:10340000A90007EB451200F108035360344A47F85E
:10341000312007E0AB00002247F833202E4B1A780A
:1034200001321A7000F0B4FA58B1AB0043F0010356
:1034300007EBC30100F108024A601E4A47F8332037
:1034400009E0AB0043F00103002247F83320224B90
:103450001A7801321A70AA0042F00201002347F8DC
:10346000313042F0030247F8323001351D4B9E42A5
:10347000BAD11EE20A4B1B781B4D2B700127AAE024
:10348000194D00232B706B700227A4E0084B9B881A
:10349000042B37D90F22154B1A70C1E0802007404A
:1034A000189CFF1FA19BFF1F1A9CFF1F0080FF1F7E
:1034B000049CFF1FC8004000389BFF1F199CFF1F82
:1034C000A4A10000909BFF1F3C9BFF1FE49BFF1FDC
:1034D000F49BFF1F4C9BFF1F0E9CFF1FC420074047
:1034E00088004000D4200740109CFF1FC0200740E8
:1034F0009020074094200740982007402E9EFF1FF1
:10350000A0A10000A04A0021117051709F4A12F83A
:10351000233013F0020F5CD09B4D01232B70022748
:1035200059E09B4B9B8803F07F03042B02DC984AF5
:1035300052881AB10F22954B1A7071E0934A12F813
:10354000231021F0020102F82310B2E1904B9B8876
:1035500003F07F03042B02DC8D4A52881AB10F223C
:103560008A4B1A705CE0894A12F8231041F002017C
:1035700002F823109DE1864B5E889F88854BA3F15E
:103580000C02114633F80C0CB04209D133F80A0C86
:10359000B84205D1360A032E0CBF2F7817891AE0DE
:1035A0000D690C330C32002DEBD10F22774B1A70C2
:1035B00036E0794B1A68794B1A60754B9A78784BDC
:1035C0001A7076E10F22714B1A7029E000273D46F0
:1035D00001E002276C4D6E4BDB889F4228BF1F46DF
:1035E000402F34BF3E46402628463146FFF728FD8F
:1035F0003544BF1B03D13F2E00F2608110E0402F05
:1036000034BF3E46402628463146FFF719FD354473
:10361000BF1B01D13F2E03D9624B1D60624B1F803F
:1036200001238AF8003042E0594B198842F2210305
:10363000994212D15D4BD81D12F8011B03F8011FEE
:103640008342F9D15A4B1B68862B02D10F22594B6A
:103650001A7000200146FFF7F3FC574B45F836304F
:1036600025E0504B1E68BEB14F4FB7F80080B8F14F
:10367000400F34BF4546402530462946FFF7E0FC61
:10368000C5EB08039BB23B800BB9402D01D13544FB
:1036900000E00025434B1D603D4B1B88B3F5A06F38
:1036A00005D13B4B00225A709B788BF800300123E8
:1036B0008AF80030B9E0414E9F0806EBC708D8F8F9
:1036C0000420A2F10800013DEDB213F0080F47D02D
:1036D00000F07EF93A4B53F825304BB35A6838491D
:1036E00041F8252003F10802C8F80420354A525D4C
:1036F000032A12D8DFE802F002060A0E0321314A3B
:1037000051550AE002212F4A515506E005212D4A64
:10371000515502E004212B4A515518F0080F0CBFF7
:103720008822C8221B8842EA034346F837307CE0EF
:10373000244B5B5D032B0BD8DFE803F077770206A1
:103740000022204B5A5570E001221E4B5A556CE066
:1037500018F0080F0CBF022203221A4B5A5564E0DE
:1037600056F837301B0C22F8083C002B55D00023AC
:1037700022F8063C42F8043C134B53F825302BBB8F
:10378000114B43F8250025E0109CFF1FC020074087
:10379000049CFF1FB0A10000349BFF1F409EFF1F31
:1037A000289CFF1F389BFF1F0C9CFF1F379EFF1F8D
:1037B000389EFF1FA19BFF1FC80040000080FF1F15
:1037C000E49BFF1F4C9BFF1F909BFF1F3F4B53F839
:1037D000253058603D4B43F825003D4B33F815101C
:1037E00032F8082C0A4423F8152000F0D1F860B113
:1037F00000F10803C8F8043018F0080F354B364ABA
:1038000008BF134646F837300FE0002346F837303C
:10381000324B1A7801321A7007E018F0080F2D4B5E
:103820002D4A08BF134646F8373008232370F4E4C6
:1038300015F0010F22D02A4902230B700022294BD8
:103840001A70294B24481860284C5C6098602848FE
:10385000D8601A619A610D20264B1870FF23264804
:1038600003700838037018300270244A13709F22C6
:10387000234B1A7001230B70BDE8F88F15F0800FF1
:1038800005D00D221B4B1A708022403B1A7015F098
:10389000020F06D0184B1A78D2B21A700222083BD7
:1038A0001A7015F0100F0ED01022164B1A70BDE8CA
:1038B000F88F00200146FFF7C3FBB1E62846002140
:1038C000FFF7BEFBACE6BDE8F88F00BF3C9BFF1FD7
:1038D000309EFF1FC8004000880040000E9CFF1F64
:1038E00094200740A09BFF1F0080FF1F509BFF1FDD
:1038F000A49BFF1FC0200740882007408C20074062
:10390000842007408020074008B501F035FB0023E4
:103910001B491A465A50C81842600833882BF9D1FF
:10392000184B1A6842F480221A60154BC3F3072122
:10393000154A1170C3F30741143211701B0E043283
:103940001370FF23343A137008321370783A1370EF
:1039500001238432137000216C3211707C3A137091
:1039600070220A4B1A704FF40072A3F241331A60AE
:10397000102203F1C04303F5C8231A7008BD00BF2D
:103980000080FF1F348004409C20074049E400E091
:1039900072B60D4B1A68B2FA82F30B2B02D962B6DB
:1039A000002070474FF00041D94022EA0102064949
:1039B0000A6062B6054903EBC303DB00C8180022A6
:1039C000CA504260704700BF3C8CFF1F0084FF1F3D
:1039D00008B50F4BC31A0F4AA2FB03131B090B2B8D
:1039E00014D80D4A12783AB10C4A127812F0FF0F2F
:1039F00002D0FFF77DFB08BD72B6094A4FF00041C7
:103A000021FA03F311681943116062B608BD00BFC3
:103A10000084FF1F398EE3380E9CFF1F189CFF1F88
:103A20003C8CFF1F10B5134B1B6853B9124B1B780E
:103A300013F0FF0F18D00320FFF726FB0D4B186083
:103A4000A8B10C4B186843885A1C03441C7A03889D
:103A50009A4206D3FFF7BCFF0022064B1A602046AD
:103A600010BD4280204610BD4FF0FF3010BD4FF01A
:103A7000FF3010BD249CFF1F189CFF1F08B50D4B85
:103A80001B6883B90C4B1B7813F0FF0F08D0032081
:103A9000FFF7FAFA074B186028B94FF0FF3008BD5E
:103AA0004FF0FF3008BD034B1B685A881344187A47
:103AB00008BD00BF249CFF1F189CFF1F044B988863
:103AC000044B1B681BB11A885B88D31A18447047D3
:103AD000309EFF1F249CFF1F2DE9F0470446012262
:103AE000374B1A700E46002964D0DFF8E080DFF80B
:103AF000E0909A46334FD8F8003083BB99F80030F5
:103B000013F0FF0F06D100222D4B1A704FF0FF303B
:103B1000BDE8F0874AF2F9250420FFF7D3FA072819
:103B20000AD801238AF80030FFF732FFC8F80000F6
:103B3000A8B900238AF80030013D01D03B7833B1A9
:103B40000122204B1A704FF0FF30BDE8F08700F0E3
:103B500055F999F8003013F0FF0FDDD1D3E70023BA
:103B60003B70D8F800104A88C2F14005AE4238BF19
:103B7000354602F108030B442A444A80761B3DB1C6
:103B8000254414F8012B03F8012BAC42F9D100E0D5
:103B900025464B883F2B07D940230B800420FFF795
:103BA000EBFA0023C8F800300522074B1A700EB15B
:103BB0002C46A0E70020024B1870BDE8F08700BF3C
:103BC0001B9CFF1F209CFF1F1A9CFF1F1C9CFF1F9C
:103BD000189CFF1F00B583B002AB03F8010D184617
:103BE0000121FFF779FF03B05DF804FB10B5144B1A
:103BF0001B7813F0FF0F21D00122124B1A70124BC9
:103C0000196851B10024114B1C704B880B800420A3
:103C1000FFF7B2FA0C4B1C600DE0FFF7B9FE01464E
:103C200030B10022094B1A700420FFF7A5FA02E018
:103C30000122064B1A700022024B1A7010BD00BF01
:103C4000189CFF1F1B9CFF1F1C9CFF1F1A9CFF1F23
:103C500008B50E4B1B7813F0FF0F16D10C4B1968EB
:103C600041B14B880B800420FFF786FA0022084BF5
:103C70001A6008BDFFF78CFE014618B10420FFF75B
:103C80007BFA08BD0122034B1A7008BD1B9CFF1F65
:103C90001C9CFF1F1A9CFF1F03790F2B10D8094A89
:103CA000137072B6084B0279012101FA02F21988E9
:103CB00021EA02021A8062B6102303710023036016
:103CC000704700BF1A8000402A9CFF1F08B5FCF710
:103CD000D9FBFCF749FC00F091F8FAE708B502F0CF
:103CE0002BF808BD00B583B0054B1B88ADF8043038
:103CF00003685B6801A90222984703B05DF804FBE2
:103D00007CA1000008B503685B689847002008BDE7
:103D10000EB400B582B003AA52F8041B019202F05F
:103D2000F3FD02B05DF804EB03B07047F0B58BB063
:103D3000164622B903681B68C9B298472FE0012ACA
:103D400008BF0A2621B930228DF82520212417E04A
:103D500021243746B1FBF6F506FB1515EDB22246D8
:103D6000092D94BF30353735EDB20DF1280E724470
:103D700002F8245CB1FBF7F111B1013CE4B2E9E7D0
:103D800033B1013CE4B20AAB23442D2203F8242CC6
:103D900003685B6801A92144C4F1220298470BB073
:103DA000F0BD00BF08B5FFF789FE08BD08B5FFF7F5
:103DB00039FE08BD08B5FFF761FE08BD08B5FFF77D
:103DC00015FF08BD08B50846FFF704FF08BD00BF92
:103DD00008B508461146FFF77FFE08BD704700BFD3
:103DE000044B00221A714FF47A7199601A73024AD7
:103DF0001A6070472C9CFF1F88A1000008B50F4B6C
:103E00001B78CBB901220D4B1A70FFF757FE08B192
:103E1000FFF7E4FF00F024FA08B101F077F900F0B1
:103E20001DFD08B101F008FA00F0BCFF08B101F077
:103E300099FA0022014B1A7008BD00BF3C9CFF1F7D
:103E400030B40023B0FBF2F402FB14041D46092C2D
:103E500094BF30343734E4B2CC54B0FBF2F008B144
:103E60000133EFE70D4400226A70934207DD885C5E
:103E7000CC5C8C54C8540132013B9A42F7DB0846B3
:103E800030BC7047194B1A6842F480621A600023F4
:103E9000174A1370174A1370174A1370174A137092
:103EA000174A137040F21332164B1A604FF45172D6
:103EB00004331A60C0F34432134B1A70C0F3471234
:103EC0005A7000F01F00987204229A700221D9746F
:103ED0005A7588221A743C22DA7040220B4B1A70F1
:103EE0004FF40052A3F229331A6070473480044023
:103EF000C89CFF1F459CFF1FD09CFF1FC99CFF1F34
:103F0000449CFF1F40A0044000A006402DE400E0B8
:103F1000164B9B7803F0EC0300F00302134310F000
:103F2000040F18BF43F01003104A937000F00F0302
:103F3000042B04D11346927942F040029A710B4B44
:103F40005A7902F0EF0210F0100F18BF42F0100281
:103F5000064B5A719B7903F0EF0310F0200F18BF46
:103F600043F01003014A9371704700BF00A0064060
:103F700010B5144B1B6813F4806F21D0124B1B78C3
:103F800013F0FF0F06D0104CFFF738FF237813F023
:103F9000FF0FF9D14FF400520C4B1A6000230C4A6A
:103FA000D37040F203120B490A6004310A600A4AD6
:103FB00013700A4A13700A4B1B680BB101221A7066
:103FC00010BD00BF34800440449CFF1F84E100E02A
:103FD00000A0064040A00440C89CFF1F459CFF1F56
:103FE000409CFF1F10B50446094A137813F0FF0FD9
:103FF000FBD120460121FEF76FFF20460021FEF78E
:1040000047FF044B53F83420034B1A6010BD00BF28
:10401000449CFF1F6CA00000CC9CFF1F10B50D4BF3
:104020001B6813F4806F12D021280CD80A4C0B4B5C
:1040300053F8303023600121FEF74EFF2368002241
:104040001A70012010BD0020034B186010BD002025
:1040500010BD00BF34800440409CFF1F6CA00000D6
:10406000114B1B6813F4806F1BD0122804D140F24F
:1040700002320E4B1A600DE0142804D140F20232D5
:104080000B4B1A6006E00B4B5A7B02F0FE025A7390
:1040900000207047074B5A7B42F001025A730120FF
:1040A00070470020704700BF348004400CA00440DB
:1040B00014C0044000A006402DE9F04107461F4B04
:1040C0001B6813F4806F37D01D4B1B680BB10122A6
:1040D0001A701C4B1C780134402C28BF00241A4D48
:1040E0001A4EDFF86C8017E0FEF7DAFC40280FDC90
:1040F000337913F0800F0FD02B780133402B28BF7A
:10410000002318F80320D2B2F271DBB22B7003E067
:10411000FF2801DDFFF772FE2B78DBB29C42E3D073
:10412000FFB20B4B1F5501220A4B1A70E4B2054B2C
:104130001C70BC22054BDA70BDE8F081348004406D
:10414000CC9CFF1FD09CFF1FC99CFF1F00A00640F6
:10415000489CFF1F449CFF1F2DE9F84F0746284B42
:104160001B6813F4806F49D0264B1B680BB10122EA
:104170001A7007EB010B5F453DD2DFF89890224E95
:10418000DFF88C80DFF890A099F800400134402CD3
:1041900028BF00243578EDB2A54220D1BC2388F891
:1041A0000330FEF77DFC402811DC98F8043013F052
:1041B000800F10D033780133402B28BF00231AF82A
:1041C0000320D2B288F80720DBB2337003E0FF2867
:1041D00001DDFFF713FE3378DBB29D42E1D017F823
:1041E000013B0AF804300122084B1A70E4B289F846
:1041F00000405F45C8D1BC22054BDA70BDE8F88F9E
:1042000034800440CC9CFF1FC99CFF1F449CFF1FAF
:1042100000A00640D09CFF1F489CFF1F10B5064B16
:104220001B7813F0FF0F06D0034CFFF7E7FD237850
:1042300013F0FF0FF9D110BD449CFF1F064B1B78F4
:10424000DBB2064A1278D2B293422CBF3F3202F15F
:10425000FF32D01A704700BFD09CFF1FC99CFF1FC0
:10426000054B1878C0B2054B1B78DBB2984238BFBB
:104270004030C01A704700BFC89CFF1F459CFF1FFD
:1042800010B4184B1A78D2B2174B1B78DBB29A4293
:1042900018D001333F2B18D81449C85CC0B2DCB227
:1042A00011490C7012490968C9B19A4203D300E060
:1042B0000023D31A01E04032D31A1A2B0FDC00235B
:1042C0000B700CE04FF0FF3009E0084B1878C0B2DB
:1042D0000021054B1970064B19680029E8D15DF8DB
:1042E000044B7047C89CFF1F459CFF1F889CFF1F05
:1042F000409CFF1F094B1A78D2B2094B1B78DBB2E6
:104300009A4207D00133402B28BF0023054AD05CD6
:10431000C0B270474FF0FF30704700BFC89CFF1F0E
:10432000459CFF1F889CFF1F0D4B1B6813F4806F7B
:1043300014D00C4BDA7802F0CB02DA7040225A74B7
:10434000DA7842F03402DA70074B1A78D2B2074BAF
:104350001A70074B1B680BB100221A70704700BF20
:104360003480044000A00640459CFF1FC89CFF1FEE
:10437000409CFF1F70B43D4B1B7913F0300F33D0BE
:1043800072B63A4B9B7D03F0FF022BB9374BDA79BB
:1043900040225A7462B627E062B6354B1978C9B22A
:1043A000344B1C78E4B2314D334EEB79D8B24B1C10
:1043B000402B28BF0023A3421CBFF0541946531EB4
:1043C00013F0FF02F1D1CAB2294B1A702B4B1B68B4
:1043D00053B1A1422EBFC4EB0101C4F1400409193D
:1043E0002729C4BF01221A70204BDA78D2B212F00A
:1043F000800F27D01B7913F0800F23D0204B1C781F
:10440000E4B2204B1B78DBB29C4210D017491E4D02
:1044100001E0A3420BD00133402B28BF00230879D1
:10442000E85CC0B2C871087DC0B20728F1D9DBB220
:1044300014490B700D4B1B7913F0800F02D07C21B7
:104440000A4BD97012F0400F0ED0084B1B7913F0B5
:10445000400F09D000220D4B1A700D4B1B6803B1A1
:104460001A703C22014BDA7070BC704700A0064005
:10447000C89CFF1F459CFF1F889CFF1F409CFF1F7F
:10448000D09CFF1FC99CFF1F489CFF1F449CFF1F1F
:10449000CC9CFF1F194B1A6842F400621A6000237B
:1044A000174A1370174A1370174A1370174A13707C
:1044B000174A137040F21332164B1A604FF45172C0
:1044C00004331A60C0F34432134B1A70C0F347121E
:1044D0005A7000F01F00987204229A700221D97459
:1044E0005A7588221A743C22DA7040220B4B1A70DB
:1044F0004FF40042A3F22B331A607047348004401B
:10450000449DFF1FD99CFF1F4C9DFF1F459DFF1F12
:10451000D89CFF1F0CB0044000B006402FE400E020
:10452000164B9B7803F0EC0300F00302134310F0EA
:10453000040F18BF43F01003104A937000F00F03EC
:10454000042B04D11346927942F040029A710B4B2E
:104550005A7902F0EF0210F0100F18BF42F010026B
:10456000064B5A719B7903F0EF0310F0200F18BF30
:1045700043F01003014A9371704700BF00B006403A
:1045800010B5144B1B6813F4006F21D0124B1B782D
:1045900013F0FF0F06D0104CFFF730FC237813F018
:1045A000FF0FF9D14FF400420C4B1A6000230C4A64
:1045B000D37040F203120B490A6004310A600A4AC0
:1045C00013700A4A13700A4B1B680BB101221A7050
:1045D00010BD00BF34800440D89CFF1F84E100E080
:1045E00000B006400CB00440449DFF1FD99CFF1F43
:1045F000D49CFF1F10B50446094A137813F0FF0F2F
:10460000FBD120460121FEF767FC20460021FEF782
:104610003FFC044B53F83420034B1A6010BD00BF1D
:10462000D89CFF1F6CA00000489DFF1F10B50D4BCC
:104630001B6813F4006F12D021280CD80A4C0B4BC6
:1046400053F8303023600121FEF746FC2368002236
:104650001A70012010BD0020034B186010BD00200F
:1046600010BD00BF34800440D49CFF1F6CA000002C
:104670000D4B1B6813F4006F13D017280AD140F2BA
:1046800002320A4B1A600A4B5A7B42F001025A73FB
:1046900001207047064B5A7B02F0FE025A7300203D
:1046A00070470020704700BF3480044008B00440C9
:1046B00000B006402DE9F04107461F4B1B6813F47C
:1046C000006F37D01D4B1B680BB101221A701C4BB9
:1046D0001C780134282C28BF00241A4D1A4EDFF80C
:1046E0006C8017E0FEF7DCF940280FDC337913F01B
:1046F000800F0FD02B780133282B28BF002318F808
:104700000320D2B2F271DBB22B7003E0FF2801DD8F
:10471000FFF774FB2B78DBB29C42E3D0FFB20B4B6C
:104720001F5501220A4B1A70E4B2054B1C70BC22C3
:10473000054BDA70BDE8F08134800440489DFF1FCE
:104740004C9DFF1F459DFF1F00B00640DC9CFF1FD6
:10475000D89CFF1F2DE9F84F0746284B1B6813F420
:10476000006F49D0264B1B680BB101221A7007EB72
:10477000010B5F453DD2DFF89890224EDFF88C8028
:10478000DFF890A099F800400134282C28BF0024BD
:104790003578EDB2A54220D1BC2388F80330FEF76E
:1047A0007FF9402811DC98F8043013F0800F10D006
:1047B00033780133282B28BF00231AF80320D2B204
:1047C00088F80720DBB2337003E0FF2801DDFFF734
:1047D00015FB3378DBB29D42E1D017F8013B0AF8B4
:1047E00004300122084B1A70E4B289F800405F459A
:1047F000C8D1BC22054BDA70BDE8F88F3480044084
:10480000489DFF1F459DFF1FD89CFF1F00B006401D
:104810004C9DFF1FDC9CFF1F10B5064B1B7813F04F
:10482000FF0F06D0034CFFF7E9FA237813F0FF0FD0
:10483000F9D110BDD89CFF1F064B1B78DBB2064A8E
:104840001278D2B293422CBF273202F1FF32D01A33
:10485000704700BF4C9DFF1F459DFF1F054B1878FB
:10486000C0B2054B1B78DBB2984238BF4030C01A4B
:10487000704700BF449DFF1FD99CFF1F10B4184B09
:104880001A78D2B2174B1B78DBB29A4218D0013398
:104890003F2B18D81449C85CC0B2DCB211490C7067
:1048A00012490968C9B19A4203D300E00023D31A20
:1048B00001E04032D31A1A2B0FDC00230B700CE0FE
:1048C0004FF0FF3009E0084B1878C0B20021054BCB
:1048D0001970064B19680029E8D15DF8044B704740
:1048E000449DFF1FD99CFF1F049DFF1FD49CFF1FE9
:1048F000094B1A78D2B2094B1B78DBB29A4207D027
:104900000133402B28BF0023054AD05CC0B270475A
:104910004FF0FF30704700BF449DFF1FD99CFF1F21
:10492000049DFF1F0D4B1B6813F4006F14D00C4B3C
:10493000DA7802F0CB02DA7040225A74DA7842F068
:104940003402DA70074B1A78D2B2074B1A70074B51
:104950001B680BB100221A70704700BF34800440FE
:1049600000B00640D99CFF1F449DFF1FD49CFF1F31
:1049700070B43D4B1B7913F0300F33D072B63A4B05
:104980009B7D03F0FF022BB9374BDA7940225A7432
:1049900062B627E062B6354B1978C9B2344B1C7841
:1049A000E4B2314D334EEB79D8B24B1C402B28BFCB
:1049B0000023A3421CBFF0541946531E13F0FF02FC
:1049C000F1D1CAB2294B1A702B4B1B6853B1A142CB
:1049D0002EBFC4EB0101C4F1400409192729C4BF4B
:1049E00001221A70204BDA78D2B212F0800F27D051
:1049F0001B7913F0800F23D0204B1C78E4B2204B9E
:104A00001B78DBB29C4210D017491E4D01E0A34237
:104A10000BD00133282B28BF00230879E85CC0B2F3
:104A2000C871087DC0B20728F1D9DBB214490B70F8
:104A30000D4B1B7913F0800F02D07C210A4BD970EB
:104A400012F0400F0ED0084B1B7913F0400F09D025
:104A500000220D4B1A700D4B1B6803B11A703C22DB
:104A6000014BDA7070BC704700B00640449DFF1FD8
:104A7000D99CFF1F049DFF1FD49CFF1F4C9DFF1F4F
:104A8000459DFF1FDC9CFF1FD89CFF1F489DFF1FFB
:104A9000174B1A6842F480521A600023154A1370AB
:104AA000154A1370154A1370154A1370154A13707E
:104AB00040F21331144A11604FF451710432116005
:104AC000C0F34431114A1170C0F34711517000F026
:104AD0001F009072937013742C23D37040220C4BE0
:104AE0001A704FF40032A3F22D331A60704700BFE2
:104AF00034800440C09DFF1F559DFF1FC89DFF1FB0
:104B0000C19DFF1F549DFF1F08C0044000C0064008
:104B100031E400E0164B9B7803F0EC0300F0030255
:104B2000134310F0040F18BF43F01003104A9370A2
:104B300000F00F03042B04D11346927942F0400297
:104B40009A710B4B5A7902F0EF0210F0100F18BF58
:104B500042F01002064B5A719B7903F0EF0310F0FC
:104B6000200F18BF43F01003014A9371704700BF34
:104B700000C0064010B5144B1B6813F4805F21D0B1
:104B8000124B1B7813F0FF0F06D0104CFFF736F9CD
:104B9000237813F0FF0FF9D14FF400320C4B1A6059
:104BA00000230C4AD37040F203120B490A6004310F
:104BB0000A600A4A13700A4A13700A4B1B680BB149
:104BC00001221A7010BD00BF34800440549DFF1FA5
:104BD00084E100E000C0064008C00440C09DFF1F03
:104BE000559DFF1F509DFF1F10B50446094A1378BD
:104BF00013F0FF0FFBD120460121FEF76DF920468F
:104C00000021FEF745F9044B53F83420034B1A609A
:104C100010BD00BF549DFF1F6CA00000C49DFF1F6E
:104C200010B50D4B1B6813F4805F12D021280CD8EF
:104C30000A4C0B4B53F8303023600121FEF74CF93E
:104C4000236800221A70012010BD0020034B186059
:104C500010BD002010BD00BF34800440509DFF1FD8
:104C60006CA000000D4B1B6813F4805F13D00E285E
:104C70000AD140F202320A4B1A600A4B5A7B42F0C8
:104C800001025A7301207047064B5A7B02F0FE0264
:104C90005A73002070470020704700BF34800440E2
:104CA00004C0044000C006402DE9F04107461F4BF8
:104CB0001B6813F4805F37D01D4B1B680BB10122BA
:104CC0001A701C4B1C780134282C28BF00241A4D64
:104CD0001A4EDFF86C8017E0FDF7E2FE40280FDC8B
:104CE000337913F0800F0FD02B780133282B28BF96
:104CF000002318F80320D2B2F271DBB22B7003E06C
:104D0000FF2801DDFFF77AF82B78DBB29C42E3D075
:104D1000FFB20B4B1F5501220A4B1A70E4B2054B30
:104D20001C70AC22054BDA70BDE8F0813480044081
:104D3000C49DFF1FC89DFF1FC19DFF1F00C00640EF
:104D4000589DFF1F549DFF1F38B505460C4629B1DD
:104D500015F8010BFFF7A8FF013CF9D138BD00BFE2
:104D600010B5064B1B7813F0FF0F06D0034CFFF76E
:104D700045F8237813F0FF0FF9D110BD549DFF1FA4
:104D8000064B1B78DBB2064A1278D2B293422CBF94
:104D9000273202F1FF32D01A704700BFC89DFF1FB3
:104DA000C19DFF1F054B1878C0B2054B1B78DBB2C5
:104DB000984238BF4030C01A704700BFC09DFF1FE7
:104DC000559DFF1F10B4184B1A78D2B2174B1B78A1
:104DD000DBB29A4218D001333F2B18D81449C85C73
:104DE000C0B2DCB211490C7012490968C9B19A42CB
:104DF00003D300E00023D31A01E04032D31A1A2B68
:104E00000FDC00230B700CE04FF0FF3009E0084B83
:104E10001878C0B20021054B1970064B196800299B
:104E2000E8D15DF8044B7047C09DFF1F559DFF1FE3
:104E3000809DFF1F509DFF1F094B1A78D2B2094B6E
:104E40001B78DBB29A4207D00133402B28BF0023E6
:104E5000054AD05CC0B270474FF0FF30704700BFCA
:104E6000C09DFF1F559DFF1F809DFF1F054B1A789A
:104E7000D2B2054B1A70054B1B680BB100221A7099
:104E8000704700BF559DFF1FC09DFF1F509DFF1F16
:104E90002F4B1B7913F0200F23D02D4BDB79D9B288
:104EA0002C4B1B780133402B28BF00232A4A127851
:104EB000D2B29A4204D0294AD154D9B2254A1170AB
:104EC000274A116869B1274A1278D2B293422EBF9D
:104ED000C2EB0303C2F140029B18272BC4BF01237E
:104EE0000B701B4BDB78DBB213F0800F1CD0184A21
:104EF000127912F0800F17D01B4A1178C9B2194AE3
:104F00001278D2B2914203D16C21114AD1700BE0D8
:104F10000132282A28BF00221449885CC0B20C49FB
:104F2000C871D2B20F490A7013F0400F0ED0084B6F
:104F30001B7913F0400F09D000220D4B1A700D4B56
:104F40001B6803B11A702C22014BDA70704700BF46
:104F500000C00640C09DFF1F559DFF1F809DFF1F85
:104F6000509DFF1FC19DFF1FC89DFF1F589DFF1F24
:104F7000549DFF1FC49DFF1F00B585B072B61B4B2B
:104F800070221A7041211A4A11700F21013A1170D2
:104F900080221A701A46137813F0800FFBD0154B3D
:104FA000186862B6144B98429CBF00EB800040002A
:104FB00001A90A22FEF744FF9DF804307BB908E0FE
:104FC00001A9595C31B19180023201330A2BF7D12A
:104FD00000E0002301335B00084A137003E0074A36
:104FE00053800123ECE705B05DF804FB00000240AC
:104FF00007000240080002407F969800CC8CFF1FFB
:1050000008B503681B68C9B2984708BD08B50368AE
:105010001B68C9B2984708BD08B503681B68C9B2C8
:10502000984708BD08B503681B68C9B2984708BD12
:1050300008B54B0803F1376000F5D830B0FBF1F04C
:10504000FEF720FF08BD00BF10B514464B0803F162
:10505000376000F5D830B0FBF1F0FEF713FF2046C3
:10506000FEF756FF10BD00BF08B5FEF781FF08BD73
:1050700008B50846FEF7B6FF08BD00BF08B50846EC
:10508000FEF7CCFF003018BF012008BD08B5084668
:10509000FEF7E6FF003018BF012008BD08B5FFF796
:1050A000DFF808BD08B5FFF725F908BD08B5FFF71B
:1050B000E7F808BD08B5FFF7B1F808BD08B5FFF778
:1050C00033F908BD08B5FFF7B9F808BD08B50846BB
:1050D000FEF7F2FF012008BD08B50846FEF7ECFF19
:1050E000012008BD10B5144608461146FFF734F8F4
:1050F000204610BD38B50D46084601F0AFFB04460A
:1051000028462146FFF728F8204638BD704700BFE3
:10511000044B00221A714FF47A7199601A73024A93
:105120001A607047CC9DFF1F00A2000008B50368FD
:105130001B68C9B2984708BD08B503681B68C9B2A7
:10514000984708BD08B503681B68C9B2984708BDF1
:1051500008B503681B68C9B2984708BD08B54B0875
:1051600003F1376000F5D830B0FBF1F0FFF792F9AA
:1051700008BD00BF10B514464B0803F1376000F5B9
:10518000D830B0FBF1F0FFF785F92046FFF7C8F9FA
:1051900010BD00BF08B5FFF7F3F908BD08B5084614
:1051A000FFF728FA08BD00BF08B50846FFF73EFA2A
:1051B000003018BF012008BD08B50846FFF758FAAF
:1051C000003018BF012008BD08B5FFF747FB08BD38
:1051D00008B5FFF78DFB08BD08B5FFF74FFB08BD0D
:1051E00008B5FFF719FB08BD08B5FFF79BFB08BD25
:1051F00008B5FFF721FB08BD08B50846FFF75AFAC6
:10520000012008BD08B50846FFF754FA012008BD83
:1052100010B5144608461146FFF79CFA204610BD0B
:1052200038B50D46084601F019FB044628462146CC
:10523000FFF790FA204638BD704700BF044B0022AC
:105240001A714FF47A7199601A73024A1A607047A2
:10525000DC9DFF1F58A2000008B503681B68C9B297
:10526000984708BD08B503681B68C9B2984708BDD0
:1052700008B503681B68C9B2984708BD08B503683C
:105280001B68C9B2984708BD08B54B0803F1B76061
:1052900000F55840B0FBF1F0FFF7FAFB08BD00BF86
:1052A00010B514464B0803F1B76000F55840B0FB49
:1052B000F1F0FFF7EDFB2046FFF72CFC10BD00BF1F
:1052C00008B5FFF757FC08BD08B50846FFF78CFC8A
:1052D00008BD00BF08B50846FFF7A2FC003018BFA4
:1052E000012008BD08B50846FFF7BCFC003018BF18
:1052F000012008BD08B5FFF755FD08BD08B5FFF74B
:105300009BFD08BD08B5FFF75DFD08BD08B5FFF7BB
:1053100027FD08BD08B5FFF7A9FD08BD08B5FFF7D3
:105320002FFD08BD08B50846FFF7BEFC012008BDEB
:1053300008B50846FFF7B8FC012008BD10B51446B3
:1053400008461146FFF700FD204610BD38B50D4652
:10535000084601F083FA044628462146FFF7F4FC8C
:10536000204638BD704700BF044B00221A714FF42D
:105370007A7199601A73024A1A607047EC9DFF1F98
:10538000B0A2000081F0004102E000BF83F00043C2
:1053900030B54FEA41044FEA430594EA050F08BFD0
:1053A00090EA020F1FBF54EA000C55EA020C7FEA94
:1053B000645C7FEA655C00F0E2804FEA5454D4EB11
:1053C0005555B8BF6D420CDD2C4480EA020281EADB
:1053D000030382EA000083EA010180EA020281EA13
:1053E0000303362D88BF30BD11F0004F4FEA013165
:1053F0004FF4801C4CEA113102D0404261EB410174
:1054000013F0004F4FEA03334CEA133302D05242F9
:1054100063EB430394EA050F00F0A780A4F10104B5
:10542000D5F1200E0DDB02FA0EFC22FA05F28018EF
:1054300041F1000103FA0EF2801843FA05F35941D5
:105440000EE0A5F120050EF1200E012A03FA0EFC54
:1054500028BF4CF0020C43FA05F3C01851EBE3717E
:1054600001F0004507D54FF0000EDCF1000C7EEB9B
:1054700000006EEB0101B1F5801F1BD3B1F5001FD9
:105480000CD349085FEA30004FEA3C0C04F10104F8
:105490004FEA445212F5800F80F09A80BCF1004F21
:1054A00008BF5FEA500C50F1000041EB045141EAA3
:1054B000050130BD5FEA4C0C404141EB010111F4A4
:1054C000801FA4F10104E9D191F0000F04BF01464F
:1054D0000020B1FA81F308BF2033A3F10B03B3F12D
:1054E00020020CDA0C3208DD02F1140CC2F10C02BD
:1054F00001FA0CF021FA02F10CE002F11402D8BF1B
:10550000C2F1200C01FA02F120FA0CFCDCBF41EAE6
:105510000C019040E41AA2BF01EB0451294330BDB5
:105520006FEA04041F3C1CDA0C340EDC04F1140492
:10553000C4F1200220FA04F001FA02F340EA030069
:1055400021FA04F345EA030130BDC4F10C04C4F1AF
:10555000200220FA02F001FA04F340EA030029468F
:1055600030BD21FA04F0294630BD94F0000F83F4D9
:10557000801306BF81F480110134013D4EE77FEABC
:10558000645C18BF7FEA655C29D094EA050F08BF08
:1055900090EA020F05D054EA000C04BF19461046E9
:1055A00030BD91EA030F1EBF0021002030BD5FEA2D
:1055B000545C05D14000494128BF41F0004130BD55
:1055C00014F580043CBF01F5801130BD01F00045A9
:1055D00045F0FE4141F470014FF0000030BD7FEA1C
:1055E000645C1ABF194610467FEA655C1CBF0B4617
:1055F000024650EA013406BF52EA033591EA030F2E
:1056000041F4002130BD00BF90F0000F04BF002125
:10561000704730B54FF4806404F132044FF0000558
:105620004FF0000150E700BF90F0000F04BF0021D1
:10563000704730B54FF4806404F1320410F0004537
:1056400048BF40424FF000013EE700BF42004FEA32
:10565000E2014FEA31014FEA02701FBF12F07F43AF
:1056600093F07F4F81F06051704792F0000F14BFAC
:1056700093F07F4F704730B54FF4607401F00045F0
:1056800021F0004120E700BF50EA010208BF704747
:1056900030B54FF000050AE050EA010208BF70473C
:1056A00030B511F0004502D5404261EB41014FF4A5
:1056B000806404F132045FEA915C3FF4DCAE4FF0A9
:1056C00003025FEADC0C18BF03325FEADC0C18BF90
:1056D000033202EBDC02C2F1200300FA03FC20FAE1
:1056E00002F001FA03FE40EA0E0021FA02F114442E
:1056F000C1E600BF70B54FF0FF0C4CF4E06C1CEA43
:1057000011541DBF1CEA135594EA0C0F95EA0C0FB7
:1057100000F0DEF82C4481EA030621EA4C5123EA2A
:105720004C5350EA013518BF52EA033541F4801159
:1057300043F4801338D0A0FB02CE4FF00005E1FB0C
:1057400002E506F00042E0FB03E54FF00006E1FB56
:1057500003569CF0000F18BF4EF0010EA4F1FF0499
:10576000B6F5007F64F5407404D25FEA4E0E6D41D9
:1057700046EB060642EAC62141EA55514FEAC520EA
:1057800040EA5E504FEACE2EB4F1FD0C88BFBCF566
:10579000E06F1ED8BEF1004F08BF5FEA500E50F117
:1057A000000041EB045170BD06F0004646EA0101DD
:1057B00040EA020081EA0301B4EB5C04C2BFD4EB0F
:1057C0000C0541EA045170BD41F480114FF0000E08
:1057D000013C00F3AB8014F1360FDEBF002001F076
:1057E000004170BDC4F10004203C35DA0C341BDCF0
:1057F00004F11404C4F1200500FA05F320FA04F0C2
:1058000001FA05F240EA020001F0004221F00041F5
:1058100010EBD37021FA04F642EB06015EEA430E68
:1058200008BF20EAD37070BDC4F10C04C4F1200598
:1058300000FA04F320FA05F001FA04F240EA02004B
:1058400001F0004110EBD37041F100015EEA430E1C
:1058500008BF20EAD37070BDC4F1200500FA05F23C
:105860004EEA020E20FA04F301FA05F243EA0203BB
:1058700021FA04F001F0004121FA04F220EA0200CA
:1058800000EBD3705EEA430E08BF20EAD37070BD10
:1058900094F0000F0FD101F00046400041EB0101F0
:1058A00011F4801F08BF013CF7D041EA060195F0D2
:1058B000000F18BF704703F00046520043EB03038C
:1058C00013F4801F08BF013DF7D043EA0603704779
:1058D00094EA0C0F0CEA135518BF95EA0C0F0CD084
:1058E00050EA410618BF52EA4306D1D181EA0301CA
:1058F00001F000414FF0000070BD50EA410606BFC4
:105900001046194652EA430619D094EA0C0F02D108
:1059100050EA013613D195EA0C0F05D152EA03364D
:105920001CBF104619460AD181EA030101F000416B
:1059300041F0FE4141F470014FF0000070BD41F0B4
:10594000FE4141F4780170BD70B54FF0FF0C4CF48E
:10595000E06C1CEA11541DBF1CEA135594EA0C0FAD
:1059600095EA0C0F00F0A7F8A4EB050481EA030EFA
:1059700052EA03354FEA013100F088804FEA0333E1
:105980004FF0805545EA131343EA12634FEA0222AF
:1059900045EA111545EA10654FEA00260EF0004170
:1059A0009D4208BF964244F1FD0404F5407402D2C2
:1059B0005B084FEA3202B61A65EB03055B084FEA53
:1059C00032024FF480104FF4002CB6EB020E75EB50
:1059D000030E22BFB61A754640EA0C005B084FEA78
:1059E0003202B6EB020E75EB030E22BFB61A7546F5
:1059F00040EA5C005B084FEA3202B6EB020E75EB40
:105A0000030E22BFB61A754640EA9C005B084FEAB7
:105A10003202B6EB020E75EB030E22BFB61A7546C4
:105A200040EADC0055EA060E18D04FEA051545EAB3
:105A300016754FEA06164FEAC30343EA52734FEA5C
:105A4000C2025FEA1C1CC0D111F4801F0BD141EAD5
:105A500000014FF000004FF0004CB6E711F4801F3A
:105A600004BF01430020B4F1FD0C88BFBCF5E06F1A
:105A70003FF6AFAEB5EB030C04BFB6EB020C5FEA2A
:105A8000500C50F1000041EB045170BD0EF0004E7F
:105A90004EEA113114EB5C04C2BFD4EB0C0541EAB1
:105AA000045170BD41F480114FF0000E013C90E6AE
:105AB00045EA060E8DE60CEA135594EA0C0F08BF72
:105AC00095EA0C0F3FF43BAF94EA0C0F0AD150EA71
:105AD00001347FF434AF95EA0C0F7FF425AF104604
